:020000040100F9
:101000001080002011130001991200019B120001B1
:101010009F120001A3120001A712000100000000AE
:10102000000000000000000000000000AB12000102
:10103000AD12000100000000AF120001B11200016A
:101040003713000137130001371300013713000174
:101050003713000137130001371300013713000164
:101060003713000137130001371300013713000154
:101070003713000137130001371300013713000144
:101080003713000137130001371300013713000134
:10109000371300013713000137130001BD1200019F
:1010A0003713000137130001371300013713000114
:1010B00000000000371300010000000000000000E5
:1010C000371300013713000100000000371300013F
:1010D00037130001371300013713000137130001E4
:1010E000371300010000000037130001000000006A
:1010F000000000000000000037130001371300015A
:1011000000000000371300013713000137130001FE
:10111000DFF80CD001F0EEFB00480047FD110001A4
:101120001080002072B600BF00BF00BF00BF30BFFC
:1011300000BF00BF00BF00BF62B670471FB50420EC
:1011400002464F4B19684FF6FF0319404D4B0B43B6
:1011500043EA02214A4B196000BF1720009000208B
:101160000190029001208DF80C00684600F000F913
:101170001FBD10B503224FF47041434800F01AFA26
:1011800001224FF47041404800F054FD01224FF419
:1011900060413D48103000F00DFA01224FF46041EB
:1011A0003948103000F046FD10BD1FB5684600F00C
:1011B00070FE002000900F20029070200190684681
:1011C00000F04DFE0121062000F092FE012000F00B
:1011D00037FE1FBD1FB5012203212B48303800F018
:1011E000E9F94FF4E13000900320019000200290D3
:1011F00003906946254801F068F91FBD0121244884
:1012000000F0ADFE0121234800F0F8FEFFF7E2FFF9
:10121000A1211E4801F0D6F9FFF7C7FFA2211B4804
:1012200001F0D0F9FFF7A5FFA321184801F0CAF992
:10123000FFF784FFA421154801F0C4F9A521134844
:1012400001F0C0F900BFFEE710B5044600BF0F482B
:1012500001F077FA0028FAD0E1B20C4801F0B2F9B7
:10126000204610BD70B504460D460A2C02D10D2053
:10127000FFF7EAFF2046FFF7E7FF70BD00BFFEE77C
:101280000CED00E00000FA0530D0014000600140A4
:101290000100100801000008704700BFFEE700BF12
:1012A000FEE700BFFEE700BFFEE7704770477047EC
:1012B00010B5A821144801F085F910BD10B500241F
:1012C000AA21114801F07EF9042000F0F8FD38B1A0
:1012D000A6210D4801F076F900F01AFE04460AE056
:1012E000022000F0ECFD30B1A721074801F06AF9B7
:1012F00000F00EFE0446172001218140034A4309F5
:1013000042F8231000BF10BD0060014080E200E001
:1013100009480A4908600068854609488047094825
:1013200000470000FEE7FEE7FEE7FEE7FEE7FEE718
:10133000FEE7FEE7FEE7FEE70010000108ED00E033
:10134000B52800011111000110B50446072C05D085
:10135000062C03D0052C01D0042C00D103E01D2164
:1013600064A0FFF78BFF704820437049086010BDF0
:101370002DE9F0470446207B10B1207B012800D1E5
:1013800003E02F215BA0FFF779FF6068102800D2EF
:1013900003E0302157A0FFF771FFA068102800D2AA
:1013A00003E0312153A0FFF769FF207B002856D0CE
:1013B00000BF5E480068C0F3022005462846D4E915
:1013C00001230146C1F10708B8F1030F02D94FF01C
:1013D000030801E0C1F10708C44601F10308B8F1B0
:1013E000070F02D24FF0000801E0A1F104084746C0
:1013F0004FF0010808FA0CF8A8F1010808EA020801
:1014000008FA07F84FF0010909FA07F9A9F10109EB
:1014100009EA030948EA090600BF227851B23046BA
:10142000002908DA4207170E404A0C3201F00F0378
:101430001B1FD75403E04207130E3D4A535400BF0D
:10144000217848B200F01F020121914042094FF07B
:10145000E02303EB8202C2F8001100BF0BE0217809
:1014600048B200F01F0201219140324A430942F87C
:10147000231000BF00BFBDE8F08770B504460D46DD
:10148000B4F1005F02D0B4F1807F00D103E05121BC
:1014900018A0FFF7F3FE2848854200D203E052214E
:1014A00014A0FFF7EBFE254905EA010020431F4980
:1014B000091F086070BD10B50446042C01D0601DE2
:1014C00000D103E062210BA0FFF7D8FE042C08D165
:1014D0004FF0E020006940F004004FF0E021086187
:1014E00007E04FF0E020006920F004004FF0E02119
:1014F000086110BD2E2E5C2E2E5C2E2E5C2E2E5CD6
:101500002E2E5C4C69627261726965735C4D485342
:101510004350555F4472697665725C7372635C6DAB
:101520006973632E630000000000FA050CED00E013
:1015300000E400E080E100E0FFFF0F0080FFFF1FFC
:1015400030B587B004461822FE4901A801F0C0F961
:10155000FD48844213D0FC48103084420FD0FA4832
:10156000203084420BD0F8483030844207D0F6480F
:101570004030844203D0F4485030844200D103E02C
:101580001B21F2A0FFF77AFE002508E001A850F821
:101590002500A04202D1284607B030BD6D1C062DA3
:1015A000F4DB4FF0FF30F7E710B50121080500F03C
:1015B00025FD10BD2DE9F041064688461746E24854
:1015C000864213D0E048103086420FD0DE482030EB
:1015D00086420BD0DC483030864207D0DA484030B3
:1015E000864203D0D8485030864200D104E040F211
:1015F0004F11D6A0FFF742FE002018B9B8F1000F36
:1016000000D004E04FF4A871D0A0FFF737FE012FFF
:1016100005D0022F03D0032F01D0042F00D104E006
:1016200040F25111C9A0FFF729FE3046FFF788FFAD
:10163000044600253BE00120A84010EA080F35D001
:10164000D14850F824006A00032191408843CE49D4
:1016500041F82400012F06D0022F05D0032F0ED011
:10166000042F22D116E020E0C74850F824006A0079
:10167000012191400843C44941F8240015E0C248C3
:1016800050F824006A00022191400143BE4840F80E
:1016900024100AE0BC4850F824106A00032090404F
:1016A0000143B94840F8241000BF00BF6D1C102D45
:1016B000C1D3BDE8F08170B504460D464FF0FF364A
:1016C000A148844213D0A048103084420FD09E48D5
:1016D000203084420BD09C483030844207D09A4856
:1016E0004030844203D098485030844200D103E017
:1016F0003E2196A0FFF7C2FD2868000C000402D12D
:10170000286800B103E03F2190A0FFF7B7FD2879DA
:1017100001280BD02879022808D02879032805D081
:101720002879052802D02879042800D103E0402137
:1017300086A0FFF7A3FD6A79288881B22046FFF7CB
:1017400039FF6879022800D070BD2046FFF7F8FE07
:1017500006462879062855D2DFE800F054030C1518
:101760002A3FA06829680843A060E0682968884388
:10177000E06047E0A06829680843A060E068296845
:101780000843E0603EE0A06829680843A060E06884
:1017900029688843E06020682968884320607B4886
:1017A00030F8160029880843784921F8160029E006
:1017B000A06829680843A060E06829680843E060E1
:1017C0002068296888432060704830F8160029880E
:1017D00008436E4921F8160014E0A0682968884380
:1017E000A060E06829688843E060206829680843B1
:1017F0002060664830F8160029688843634921F85C
:10180000160000BF00BF00BF9EE74FF6FF710160EA
:10181000012101714171704770B505460C464A4877
:10182000854213D04848103085420FD046482030BA
:1018300085420BD044483030854207D04248403082
:10184000854203D040485030854200D103E08D21CD
:101850003EA0FFF713FD012C25D0022C23D0042C31
:1018600021D0082C1FD0102C1DD0202C1BD0402C98
:1018700019D0802C17D0B4F5807F14D0B4F5007F38
:1018800011D0B4F5806F0ED0B4F5006F0BD0B4F565
:10189000805F08D0B4F5005F05D0B4F5804F02D06A
:1018A000B4F5004F00D103E08E2128A0FFF7E6FC3D
:1018B000286814EA104F01D0012070BD0020FCE719
:1018C000014608684FF6FF7202EA1040704770B593
:1018D00005460C461C48854213D01B4810308542F3
:1018E0000FD01948203085420BD017483030854240
:1018F00007D015484030854203D013485030854208
:1019000000D103E0AC2111A0FFF7B8FC012C4CD0B2
:10191000022C4AD0042C48D0082C46D0102C44D09D
:10192000202C42D0402C40D0802C3ED0B4F5807F7B
:101930003BD0B4F5007F38D0B4F5806F35D0B4F526
:10194000006F25E03829000100D001402E2E5C2ECA
:101950002E5C2E2E5C2E2E5C2E2E5C4C69627261EB
:10196000726965735C4D48534350555F44726976A4
:1019700065725C7372635C6D68736370755F6770CA
:10198000696F2E630000000080D101400400002038
:101990000BD0B4F5805F08D0B4F5005F05D0B4F586
:1019A000804F02D0B4F5004F00D104E0AD21AFF27A
:1019B0006400FFF763FC2868204201D0012070BD5D
:1019C0000020FCE70146086880B270472DE9F0412D
:1019D00005460C464FF0FF3600274FF00008F84848
:1019E000854213D0F648103085420FD0F44820309D
:1019F00085420BD0F2483030854207D0F048403065
:101A0000854203D0EE485030854200D104E0CD211C
:101A1000AFF2C800FFF732FC012C25D0022C23D0F6
:101A2000042C21D0082C1FD0102C1DD0202C1BD012
:101A3000402C19D0802C17D0B4F5807F14D0B4F589
:101A4000007F11D0B4F5806F0ED0B4F5006F0BD0CD
:101A5000B4F5805F08D0B4F5005F05D0B4F5804FD1
:101A600002D0B4F5004F00D104E0CE21AFF2241033
:101A7000FFF704FC2846FFF763FD0646D14830F81F
:101A8000160000EA0407CF4830F8160024EA0008E0
:101A9000CC4830F81600204203D0A8683843A8602C
:101AA00001E0C5F80480BDE8F0812DE9F04105466C
:101AB0000C464FF0FF3600274FF00008C048854223
:101AC00013D0BF48103085420FD0BD48203085422A
:101AD0000BD0BB483030854207D0B94840308542F2
:101AE00003D0B7485030854200D104E0EB21AFF27B
:101AF000A410FFF7C3FB012C25D0022C23D0042C0B
:101B000021D0082C1FD0102C1DD0202C1BD0402CF5
:101B100019D0802C17D0B4F5807F14D0B4F5007F95
:101B200011D0B4F5806F0ED0B4F5006F0BD0B4F5C2
:101B3000805F08D0B4F5005F05D0B4F5804F02D0C7
:101B4000B4F5004F00D104E0EC21AFF20020FFF724
:101B500095FB2846FFF7F4FC06469A4830F8160035
:101B600000EA0407974830F8160024EA0008954870
:101B700030F81600204203D0A868B843A86002E0FD
:101B80004FEA08406860BDE8F0812DE9F041044665
:101B90000E4600256F1E8A48844213D088481030B4
:101BA00084420FD08648203084420BD084483030A5
:101BB000844207D082484030844203D0804850306D
:101BC000844200D105E040F20711AFF28020FFF718
:101BD00055FB2046FFF7B4FC0746002526E0794870
:101BE00030F817000121A94008420FD00120A84079
:101BF000304205D0A0680121A9400843A06014E04C
:101C0000A0680121A9408843A0600EE00120A840FF
:101C1000304205D021680120A8400143216004E042
:101C200020680121A940884320606D1C102DD6D367
:101C3000BDE8F08170B504460D4616466048844202
:101C400013D05F48103084420FD05D48203084426A
:101C50000BD05B483030844207D059484030844232
:101C600003D057485030844200D105E04FF49871BA
:101C7000AFF22830FFF702FB002008B905B105E0FC
:101C800040F23111AFF23C30FFF7F8FA1EB1E068D4
:101C90002843E06002E0E068A843E06070BD47F6DA
:101CA000010049490860704770B505460C46164664
:101CB0004DB1012D07D0022D05D0032D03D0042DE9
:101CC00001D0052D00D105E04FF4C171AFF2843091
:101CD000FFF7D4FA200C000401D104B105E040F272
:101CE0008311AFF29830FFF7C9FA0EB1012E00D17F
:101CF00005E04FF4C271AFF2AC30FFF7BFFA76BB2C
:101D0000062D35D2DFE805F0030B131B232C2F48DB
:101D1000006820EA04002A49C1F8240228E02B4880
:101D2000006820EA04402649C1F8240220E028483F
:101D3000006820EA04002249C1F8280218E024487B
:101D4000006820EA04401E49C1F8280210E021483A
:101D5000006820EA04001A49C1F82C0208E008E0F3
:101D60001C48006820EA04401549C1F82C0200BF55
:101D700043E0062D40D2DFE805F0030B131B2F379D
:101D80001248006840EA04000D49C1F8240233E01B
:101D90000E48006840EA04400949C1F824022BE0DB
:101DA0000B48006840EA04000549C1F8280223E016
:101DB0000748006840EA04400149C1F828021BE0D6
:101DC00000D001400400002020D2014024D2014074
:101DD00028D201402CD201401348006840EA040098
:101DE0001249C1F82C0207E00F48006840EA04409D
:101DF0000E49C1F82C0200BF00BF70BD10B50446EB
:101E00000CB1012C00D105E04FF4E571AFF2C440F4
:101E1000FFF734FA0648006820F0010040EA0400A9
:101E20000249C1F8200210BD2CD2014000D001406F
:101E300020D2014010B50121C80600F0DFF810BD26
:101E400030B13549496841F00101334A516005E03C
:101E50003149496821F001012F4A5160704730B57E
:101E60000346002400250020FFF7EAFF00BF2A48B0
:101E7000406810F0004FFAD118684502D3E901100C
:101E800020EA010445EA040023490860D868086193
:101E900030BD012101600F2141604FF4F871816074
:101EA0004FF05A31C1607047014611B1B1F1FF3FA7
:101EB00001D101207047184801610020FAE701466E
:101EC000002211F0020F01D042F0040211F0040FC1
:101ED00001D042F0080211F0080F01D042F00202D6
:101EE0000D488068104201D0012070470020FCE7B7
:101EF00029B1094A52680243074B5A6004E0064A76
:101F000052688243044B5A6070470349C86870475F
:101F10000148C068704700000080044070B5044666
:101F20000D46F448044201D104B103E01F21F2A0A0
:101F3000FFF7A4F90DB1012D00D103E02021EEA09F
:101F4000FFF79CF92DB1FB4880682043F949886070
:101F500004E0F8488068A043F649886070BD70B519
:101F600004460D46F448044201D104B103E0502177
:101F7000E1A0FFF783F90DB1012D00D103E051215C
:101F8000DDA0FFF77BF92DB1EA4840682043E9491D
:101F9000486004E0E7484068A043E649486070BDF7
:101FA00070B504460D46E548044201D104B103E092
:101FB0007121D1A0FFF762F90DB1012D00D103E02D
:101FC0007221CDA0FFF75AF9DA48406904F0704158
:101FD0008843D849486125B1084600692043086113
:101FE00004E0D4480069A043D2490861D14840695F
:101FF00004F070410843CF49486170BD70B5044694
:102000000D46CD48044201D104B103E09F21BAA09E
:10201000FFF734F90DB1012D00D103E0A021B6A0E6
:10202000FFF72CF92DB1C348C0682043C149C860EF
:1020300004E0C048C068A043BE49C86070BD70B528
:102040000446022C00DA03E0C521ABA0FFF716F925
:102050006CB9B848006820F0E060B649086000BF7D
:10206000B44800680028FBD0FFF75CF813E0012CAF
:1020700011D1B048006820F0E06040F08070AD49B8
:102080000860AF48C56845F47040AD49C860FFF7C7
:1020900049F8AB48C56070BD10B504460CB1012CC1
:1020A00000D103E0DE2194A0FFF7E8F814B1012C81
:1020B0000ED106E09F48006820F480509D490860DA
:1020C00006E09C48006840F480509A49086000BFD0
:1020D00000BF10BD10B50446012C0FD0022C0DD04E
:1020E000032C0BD0042C09D0052C07D0062C05D0CE
:1020F000072C03D0082C01D0092C00D103E0F221D9
:102100007DA0FFF7BBF80A2C57D2DFE804F0564D4C
:10211000443B322920170E058648006820F4F81049
:1021200040F480108349086047E08248006820F44A
:10213000F81040F470207F4908603EE07D48006858
:1021400020F4F81040F460207A49086035E07948BE
:10215000006820F4F81040F45020764908602CE024
:102160007448006820F4F81040F440207149086079
:1021700023E07048006820F4F81040F430206D49E6
:1021800008601AE06B48006820F4F81040F4202042
:102190006849086011E06748006820F4F81040F4CE
:1021A00010206449086008E06248006820F4F810D4
:1021B00040F400205F49086000BF00BF10BD10B5AB
:1021C00004461CB1012C01D0102C00D104E040F2D7
:1021D000231149A0FFF752F824B1012C09D0102C8B
:1021E00019D10FE05348006820F44070514908604D
:1021F00011E05048006820F4407040F480704D4970
:10220000086008E04B48006820F4407040F400701B
:102210004849086000BF00BF10BD4649096801F485
:10222000F811B1F5801F02D1464901604EE04149E5
:10223000096801F4F811B1F5702F02D1424901602B
:1022400044E03C49096801F4F811B1F5602F02D16E
:102250003E4901603AE03749096801F4F811B1F5E7
:10226000502F02D13A49016030E03249096801F447
:10227000F811B1F5402F02D13649016026E02D4911
:10228000096801F4F811B1F5302F02D1324901602B
:102290001CE02849096801F4F811B1F5202F02D19A
:1022A0002E49016012E02349096801F4F811B1F5E3
:1022B000102F02D12A49016008E01E49096801F483
:1022C000F811B1F5002F01D12649016019490968BB
:1022D00011F4407F02D1016841604FE0154909685F
:1022E00001F44071B1F5807F3ED101684908416039
:1022F00044E00000D0FFFFCF2E2E5C2E2E5C2E2E51
:102300005C2E2E5C2E2E5C4C696272617269657364
:102310005C4D48534350555F4472697665725C73F7
:1023200072635C6D68736370755F737973637472E5
:102330006C2E630000F00140F0984A13D0FFFF0FAD
:1023400000E0014000CB280C00B0710B0095BA0AE8
:10235000007A030A005F4C09004495080029DE0753
:10236000000E270700F36F063B49096801F440712E
:10237000B1F5007F02D10168890841603649C96A18
:102380004FF47A72514381603349096B5143C16004
:1023900070471FB504460CB1012C00D105E04FF485
:1023A0009F71AFF2AC00FEF769FF6846FFF735FF9B
:1023B00044B1012C18D12848006840F0100026498B
:1023C000086011E025490198884206D82248006833
:1023D00020F010002049086005E01F48006840F028
:1023E00010001D49086000BF00BF1FBD10B50446A6
:1023F000012C01D0022C00D105E040F25B11AFF2BC
:102400000810FEF73BFF012C02D0022C0FD106E092
:102410001148006820F001000F49086007E00E48ED
:10242000006820F00100401C0B49086000BF00BF9D
:1024300010BD10B5044601210820FFF76FFD1022E2
:102440000749204600F044FA10BD10B50121C80725
:10245000FFF7A6FD10BD000000F0014080651406E6
:102460000488004010B50446F848844208D0F84873
:10247000844205D0F748844202D0F748844200D114
:1024800003E01821F5A0FEF7F9FEF048844204D1DC
:1024900001210846FFF7B2FD16E0ED48844204D161
:1024A00001210220FFF7AAFD0EE0EA48844204D190
:1024B00001210420FFF7A2FD06E0E748844203D192
:1024C00001210820FFF79AFD10BD7FB505460C4697
:1024D000DE48854208D0DE48854205D0DD48854289
:1024E00002D0DD48854200D103E03A21DBA0FEF7AF
:1024F000C5FE206820B1E8492068884200D203E088
:102500003B21D6A0FEF7BAFE606840B160680128A2
:1025100005D06068022802D06068032800D103E07B
:102520003C21CEA0FEF7AAFEA06848B1A06804280E
:1025300001D1606820B1A068042802D1606800B1B0
:1025400003E03D21C5A0FEF799FEE06828B1E068F0
:10255000182802D0E068082800D103E03E21BFA07F
:10256000FEF78CFE6846FFF758FEE86840F08000F2
:10257000E86003980009216800EB5100B0FBF1F618
:10258000F0B22860C6F307206860E86820F0800099
:10259000E860D4E901010843E1680843E8607FBDD1
:1025A0004FF4165101600321416000218160C16038
:1025B00070471AB143680B43436002E043688B43A2
:1025C000436070470160704701460868C0B27047B9
:1025D00021B1026942F02002026103E0026922F0A7
:1025E000200202617047016941F0010101617047F9
:1025F000016921F0010101617047016941F00201A7
:1026000001617047016921F00201016170470A69A7
:1026100022B1426842F08002426003E0426822F048
:1026200080024260D0F8982052F0010205D0D0F824
:10263000982022F00102C0F898204A6832B9D0F8F8
:10264000942022F00102C0F8942008E04A68012A90
:1026500005D1D0F8942042F00102C0F894208A6895
:10266000C0F89C20CA68C0F8A0200A7832B1D0F81F
:10267000982042F00102C0F8982005E0D0F8982098
:1026800022F00102C0F898207047002101704160DB
:10269000022181600321C16000210161704702466F
:1026A000002051F0010301D040F0040009B140F0D6
:1026B0000200C2F88800704731B1D0F8982042F08B
:1026C0000102C0F8982005E0D0F8982022F001021D
:1026D000C0F89820704701464869704701468869EC
:1026E00070470146886870470146486910F0800FBE
:1026F00001D0012070470020FCE70146486910F036
:10270000080F01D0012070470020FCE7014648690E
:1027100010F0040F01D0012070470020FCE70146B3
:10272000486910F0020F01D0012070470020FCE73B
:102730000146486910F0010F01D0012070470020C8
:10274000FCE70146486910F0400F01D001207047B6
:102750000020FCE70146486910F0200F01D001205D
:1027600070470020FCE70146486910F0200F01D0B7
:10277000012070470020FCE70146C86F10F0100FE1
:1027800001D0012070470020FCE70146C86F10F01F
:10279000080F01D0012070470020FCE70146C86FF8
:1027A00010F0040F01D0012070470020FCE7014623
:1027B000C86F10F0020F01D0012070470020FCE725
:1027C0000146C86F10F0010F01D0012070470020B2
:1027D000FCE7D0F8A81041F00101C0F8A81070473C
:1027E00031B1D0F8A42042F00102C0F8A42005E0E5
:1027F000D0F8A42022F00102C0F8A420704721B133
:10280000026F42F00102026703E0026F22F0010250
:10281000026770470146486FC0B2704770B5044602
:102820000D460DB1012D00D104E04FF4F5710BA060
:10283000FEF724FD25B1206940F04000206103E04F
:10284000206900F04000206170BD00000060014080
:102850000070014000400440005004402E2E5C2EC9
:102860002E5C2E2E5C2E2E5C2E2E5C4C69627261CC
:10287000726965735C4D48534350555F4472697685
:1028800065725C7372635C6D68736370755F7561AC
:1028900072742E630000000021AA4400D0F890104A
:1028A00041F00101C0F8901070470000054806494A
:1028B000086070470548006840F4700003490860EC
:1028C00070470000006CDC020000002088ED00E092
:1028D00040EA01039B0703D009E008C9121F08C0A2
:1028E000042AFAD203E011F8013B00F8013B521E22
:1028F000F9D27047064C074D06E0E06840F001034E
:1029000094E8070098471034AC42F6D3FEF704FC75
:10291000502900017029000102E008C8121F08C1F7
:10292000002AFAD170477047002001E001C1121F50
:10293000002AFBD17047000000D0014010D00140B8
:1029400020D0014030D0014040D0014050D0014063
:102950007029000100000020040000001829000177
:1029600074290001040000200C80000028290001C7
:04297000006CDC0219
:0400000501001111D4
:00000001FF
