:020000040100F9
:101000002080002025110001CD130001C51300012F
:10101000C9130001C9110001EB1900010000000013
:10102000000000000000000000000000F1130001BB
:10103000CD11000100000000CF13000131160001A6
:101040004B1100014B1100014B1100014B1100012C
:101050004B110001651600014B1100014B110001FD
:101060004B1100014B1100014B1100014B1100010C
:101070004B1100014B1100014B1100014B110001FC
:101080004B1100014B1100014B1100014B110001EC
:101090004B1100014B1100014B1100014B110001DC
:1010A0004B1100014B1100014B1100014B110001CC
:1010B000000000004B1100010000000000000000D3
:1010C0004B1100014B110001000000004B11000109
:1010D0004B1100014B1100014B1100014B1100019C
:1010E0004B110001000000004B1100010000000046
:1010F00000000000000000004B1100014B11000136
:10110000000000004B1100014B1100014B110001C8
:10111000DFF80CD000F046F8004800475D1A0001E7
:101120002080002009480A4908600068854609486F
:101130008047094800470000FEE7FEE7FEE7FEE7BC
:10114000FEE7FEE7FEE7FEE7FEE7FEE70010000130
:1011500008ED00E0511600011111000140EA010301
:101160009B0703D009E008C9121F08C0042AFAD25D
:1011700003E011F8013B00F8013B521EF9D2704721
:10118000D2B201E000F8012B491EFBD270470022C9
:10119000F6E710B513460A4604461946FFF7F0FF76
:1011A000204610BD064C074D06E0E06840F0010304
:1011B00094E8070098471034AC42F6D3FFF7ACFF31
:1011C000081B0001281B000100BFFEE7704700005C
:1011D00030B587B004461822174901A8FFF7BEFFB3
:1011E0001648844213D01548103084420FD013485B
:1011F000203084420BD011483030844207D00F4851
:101200004030844203D00D485030844200D103E086
:101210001B210BA000F014FC002508E001A850F8E9
:101220002500A04202D1284607B030BD6D1C062D16
:10123000F4DB4FF0FF30F7E7F01A000100D0014077
:101240002E2E5C2E2E5C2E2E5C2E2E5C2E2E5C4CBA
:1012500069627261726965735C4D48534350555FB2
:101260004472697665725C7372635C6D68736370F7
:10127000755F6770696F2E63000000002DE9F04113
:101280000646884617463E48864213D03C481030F2
:1012900086420FD03A48203086420BD03848303052
:1012A000864207D036484030864203D0344850301A
:1012B000864200D104E040F24F1132A000F0C0FBA2
:1012C000002018B9B8F1000F00D004E04FF4A87165
:1012D0002CA000F0B5FB012F05D0022F03D0032F67
:1012E00001D0042F00D104E040F2511125A000F0FC
:1012F000A7FB3046FFF76CFF044600253BE00120CA
:10130000A84010EA080F35D02D4850F824006A0094
:101310000321914088432A4941F82400012F06D037
:10132000022F05D0032F0ED0042F22D116E020E08B
:10133000234850F824006A000121914008432049C5
:1013400041F8240015E01E4850F824006A000221EC
:10135000914001431A4840F824100AE0184850F818
:1013600024106A00032090400143154840F82410DF
:1013700000BF00BF6D1C102DC1D3BDE8F08100007F
:1013800000D001402E2E5C2E2E5C2E2E5C2E2E5C6C
:101390002E2E5C4C69627261726965735C4D4853B4
:1013A0004350555F4472697665725C7372635C6D1D
:1013B00068736370755F6770696F2E63000000006B
:1013C00080D1014000BFFEE700BFFEE770477047D5
:1013D00010B5044600BF054800F0E6FA0028FAD030
:1013E000E1B2024800F0F6FA204610BD006001406C
:1013F0007047000070B504460D460F48044201D105
:1014000004B103E050210DA000F01AFB0DB1012D35
:1014100000D103E0512109A000F012FB2DB11648C4
:10142000406820431449486004E013484068A043E2
:101430001149486070BD0000F0984A132E2E5C2EB2
:101440002E5C2E2E5C2E2E5C2E2E5C4C6962726100
:10145000726965735C4D48534350555F44726976B9
:1014600065725C7372635C6D68736370755F7379CA
:10147000736374726C2E630000F0014070B5044613
:101480000D460F48044201D104B103E09F210DA095
:1014900000F0D6FA0DB1012D00D103E0A02109A082
:1014A00000F0CEFA2DB11648C06820431449C86038
:1014B00004E01348C068A0431149C86070BD000033
:1014C000F0984A132E2E5C2E2E5C2E2E5C2E2E5C57
:1014D0002E2E5C4C69627261726965735C4D485373
:1014E0004350555F4472697665725C7372635C6DDC
:1014F00068736370755F7379736374726C2E6300C5
:1015000000F001404049096801F4F811B1F5801F6D
:1015100002D13E4901604EE03B49096801F4F811EF
:10152000B1F5702F02D13A49016044E036490968AB
:1015300001F4F811B1F5602F02D1364901603AE0AB
:101540003149096801F4F811B1F5502F02D132493F
:10155000016030E02C49096801F4F811B1F5402F21
:1015600002D12E49016026E02749096801F4F811EB
:10157000B1F5302F02D12A4901601CE022490968E7
:1015800001F4F811B1F5202F02D12649016012E0D3
:101590001D49096801F4F811B1F5102F02D1224953
:1015A000016008E01849096801F4F811B1F5002F4D
:1015B00001D11E4901601449096811F4407F02D12C
:1015C0000168416014E01049096801F44071B1F507
:1015D000807F03D101684908416009E00A49096830
:1015E00001F44071B1F5007F02D1016889084160C2
:1015F0000549C96A4FF47A72514381600249096B07
:101600005143C1607047000000F0014000CB280C3E
:1016100000B0710B0095BA0A007A030A005F4C090A
:10162000004495080029DE07000E270700F36F0627
:1016300010B502A000F0DCF910BD0000537973541E
:1016400069636B5F48616E646C65720D0A0000002F
:101650000348006840F470000149086070470000CA
:1016600088ED00E010B5314CA06800F00F000628AE
:1016700053D006DC00284ED0022823D0042851D1B4
:1016800004E007284BD00C284CD14AE011E0274851
:1016900000F09CF92649274A1268885425480068BA
:1016A000401C24490860084600680F2801D100202A
:1016B00008601E4800F06FF90028E8D101201E499B
:1016C000086030E018E01D4800681A49096888423F
:1016D00000D116E01648194A1268815C134800F0E0
:1016E00079F916480068401C1449086008460068EB
:1016F0000F2801D1002008600C4800F05EF9002896
:10170000E1D100BF00200C490860002202212046E0
:1017100000F09BF807E0A06905E0606903E0E06F76
:1017200001E000E000BF00BF10BD0000006001400C
:10173000100000200000002008000020040000200D
:1017400000B589B005A800F047F9684600F073F8C5
:10175000012203210F48FFF791FD4FF4E13005907E
:101760000320069000200790089001208DF80000CB
:10177000019002900390049005A9074800F06EF8CC
:101780006946054800F019F80121034800F006F801
:1017900009B000BD00D001400060014031B1D0F877
:1017A000982042F00102C0F8982005E0D0F8982077
:1017B00022F00102C0F8982070470A6922B14268FD
:1017C00042F08002426003E0426822F08002426000
:1017D000D0F8982052F0010205D0D0F8982022F0DD
:1017E0000102C0F898204A6832B9D0F8942022F05B
:1017F0000102C0F8942008E04A68012A05D1D0F817
:10180000942042F00102C0F894208A68C0F89C201D
:10181000CA68C0F8A0200A7832B1D0F8982042F007
:101820000102C0F8982005E0D0F8982022F00102CB
:10183000C0F898207047002101704160022181604A
:101840000321C1600021016170471AB143680B4355
:10185000436002E043688B43436070477FB50546B1
:101860000C463448854208D03348854205D0334879
:10187000854202D03248854200D103E03A2131A0AE
:1018800000F0DEF8206820B13D492068884200D28F
:1018900003E03B212BA000F0D3F8606840B1606802
:1018A000012805D06068022802D06068032800D1B2
:1018B00003E03C2123A000F0C3F8A06848B1A06871
:1018C000042801D1606820B1A068042802D16068B2
:1018D00000B103E03D211BA000F0B2F8E06828B1A0
:1018E000E068182802D0E068082800D103E03E2113
:1018F00014A000F0A5F86846FFF704FEE86840F081
:101900008000E86003980009216800EB5100B0FBFB
:10191000F1F6F0B22860C6F307206860E86820F0AE
:101920008000E860D4E901010843E1680843E86009
:101930007FBD000000600140007001400040044095
:10194000005004402E2E5C2E2E5C2E2E5C2E2E5C23
:101950002E2E5C4C69627261726965735C4D4853EE
:101960004350555F4472697665725C7372635C6D57
:1019700068736370755F756172742E630000000098
:1019800021AA44000146C86F10F0100F01D00120B9
:1019900070470020FCE70146C86F10F0080F01D027
:1019A000012070470020FCE70146486910F0400F15
:1019B00001D0012070470020FCE70146C86F10F0FD
:1019C000020F01D0012070470020FCE701460868A3
:1019D000C0B27047016070474FF416510160032197
:1019E000416000218160C160704700BFFEE70000D8
:1019F000014A024900F013B8451A00010C0000200A
:101A000002E008C8121F08C1002AFAD170477047C7
:101A1000002001E001C1121F002AFBD170472DE90F
:101A2000F04116460F460446002503E03946B0470C
:101A30006D1C641C20780028F8D12846BDE8F08190
:101A400000BFFEE770B504460D460A2C02D10D20FA
:101A5000FFF7BEFC2046FFF7BBFC70BD86B014212B
:101A600001A8FFF794FB0024002501211648FFF789
:101A7000C1FC01210846FFF701FDFFF761FE13A03D
:101A8000FFF7B6FF1EE01948FFF77CFFD0B1002436
:101A900005E01648FFF79AFF01A90855641C134892
:101AA000FFF779FF0028F4D1002505E001A8415D8A
:101AB0000E48FFF78FFF6D1C0C48FFF77EFF08B143
:101AC000A542F3D9DFE70000010010004D65676112
:101AD00048756E742053435055205541525420444C
:101AE000656D6F2056312E302E0A000000600140D7
:101AF00000D0014010D0014020D0014030D0014042
:101B000040D0014050D00140281B000100000020BF
:101B100010000000001A0001381B00011000002016
:101B200010800000101A00010000000000000000FA
:081B30000000000000000000AD
:0400000501001111D4
:00000001FF
