:020000040100F9
:10100000000001200111000105140001131400016A
:10101000211400012F1400013D1400010000000004
:101020000000000000000000000000004B14000160
:10103000591400010000000067140001751400013C
:10104000B111000183140001911400019F140001EB
:10105000AD1400017912000191130001BB140001CD
:10106000C9140001D7140001E5140001F3140001B4
:10107000011500010F1500011D1200010000000004
:101080000000000000000000000000000000000060
:101090000000000000000000000000000000000050
:1010A0000000000000000000000000000000000040
:1010B0000000000000000000000000000000000030
:1010C0000000000000000000000000000000000020
:1010D0000000000000000000000000000000000010
:1010E0000000000000000000000000000000000000
:1010F00000000000000000000000000000000000F0
:1011000080B582B000AF164B7B60164B3B60164B30
:10111000164A9A607A683B689A420ED009E07B686A
:101120001A683B681A607B6804337B603B68043351
:101130003B603B680E4A9342F1D30E4B3B6005E0A7
:101140003B6800221A603B6804333B603B680A4AF4
:101150009342F5D300F0B4FA00BF0837BD4680BD16
:10116000B41800010000002000ED00E000100001B4
:1011700000020020000200200C08002080B483B090
:1011800000AF0346FB71FB7903F01F03012202FA53
:1011900003F1064A97F907305B09603342F82310E0
:1011A00000BF0C37BD465DF8047B704700E100E0EE
:1011B00080B582B000AF4421154800F00EFB154BFE
:1011C000D3F8C03203F00103002B15D0AA21104838
:1011D00000F003FB00237B600BE00F4A7B6852F8B2
:1011E0002330DBB219460A4800F0F7FA7B68013376
:1011F0007B607B687F2BF0D9064BD3F83833054AE8
:1012000043F00103C2F8383300BF0837BD4680BD44
:1012100000600140000800400C06002080B500AFCF
:10122000134B1B69124A23F001031361104B1B6916
:1012300003F00103002B03D00D4B11221A6002E0D2
:101240000B4B00221A600A4BAB221A6041F2883025
:1012500000F0DCF9074BD3F80C38064B4FF6FF7261
:10126000C3F80C280E20FFF789FF00BF80BD00BF28
:101270000060014000D0014080B584B000AF424B17
:101280009B6803F00F030C2B76D801A252F823F0D1
:10129000FF12000179130001EB1200017913000124
:1012A000C5120001791300011B130001371300015F
:1012B00079130001791300017913000179130001FA
:1012C00053130001304B46221A6007E02E4B1B6877
:1012D000FB73FB7B19462D4800F0BEF92A4800F04D
:1012E00069FA0346002BF1D14AE0274B47221A60E6
:1012F000254B5B68244A23F00203536040E04821F9
:10130000214800F06AFA204B9B693B603B68DBB2E6
:1013100019461D4800F061FA32E049211A4800F0F0
:101320005CFA194B5B697B607B68DBB21946164837
:1013300000F053FA24E05021134800F04EFA124B0B
:10134000DB6FBB60BB68DBB219460F4800F045FAA3
:1013500016E00D4B51221A6007E00B4B1B68FB7324
:10136000FB7B1946094800F077F9074800F022FA9C
:101370000346002BF1D103E0034B52221A6000BF59
:1013800000BF1037BD4680BD006001400002002054
:1013900080B582B000AF194B9B6803F00F03042B9C
:1013A00002D00C2B11D021E0154B37221A6005E03A
:1013B000124B1B68FB71124AFB7913600F4800F057
:1013C000F9F90346002BF3D114E00D4B38221A60D3
:1013D00005E00A4B1B68FB71094AFB79136007485B
:1013E00000F0E8F90346002BF3D103E0044B992207
:1013F0001A6000BF00BF0837BD4680BD00700140C5
:101400000060014080B400AF00BFBD465DF8047BC2
:10141000704780B400AF00BFBD465DF8047B7047E5
:1014200080B400AF00BFBD465DF8047B704780B458
:1014300000AF00BFBD465DF8047B704780B400AFCD
:1014400000BFBD465DF8047B704780B400AF00BFAD
:10145000BD465DF8047B704780B400AF00BFBD4659
:101460005DF8047B704780B400AF00BFBD465DF8F7
:10147000047B704780B400AF00BFBD465DF8047BBD
:10148000704780B400AF00BFBD465DF8047B704775
:1014900080B400AF00BFBD465DF8047B704780B4E8
:1014A00000AF00BFBD465DF8047B704780B400AF5D
:1014B00000BFBD465DF8047B704780B400AF00BF3D
:1014C000BD465DF8047B704780B400AF00BFBD46E9
:1014D0005DF8047B704780B400AF00BFBD465DF887
:1014E000047B704780B400AF00BFBD465DF8047B4D
:1014F000704780B400AF00BFBD465DF8047B704705
:1015000080B400AF00BFBD465DF8047B704780B477
:1015100000AF00BFBD465DF8047B704780B500AFEB
:101520002B4B4FF48072C3F8A023294BD3F8A03380
:1015300003F00103002B03D03221264800F04DF9BF
:10154000234B0122C3F83823214B0122C3F8402347
:101550001F4B0122C3F848231D4B0122C3F850231F
:101560001B4B0122C3F85823194B1B4A1A60184B16
:101570001A4A9A60164BDB69154A23F47F6323F0FD
:101580000F03D361124BDB69114A43F08003D3612F
:101590000F4B9B690E4B00229A610D4B9B690C4AC5
:1015A00043F0250393610A4B1B6C094B00221A641C
:1015B000074B1B6C064A43F440231364044B01227F
:1015C000C3F898233321034800F007F900BF80BD1A
:1015D0000008004000600140000000200C060020D0
:1015E00080B500AF074BD3F8A033064A43F48073AD
:1015F00043F00103C2F8A0335521034800F0EDF891
:1016000000BF80BD000800400060014080B483B08E
:1016100000AF78600E4B06229A600E4B1B6B7A6807
:1016200002FB03F30A4A64331360094B9B68084AC0
:1016300043F00103936000BF054B5B68642BFBD84C
:1016400000BF00BF0C37BD465DF8047B704700BF8C
:101650000030014000F0014080B483B000AF7860FA
:101660000B46FB707B68D3F800347A68F978D15464
:101670007B68D3F800340133C3F309027B68C3F8F5
:1016800000247B68D3F808345A1C7B68C3F808240C
:101690007B68D3F800247B68D3F804349A4208D1DD
:1016A0007B68D3F804340133C3F309027B68C3F8C1
:1016B000042400BF0C37BD465DF8047B7047000072
:1016C00080B582B000AF00F03BF8184B184A1A60A2
:1016D000184800F099F8FFF721FF4421154800F061
:1016E0007CF8FFF77DFF00BF134BD3F8C03203F047
:1016F0000103002BF8D066210E4800F06EF800239D
:101700007B600BE00D4A7B6852F82330DBB2194650
:10171000084800F062F87B6801337B607B687F2BB0
:10172000F0D97721034800F058F8FEE780D1014056
:101730005055555500600140000800400C0600203F
:1017400080B400AF184B5A681749184B13434B60CD
:10175000154BDB68144A43F4601343F00303D36072
:10176000114B1A681049124B13430B600E4B9B68C8
:101770000D4A43F0005393600B4B5B690A4A23F018
:1017800000535361084B1B69074A43F00053136130
:10179000054B5B69044A43F00053536100BFBD46EB
:1017A0005DF8047B704700BF00F001400300310486
:1017B0005A390F2080B483B000AF78607B68DB6F4C
:1017C00003F00803002B01D0012300E0002318469A
:1017D0000C37BD465DF8047B704780B483B000AF22
:1017E00078600B46FB7000BF7B68DB6F03F0010382
:1017F000002BF9D1FA787B681A6000BF0C37BD4620
:101800005DF8047B7047000080B586B000AF78605B
:101810004FF4E1337B61244B1B6B4FF47A7202FB74
:1018200003F33B617B68DB6843F080027B68DA602E
:101830003B691A097B695B081A447B69B2FBF3F3C5
:10184000FB60FB68DAB27B681A60FB681B0ADAB2DD
:101850007B685A607B68DB6823F080027B68DA6013
:101860007B680322DA607B681B6923F020027B68B7
:101870001A6111210D48FFF7B0FF7B680C4A9342B3
:1018800009D10B4B1B690A4A43F020031361212144
:101890000648FFF7A2FF22210448FFF79EFF00BF82
:1018A0001837BD4680BD00BF00F001400060014018
:0418B0000070014083
:1018B400000000000100000002000000030000001E
:1018C40004000000050000000600000007000000FE
:1018D40008000000090000000A0000000B000000DE
:1018E40000000000000000000000000000000000F4
:1018F40000000000000000000000000000000000E4
:1019040000000000000000000000000000000000D3
:1019140000000000000000000000000000000000C3
:1019240000000000000000000000000000000000B3
:1019340000000000000000000000000000000000A3
:101944000000000000000000000000000000000093
:101954000000000000000000000000000000000083
:101964000000000000000000000000000000000073
:101974000000000000000000000000000000000063
:101984000000000000000000000000000000000053
:101994000000000000000000000000000000000043
:1019A4000000000000000000000000000000000033
:1019B4000000000000000000000000000000000023
:1019C4000000000000000000000000000000000013
:1019D4000000000000000000000000000000000003
:1019E40000000000000000000000000000000000F3
:1019F40000000000000000000000000000000000E3
:101A040000000000000000000000000000000000D2
:101A140000000000000000000000000000000000C2
:101A240000000000000000000000000000000000B2
:101A340000000000000000000000000000000000A2
:101A44000000000000000000000000000000000092
:101A54000000000000000000000000000000000082
:101A64000000000000000000000000000000000072
:101A74000000000000000000000000000000000062
:101A84000000000000000000000000000000000052
:101A94000000000000000000000000000000000042
:101AA4000000000000000000000000000000000032
:0400000501001000E6
:00000001FF
