:020000040100F9
:1010000000000120011100016915000177150001A0
:101010008515000193150001A115000100000000D5
:10102000000000000000000000000000AF150001FB
:10103000BD15000100000000CB150001D91500010D
:1010400049130001E7150001F51500010316000121
:101050001116000101140001F51400011F16000112
:101060002D1600013B16000149160001571600011C
:101070006516000173160001A513000100000000B1
:101080000000000000000000000000000000000060
:101090000000000000000000000000000000000050
:1010A0000000000000000000000000000000000040
:1010B0000000000000000000000000000000000030
:1010C0000000000000000000000000000000000020
:1010D0000000000000000000000000000000000010
:1010E0000000000000000000000000000000000000
:1010F00000000000000000000000000000000000F0
:1011000080B582B000AF164B7B60164B3B60164B30
:10111000164A9A607A683B689A420ED009E07B686A
:101120001A683B681A607B6804337B603B68043351
:101130003B603B680E4A9342F1D30E4B3B6005E0A7
:101140003B6800221A603B6804333B603B680A4AF4
:101150009342F5D300F004FC00BF0837BD4680BDC4
:10116000BC1B00010000002000ED00E000100001A9
:1011700000000020000000206020002080B483B028
:1011800000AF0346FB71FB7903F01F03012202FA53
:1011900003F1064A97F907305B09603342F82310E0
:1011A00000BF0C37BD465DF8047B704700E100E0EE
:1011B00080B400AF044BDB681B0A03F0070318463A
:1011C000BD465DF8047B704700ED00E080B489B057
:1011D00000AFF860B9607A60FB6803F00703FB6159
:1011E000FB69C3F10703032B28BF0323BB61FB6922
:1011F0000333062B02D9FB69043B00E000237B612B
:101200000122BB6902FA03F3013B1A46BB681A408C
:101210007B699A4001217B6901FA03F3013B19467E
:101220007B680B40134318462437BD465DF8047BAA
:101230007047000080B483B000AF03463960FB7193
:1012400097F90730002B0BDA3B68DAB20C49FB79CF
:1012500003F00F03043B5201D2B20B441A7609E0AB
:101260003B68DAB2074997F907305201D2B20B4412
:1012700083F8002300BF0C37BD465DF8047B704740
:1012800000ED00E000E100E080B483B000AF034671
:10129000FB71FB7903F01F03012202FA03F1064AF6
:1012A00097F907305B0942F8231000BF0C37BD46A1
:1012B0005DF8047B704700BF00E100E080B485B0BA
:1012C00000AF78607B6803F00703FB600C4BDB68C2
:1012D000BB60BA684FF6FF031340BB60FB681A029D
:1012E000BB68134343F0BF6343F40033BB60044A5D
:1012F000BB68D36000BF1437BD465DF8047B704700
:1013000000ED00E080B586B000AF0346B9607A60BA
:10131000FB730620FFF7D2FFFFF74AFF78617A6878
:10132000B9687869FFF752FF386197F90F3039696A
:101330001846FFF77FFF97F90F301846FFF7A4FF15
:1013400000BF1837BD4680BD80B500AF7721134878
:1013500000F0C1FB124BD3F8F03203F00103002B75
:1013600007D088210D4800F0B6FB0D4B0122C3F8D1
:1013700040230B4BD3F8083303F00103002B07D0B5
:101380009921064800F0A7FB054B0122C3F858231A
:101390000020FFF7F3FE00BF80BD00BF00600140EA
:1013A0000008004080B500AF134B1B69124A23F0C0
:1013B00001031361104B1B6903F00103002B03D0E1
:1013C0000D4B11221A6002E00B4B00221A600A4BEF
:1013D000AB221A6041F2883000F09CFA074BD3F838
:1013E0000C38064B4FF6FF72C3F80C280E20FFF79F
:1013F000C5FE00BF80BD00BF0060014000D00140BD
:1014000080B584B000AF3A4B9B6803F00F030C2B00
:1014100066D801A252F823F077140001E11400010C
:1014200063140001E11400014D140001E1140001F6
:1014300093140001AF140001E1140001E114000154
:10144000E1140001E1140001CB140001284B4622F5
:101450001A6000BF264800F02BFB0346002BF9D191
:1014600042E0234B47221A60214B5B68204A23F05D
:101470000203536038E048211D4800F02CFB1C4B50
:101480009B697B607B68DBB21946194800F023FB3F
:101490002AE04921164800F01EFB154B5B69BB6032
:1014A000BB68DBB21946124800F015FB1CE0502166
:1014B0000F4800F010FB0E4BDB6FFB60FB68DBB2EC
:1014C00019460B4800F007FB0EE0094B51221A6049
:1014D00000BF074800F0ECFA0346002BF9D103E007
:1014E000034B52221A6000BF00BF1037BD4680BDBB
:1014F0000060014080B582B000AF194B9B6803F0DB
:101500000F03042B02D00C2B11D021E0154B3722F6
:101510001A6005E0124B1B68FB71124AFB791360DD
:101520000F4800F0C5FA0346002BF3D114E00D4B31
:1015300038221A6005E00A4B1B68FB71094AFB79E7
:101540001360074800F0B4FA0346002BF3D103E020
:10155000044B99221A6000BF00BF0837BD4680BD0A
:10156000007001400060014080B400AF00BFBD4684
:101570005DF8047B704780B400AF00BFBD465DF8E6
:10158000047B704780B400AF00BFBD465DF8047BAC
:10159000704780B400AF00BFBD465DF8047B704764
:1015A00080B400AF00BFBD465DF8047B704780B4D7
:1015B00000AF00BFBD465DF8047B704780B400AF4C
:1015C00000BFBD465DF8047B704780B400AF00BF2C
:1015D000BD465DF8047B704780B400AF00BFBD46D8
:1015E0005DF8047B704780B400AF00BFBD465DF876
:1015F000047B704780B400AF00BFBD465DF8047B3C
:10160000704780B400AF00BFBD465DF8047B7047F3
:1016100080B400AF00BFBD465DF8047B704780B466
:1016200000AF00BFBD465DF8047B704780B400AFDB
:1016300000BFBD465DF8047B704780B400AF00BFBB
:10164000BD465DF8047B704780B400AF00BFBD4667
:101650005DF8047B704780B400AF00BFBD465DF805
:10166000047B704780B400AF00BFBD465DF8047BCB
:10167000704780B400AF00BFBD465DF8047B704783
:1016800080B500AF594B9B68584A43F000539360B4
:10169000564B5B69554A23F000535361534B1B690A
:1016A000524A43F000531361504B5B694F4A43F079
:1016B000005353614E4B4FF48072C3F8A0234C4B40
:1016C000D3F8A03303F00103002B03D032214948A3
:1016D00000F001FA464B0122C3F83823444B0122A3
:1016E000C3F84023424B0122C3F84823404B012258
:1016F000C3F850233E4B0122C3F858233C4B3E4ACB
:101700001A603B4B3D4A9A60394BDB69384A23F4F7
:101710007F6323F00F03D361354BDB69344A43F415
:101720008073D361324B9B69314B00229A61304BFD
:101730009B692F4A43F0250393612D4B1B6C2C4B67
:1017400000221A642A4B1B6C294A43F44023136479
:10175000274B1B69264A03F003031361244B1A69C4
:10176000274B23F00303224913430B61204B1B6CCF
:101770001F4A23F0804313641D4B1B6C1C4A23F04B
:10178000004313641A4B9B69194A43F080539361D9
:10179000174B9B69164A43F000639361144BDB6956
:1017A000134A43F48053D361114B0122C3F89823A9
:1017B0003321104800F08FF90D4B0122C3F840236C
:1017C0000B4B0122C3F85823094B9B69084A43F08D
:1017D00001039361064B40F20112C3F81823044B36
:1017E00040F20112C3F8302300BF80BD00F0014079
:1017F00000080040006001406000002060100020F0
:101800000000002080B500AF074BD3F8A033064A94
:1018100043F4807343F00103C2F8A0335521034819
:1018200000F059F900BF80BD000800400060014091
:1018300080B485B000AFF860B9607A603B607A68C8
:10184000FB681A603A68FB685A600F4B1B6903F02B
:101850000302FB689A60FB689A68BB6823F0030385
:101860001A43FB689A60084B9A69FB68DA603A8B06
:10187000FB681A61FB6800225A6100BF1437BD463D
:101880005DF8047B704700BF0008004080B582B05F
:1018900002AF4FF480730093114B124A1249134860
:1018A000FFF7C6FF4FF480730093114B114A1249A2
:1018B0000D48FFF7BDFF4FF4807300930F4B104AA4
:1018C00010490D48FFF7B4FF4FF4807300930E4B9F
:1018D0000E4A0F490B48FFF7ABFF00BFBD4680BD66
:1018E0006010002060000020180000200000002090
:1018F00060140020600400203000002060180020E8
:101900006008002048000020601C0020600C0020BF
:101910006000002080B483B000AF78600E4B0622D8
:101920009A600E4B1B6B7A6802FB03F30A4A64331E
:101930001360094B9B68084A43F00103936000BFA2
:10194000054B5B68642BFBD800BF00BF0C37BD465E
:101950005DF8047B704700BF0030014000F001409B
:1019600080B582B000AF00F081F8364800F0CAF8C8
:10197000FFF786FEFFF78AFF012201210020FFF713
:10198000C1FC44212F4800F0A6F800237B6016E03C
:101990002D4A7B68002142F823102C4A7B680121E4
:1019A00042F823102A4A7B68022142F82310294A70
:1019B0007B68032142F823107B6801337B607B68DE
:1019C000FF2BE5D9FFF71EFF66211E4800F083F8C4
:1019D00000BF214B1B6C03F48053002BF9D0002374
:1019E0007B6026E01D4A7B6852F82330DBB2194643
:1019F000144800F070F81A4A7B6852F82330DBB2C2
:101A00001946104800F067F8164A7B6852F82330F0
:101A1000DBB219460B4800F05EF8134A7B6852F8B7
:101A20002330DBB21946074800F055F87B680133D4
:101A30007B607B68FF2BD5D97721024800F04BF8FB
:101A4000FEE700BF0060014060000020600400204D
:101A500060080020600C00200000002060100020C2
:101A60006014002060180020601C002080B400AFCB
:101A70000C4B5A680B490C4B13434B60094BDB680A
:101A8000084A43F4601343F00303D360054B1A681C
:101A90000449064B13430B6000BFBD465DF8047B51
:101AA000704700BF00F00140030031045A390F2095
:101AB00080B483B000AF78607B68DB6F03F008030D
:101AC000002B01D0012300E0002318460C37BD464F
:101AD0005DF8047B704780B483B000AF78600B463C
:101AE000FB7000BF7B68DB6F03F00103002BF9D1B3
:101AF000FA787B681A6000BF0C37BD465DF8047B3E
:101B00007047000080B586B000AF78604FF4E133D5
:101B10007B61254B254A1A60254B1B6B4FF47A726B
:101B200002FB03F33B617B68DB6843F080027B6868
:101B3000DA603B691A097B695B081A447B69B2FB6E
:101B4000F3F3FB60FB68DAB27B681A60FB681B0A80
:101B5000DAB27B685A607B68DB6823F080027B68BE
:101B6000DA607B680322DA607B681B6923F020025D
:101B70007B681A6111210F48FFF7ADFF7B680E4AA1
:101B8000934209D10C4B1B690B4A43F020031361AC
:101B900021210848FFF79FFF22210648FFF79BFFFE
:101BA00000BF1837BD4680BD80D101405055555506
:0C1BB00000F001400060014000700140A6
:0400000501001000E6
:00000001FF
