:020000040100F9
:101000000000012001110001A5130001B31300012C
:10101000C1130001CF130001DD1300010000000027
:10102000000000000000000000000000EB130001C1
:10103000F91300010000000007140001151400015D
:1010400023140001311400013F1400014D1400016C
:101050005B1400016915000181160001691400018B
:10106000771400018514000193140001A1140001FC
:10107000AF140001BD140001B11100010000000017
:101080000000000000000000000000000000000060
:101090000000000000000000000000000000000050
:1010A0000000000000000000000000000000000040
:1010B0000000000000000000000000000000000030
:1010C0000000000000000000000000000000000020
:1010D0000000000000000000000000000000000010
:1010E0000000000000000000000000000000000000
:1010F00000000000000000000000000000000000F0
:1011000080B582B000AF164B7B60164B3B60164B30
:10111000164A9A607A683B689A420ED009E07B686A
:101120001A683B681A607B6804337B603B68043351
:101130003B603B680E4A9342F1D30E4B3B6005E0A7
:101140003B6800221A603B6804333B603B680A4AF4
:101150009342F5D300F0CAF900BF0837BD4680BD01
:10116000A81900010000002000ED00E000100001BF
:1011700000000020000000200C04002080B483B098
:1011800000AF0346FB71FB7903F01F03012202FA53
:1011900003F1064A97F907305B09603342F82310E0
:1011A00000BF0C37BD465DF8047B704700E100E0EE
:1011B00080B500AF134B1B69124A23F00103136182
:1011C000104B1B6903F00103002B03D00D4B1122C0
:1011D0001A6002E00B4B00221A600A4BAB221A6025
:1011E00041F2883000F0A8FA074BD3F80C38064BD0
:1011F0004FF6FF72C3F80C280E20FFF7BFFF00BFA9
:1012000080BD00BF0060014000D0014080B400AF4D
:10121000044BDB681B0A03F007031846BD465DF864
:10122000047B704700ED00E080B489B000AFF86047
:10123000B9607A60FB6803F00703FB61FB69C3F1E7
:101240000703032B28BF0323BB61FB690333062B72
:1012500002D9FB69043B00E000237B610122BB69EA
:1012600002FA03F3013B1A46BB681A407B699A40B5
:1012700001217B6901FA03F3013B19467B680B40AE
:10128000134318462437BD465DF8047B70470000C1
:1012900080B483B000AF03463960FB7197F9073023
:1012A000002B0BDA3B68DAB20C49FB7903F00F0331
:1012B000043B5201D2B20B441A7609E03B68DAB221
:1012C000074997F907305201D2B20B4483F8002343
:1012D00000BF0C37BD465DF8047B704700ED00E0B1
:1012E00000E100E080B483B000AF0346FB71FB79FE
:1012F00003F01F03012202FA03F1064A97F90730AF
:101300005B0942F8231000BF0C37BD465DF8047B33
:10131000704700BF00E100E080B485B000AF7860A6
:101320007B6803F00703FB600C4BDB68BB60BA68AB
:101330004FF6FF031340BB60FB681A02BB68134300
:1013400043F0BF6343F40033BB60044ABB68D3601F
:1013500000BF1437BD465DF8047B704700ED00E028
:1013600080B586B000AF0346B9607A60FB73062093
:10137000FFF7D2FFFFF74AFF78617A68B9687869AA
:10138000FFF752FF386197F90F3039691846FFF7B8
:101390007FFF97F90F301846FFF7A4FF00BF1837FB
:1013A000BD4680BD80B400AF00BFBD465DF8047B84
:1013B000704780B400AF00BFBD465DF8047B704746
:1013C00080B400AF00BFBD465DF8047B704780B4B9
:1013D00000AF00BFBD465DF8047B704780B400AF2E
:1013E00000BFBD465DF8047B704780B400AF00BF0E
:1013F000BD465DF8047B704780B400AF00BFBD46BA
:101400005DF8047B704780B400AF00BFBD465DF857
:10141000047B704780B400AF00BFBD465DF8047B1D
:10142000704780B400AF00BFBD465DF8047B7047D5
:1014300080B400AF00BFBD465DF8047B704780B448
:1014400000AF00BFBD465DF8047B704780B400AFBD
:1014500000BFBD465DF8047B704780B400AF00BF9D
:10146000BD465DF8047B704780B400AF00BFBD4649
:101470005DF8047B704780B400AF00BFBD465DF8E7
:10148000047B704780B400AF00BFBD465DF8047BAD
:10149000704780B400AF00BFBD465DF8047B704765
:1014A00080B400AF00BFBD465DF8047B704780B4D8
:1014B00000AF00BFBD465DF8047B704780B400AF4D
:1014C00000BFBD465DF8047B704780B483B000AFB9
:1014D00078607B681B6943F002027B681A6100BF79
:1014E0000C37BD465DF8047B7047000080B582B0C4
:1014F00000AF00F0FFF8012200210520FFF730FFC8
:10150000012201210620FFF72BFF104B104A1A6021
:10151000104B114A1A60114800F0B4F9104800F05D
:10152000B1F90F48FFF7D1FF0E4BD3F80834002B69
:10153000FAD00A4B31221A600A4800F056F90346E5
:10154000FB71074AFB791360EEE700BF80D10140D1
:101550005055555584D10140555555FF0060014007
:10156000007001400000002080B584B000AF424B05
:101570009B6803F00F030C2B76D801A252F823F0DE
:10158000EF15000169160001DB1500016916000165
:10159000B5150001691600010B16000127160001A0
:1015A000691600016916000169160001691600013B
:1015B00043160001304B46221A6007E02E4B1B6891
:1015C000FB73FB7B19462D4800F0DCF82A4800F03D
:1015D00037F90346002BF1D14AE0274B47221A6026
:1015E000254B5B68244A23F00203536040E0482106
:1015F000214800F038F9204B9B693B603B68DBB227
:1016000019461D4800F02FF932E049211A4800F030
:101610002AF9194B5B697B607B68DBB21946164877
:1016200000F021F924E05021134800F01CF9124B7E
:10163000DB6FBB60BB68DBB219460F4800F013F9E3
:1016400016E00D4B51221A6007E00B4B1B68FB7331
:10165000FB7B1946094800F095F8074800F0F0F8C0
:101660000346002BF1D103E0034B52221A6000BF66
:1016700000BF1037BD4680BD006001400000002063
:1016800080B582B000AF194B9B6803F00F03042BA9
:1016900002D00C2B11D021E0154B37221A6005E047
:1016A000124B1B68FB71124AFB7913600F4800F064
:1016B000C7F80346002BF3D114E00D4B38221A6013
:1016C00005E00A4B1B68FB71094AFB791360074868
:1016D00000F0B6F80346002BF3D103E0044B992247
:1016E0001A6000BF00BF0837BD4680BD00700140D2
:1016F0000060014080B400AF0C4B5A680B490C4BA2
:1017000013434B60094BDB68084A43F4601343F012
:101710000303D360054B1A680449064B13430B605F
:1017200000BFBD465DF8047B704700BF00F001407C
:10173000030031045A390F2080B483B000AF7860C1
:101740000E4B06229A600E4B1B6B7A6802FB03F36A
:101750000A4A64331360094B9B68084A43F001034B
:10176000936000BF054B5B68642BFBD800BF00BFD4
:101770000C37BD465DF8047B704700BF0030014068
:1017800000F0014080B483B000AF78600B46FB707E
:101790007B68D3F800347A68F978D1547B68D3F841
:1017A00000340133C3F309027B68C3F800247B686B
:1017B000D3F808345A1C7B68C3F808247B68D3F834
:1017C00000247B68D3F804349A4208D17B68D3F8AC
:1017D00004340133C3F309027B68C3F8042400BF57
:1017E0000C37BD465DF8047B704780B485B000AF10
:1017F0007860FF23FB737B68D3F804247B68D3F8FD
:1018000000349A4215D07B68D3F804347A68D35CEC
:10181000FB737B68D3F808345A1E7B68C3F808242E
:101820007B68D3F804340133C3F309027B68C3F83F
:101830000424FB7B18461437BD465DF8047B7047D3
:1018400080B483B000AF78607B68DB6F03F008037F
:10185000002B01D0012300E0002318460C37BD46C1
:101860005DF8047B704780B483B000AF78600B46AE
:10187000FB70FA787B681A6000BF0C37BD465DF8D4
:10188000047B704780B586B000AF78604FF4E133D9
:101890007B617B68DB6823F080027B68DA607B68B1
:1018A0005B6823F080027B685A607B68D3F89830CD
:1018B00023F001027B68C3F898207B68D3F894304A
:1018C00023F001027B68C3F894207B680122C3F8EF
:1018D0009C207B680222C3F8A0207B68D3F8983054
:1018E00043F001027B68C3F898202C4B1B6B4FF42C
:1018F0007A7202FB03F33B617B68DB6843F0800292
:101900007B68DA603B691A097B695B081A447B696A
:10191000B2FBF3F3FB60FB68DAB27B681A60FB682A
:101920001B0ADAB27B685A607B68DB6823F08002AE
:101930007B68DA607B680322DA607B68D3F89830D2
:1019400043F001027B68C3F898207B681B6923F091
:1019500020027B681A6111211148FFF784FF7B6820
:10196000104A934209D10F4B1B690E4A43F02003E2
:10197000136121210A48FFF776FF7B68DB6823F0BB
:1019800080027B68DA607B685B6843F001027B68F9
:101990005A6000BF1837BD4680BD00BF00F001404F
:0819A0000060014000700140ED
:0400000501001000E6
:00000001FF
