:020000040100F9
:1010000078A000203114000195130001971300010E
:101010009B1300019F130001A313000100000000B7
:10102000000000000000000000000000A713000105
:10103000A913000100000000AB130001AD13000173
:10104000AF13000157140001571400015714000199
:1010500057140001571400015714000157140001E0
:1010600057140001571400015714000157140001D0
:1010700057140001571400015714000157140001C0
:1010800057140001571400015714000157140001B0
:1010900057140001571400015714000157140001A0
:1010A0005714000157140001571400015714000190
:1010B00000000000571400010000000000000000C4
:1010C00057140001571400010000000057140001DC
:1010D0005714000157140001571400015714000160
:1010E0005714000100000000571400010000000028
:1010F0000000000000000000571400015714000118
:10110000000000005714000157140001571400019B
:10111000DFF80CD002F002FA004800473B12000151
:1011200078A0002072B600BF00BF00BF00BF30BF74
:1011300000BF00BF00BF00BF62B670477CB500248F
:1011400017E04FF48071734800EB8420724D05EB7B
:101150008423CDE90001601C00EB40006F4D05EBDE
:10116000C00204EB440005EBC0016D4802F054F9E5
:10117000641C032CE5D37CBD1FB504200246694BDB
:1011800019684FF6FF031940674B0B4343EA0221EE
:10119000644B196000BF0020009001900290012074
:1011A0008DF80C00684600F073F91FBD00B58DB0D6
:1011B00000200390009058480190002004900220E5
:1011C00006900020089053480290002005900220CD
:1011D0000790002009904FF480700B9000200A9037
:1011E00009234E4A69464E4801F0E4FE01214C486D
:1011F00001F057FE01221146494801F002FE042188
:10120000474801F04EFE01220421454801F0F9FD56
:101210000DB000BD1FB501220321444800F07EFC43
:101220004FF4E130009003200190002002900390E1
:1012300069463F4800F047FA1FBD00240025012100
:10124000480701F0ABF80121480701F0E9F8012156
:10125000384801F0C4F80121084601F00FF9FFF702
:10126000D9FF35A002F08CF9FFF7A0FFFFF766FF6A
:10127000FFF782FF00BF03E0274840F82440641CCA
:10128000B4F5806FF8D34FF48051224802F009F989
:101290000121234801F057FC00BF2048B0F840006E
:1012A00010F4805FF9D0002414E0214631A002F050
:1012B00067F9002508E0174800EB842050F8251056
:1012C00031A002F05DF96D1CFF2DF4D930A002F0C1
:1012D00057F9641C042CE8D300BFFEE710B50446A0
:1012E00000BF134800F02BFB0028FAD0E1B21048F1
:1012F00000F066FA204610BD70B504460D460A2C73
:1013000002D10D20FFF7EAFF2046FFF7E7FF70BD8F
:1013100000BFFEE708100020080000200820002081
:10132000000800400CED00E00000FA0500D001408C
:1013300000600140010010004D65676148756E74E2
:10134000205343505520444D41206D756C746962A3
:101350006C6F636B206D656D65727920746F206DA5
:10136000656D6572792044656D6F2056312E302E83
:101370000D0A00006473745F4275665B25645D202E
:10138000646174613A0A000025303858202000005A
:101390000A000000704700BFFEE700BFFEE700BF85
:1013A000FEE700BFFEE7704770477047704710B513
:1013B0000121104801F0A0FD30B101210D4801F0DC
:1013C00070FD0DA002F0DCF804210A4801F094FD44
:1013D00030B10421074801F064FD10A002F0D0F8FC
:1013E000002001218140114A430942F8231000BF27
:1013F00010BD000000080040444D4120626C6F6346
:101400006B207472616E7366657220636F6D706CB1
:1014100065746520696E2E0A00000000444D415F2E
:1014200049545F4572726F720D0A000080E200E05D
:1014300009480A4908600068854609488047094804
:1014400000470000FEE7FEE7FEE7FEE7FEE7FEE7F7
:10145000FEE7FEE7FEE7FEE70010000108ED00E012
:10146000553400011111000110B50446072C05D0B8
:10147000062C03D0052C01D0042C00D103E01D2143
:1014800064A0FFF745FF704820437049086010BD15
:101490002DE9F0470446207B10B1207B012800D1C4
:1014A00003E02F215BA0FFF733FF6068102800D214
:1014B00003E0302157A0FFF72BFFA068102800D2CF
:1014C00003E0312153A0FFF723FF207B002856D0F3
:1014D00000BF5E480068C0F3022005462846D4E9F4
:1014E00001230146C1F10708B8F1030F02D94FF0FB
:1014F000030801E0C1F10708C44601F10308B8F18F
:10150000070F02D24FF0000801E0A1F1040847469E
:101510004FF0010808FA0CF8A8F1010808EA0208DF
:1015200008FA07F84FF0010909FA07F9A9F10109CA
:1015300009EA030948EA090600BF227851B2304699
:10154000002908DA4207170E404A0C3201F00F0357
:101550001B1FD75403E04207130E3D4A535400BFEC
:10156000217848B200F01F020121914042094FF05A
:10157000E02303EB8202C2F8001100BF0BE02178E8
:1015800048B200F01F0201219140324A430942F85B
:10159000231000BF00BFBDE8F08770B504460D46BC
:1015A000B4F1005F02D0B4F1807F00D103E051219B
:1015B00018A0FFF7ADFE2848854200D203E0522173
:1015C00014A0FFF7A5FE254905EA010020431F49A5
:1015D000091F086070BD10B50446042C01D0601DC1
:1015E00000D103E062210BA0FFF792FE042C08D18A
:1015F0004FF0E020006940F004004FF0E021086166
:1016000007E04FF0E020006920F004004FF0E021F7
:10161000086110BD2E2E5C2E2E5C2E2E5C2E2E5CB4
:101620002E2E5C4C69627261726965735C4D485321
:101630004350555F4472697665725C7372635C6D8A
:101640006973632E630000000000FA050CED00E0F2
:1016500000E400E080E100E0FFFF0F0080FFFF1FDB
:1016600010B50446F848844208D0F848844205D0B2
:10167000F748844202D0F748844200D103E01821A1
:10168000F5A0FFF745FEF048844204D10121084649
:1016900000F0F4FE16E0ED48844204D1012102205E
:1016A00000F0ECFE0EE0EA48844204D1012104205F
:1016B00000F0E4FE06E0E748844203D1012108205F
:1016C00000F0DCFE10BD7FB505460C46DE488542C5
:1016D00008D0DE48854205D0DD48854202D0DD488D
:1016E000854200D103E03A21DBA0FFF711FE20681C
:1016F00020B1E8492068884200D203E03B21D6A00F
:10170000FFF706FE606840B16068012805D0606898
:10171000022802D06068032800D103E03C21CEA05B
:10172000FFF7F6FDA06848B1A068042801D1606801
:1017300020B1A068042802D1606800B103E03D2117
:10174000C5A0FFF7E5FDE06828B1E068182802D0E1
:10175000E068082800D103E03E21BFA0FFF7D8FDD4
:10176000684600F09AFFE86840F08000E86003985F
:101770000009216800EB5100B0FBF1F6F0B22860DF
:10178000C6F307206860E86820F08000E860D4E9CC
:1017900001010843E1680843E8607FBD4FF416513A
:1017A00001600321416000218160C16070471AB16E
:1017B00043680B43436002E043688B4343607047D8
:1017C0000160704701460868C0B2704721B10269E4
:1017D00042F02002026103E0026922F0200202616D
:1017E0007047016941F0010101617047016921F011
:1017F000010101617047016941F002010161704717
:10180000016921F00201016170470A6922B1426851
:1018100042F08002426003E0426822F080024260AF
:10182000D0F8982052F0010205D0D0F8982022F08C
:101830000102C0F898204A6832B9D0F8942022F00A
:101840000102C0F8942008E04A68012A05D1D0F8C6
:10185000942042F00102C0F894208A68C0F89C20CD
:10186000CA68C0F8A0200A7832B1D0F8982042F0B7
:101870000102C0F8982005E0D0F8982022F001027B
:10188000C0F89820704700210170416002218160FA
:101890000321C1600021016170470246002051F020
:1018A000010301D040F0040009B140F00200C2F889
:1018B0008800704731B1D0F8982042F00102C0F89A
:1018C000982005E0D0F8982022F00102C0F8982076
:1018D000704701464869704701468869704701466C
:1018E000886870470146486910F0800F01D00120D8
:1018F00070470020FCE70146486910F0080F01D04E
:10190000012070470020FCE70146486910F0040FF1
:1019100001D0012070470020FCE70146486910F023
:10192000020F01D0012070470020FCE70146486902
:1019300010F0010F01D0012070470020FCE70146A4
:10194000486910F0400F01D0012070470020FCE7EB
:101950000146486910F0200F01D001207047002097
:10196000FCE70146486910F0200F01D001207047C4
:101970000020FCE70146C86F10F0100F01D00120D5
:1019800070470020FCE70146C86F10F0080F01D037
:10199000012070470020FCE70146C86F10F0040FDB
:1019A00001D0012070470020FCE70146C86F10F00D
:1019B000020F01D0012070470020FCE70146C86FEC
:1019C00010F0010F01D0012070470020FCE7D0F893
:1019D000A81041F00101C0F8A810704731B1D0F84B
:1019E000A42042F00102C0F8A42005E0D0F8A42011
:1019F00022F00102C0F8A420704721B1026F42F02A
:101A00000102026703E0026F22F0010202677047E1
:101A10000146486FC0B2704770B504460D460DB11F
:101A2000012D00D104E04FF4F5710BA0FFF770FC1D
:101A300025B1206940F04000206103E0206900F0FA
:101A40004000206170BD0000006001400070014056
:101A500000400440005004402E2E5C2E2E5C2E2EA2
:101A60005C2E2E5C2E2E5C4C69627261726965730D
:101A70005C4D48534350555F4472697665725C73A0
:101A800072635C6D68736370755F756172742E63E9
:101A90000000000021AA4400D0F8901041F001019C
:101AA000C0F890107047000030B587B00446182287
:101AB000FE4901A801F0DCFCFD48844213D0FC483B
:101AC000103084420FD0FA48203084420BD0F848BE
:101AD0003030844207D0F6484030844203D0F44886
:101AE0005030844200D103E01B21F2A0FFF710FC2C
:101AF000002508E001A850F82500A04202D12846A0
:101B000007B030BD6D1C062DF4DB4FF0FF30F7E75A
:101B100010B50121080500F0B1FC10BD2DE9F04120
:101B2000064688461746E248864213D0E048103001
:101B300086420FD0DE48203086420BD0DC48303061
:101B4000864207D0DA484030864203D0D848503029
:101B5000864200D104E040F24F11D6A0FFF7D8FB37
:101B6000002018B9B8F1000F00D004E04FF4A871BC
:101B7000D0A0FFF7CDFB012F05D0022F03D0032FFC
:101B800001D0042F00D104E040F25111C9A0FFF7A9
:101B9000BFFB3046FFF788FF044600253BE00120ED
:101BA000A84010EA080F35D0D14850F824006A0048
:101BB000032191408843CE4941F82400012F06D0EB
:101BC000022F05D0032F0ED0042F22D116E020E0E3
:101BD000C74850F824006A00012191400843C449D5
:101BE00041F8240015E0C24850F824006A000221A0
:101BF00091400143BE4840F824100AE0BC4850F828
:101C000024106A00032090400143B94840F8241092
:101C100000BF00BF6D1C102DC1D3BDE8F08170B5B1
:101C200004460D464FF0FF36A148844213D0A04829
:101C3000103084420FD09E48203084420BD09C4804
:101C40003030844207D09A484030844203D09848CC
:101C50005030844200D103E03E2196A0FFF758FBAC
:101C60002868000C000402D1286800B103E03F217D
:101C700090A0FFF74DFB287901280BD02879022886
:101C800008D02879032805D02879052802D028799A
:101C9000042800D103E0402186A0FFF739FB6A79D0
:101CA000288881B22046FFF739FF6879022800D0E2
:101CB00070BD2046FFF7F8FE06462879062855D263
:101CC000DFE800F054030C152A3FA0682968084398
:101CD000A060E06829688843E06047E0A068296860
:101CE0000843A060E06829680843E0603EE0A0681F
:101CF00029680843A060E06829688843E06020689C
:101D00002968884320607B4830F8160029880843FA
:101D1000784921F8160029E0A06829680843A060E6
:101D2000E06829680843E0602068296888432060EB
:101D3000704830F81600298808436E4921F81600CB
:101D400014E0A06829688843A060E0682968884397
:101D5000E0602068296808432060664830F8160073
:101D600029688843634921F8160000BF00BF00BFFF
:101D70009EE74FF6FF7101600121017141717047CB
:101D800070B505460C464A48854213D04848103085
:101D900085420FD04648203085420BD04448303031
:101DA000854207D042484030854203D040485030F9
:101DB000854200D103E08D213EA0FFF7A9FA012C56
:101DC00025D0022C23D0042C21D0082C1FD0102C7D
:101DD0001DD0202C1BD0402C19D0802C17D0B4F54E
:101DE000807F14D0B4F5007F11D0B4F5806F0ED091
:101DF000B4F5006F0BD0B4F5805F08D0B4F5005F88
:101E000005D0B4F5804F02D0B4F5004F00D103E007
:101E10008E2128A0FFF77CFA286814EA104F01D021
:101E2000012070BD0020FCE7014608684FF6FF72F4
:101E300002EA1040704770B505460C461C488542C2
:101E400013D01B48103085420FD0194820308542EE
:101E50000BD017483030854207D0154840308542B6
:101E600003D013485030854200D103E0AC2111A0CB
:101E7000FFF74EFA012C4CD0022C4AD0042C48D04B
:101E8000082C46D0102C44D0202C42D0402C40D0DE
:101E9000802C3ED0B4F5807F3BD0B4F5007F38D0A5
:101EA000B4F5806F35D0B4F5006F25E0283A000115
:101EB00000D001402E2E5C2E2E5C2E2E5C2E2E5C31
:101EC0002E2E5C4C69627261726965735C4D485379
:101ED0004350555F4472697665725C7372635C6DE2
:101EE00068736370755F6770696F2E630000000030
:101EF00080D10140682000200BD0B4F5805F08D06D
:101F0000B4F5005F05D0B4F5804F02D0B4F5004FB2
:101F100000D104E0AD21AFF26400FFF7F9F92868C1
:101F2000204201D0012070BD0020FCE70146086876
:101F300080B270472DE9F04105460C464FF0FF3660
:101F400000274FF00008F848854213D0F6481030BB
:101F500085420FD0F448203085420BD0F248303013
:101F6000854207D0F0484030854203D0EE485030DB
:101F7000854200D104E0CD21AFF2C800FFF7C8F9D7
:101F8000012C25D0022C23D0042C21D0082C1FD0CA
:101F9000102C1DD0202C1BD0402C19D0802C17D0F9
:101FA000B4F5807F14D0B4F5007F11D0B4F5806F04
:101FB0000ED0B4F5006F0BD0B4F5805F08D0B4F547
:101FC000005F05D0B4F5804F02D0B4F5004F00D1CA
:101FD00004E0CE21AFF22410FFF79AF92846FFF76C
:101FE00063FD0646D14830F8160000EA0407CF48E2
:101FF00030F8160024EA0008CC4830F816002042D9
:1020000003D0A8683843A86001E0C5F80480BDE8A3
:10201000F0812DE9F04105460C464FF0FF360027D0
:102020004FF00008C048854213D0BF4810308542A9
:102030000FD0BD48203085420BD0BB4830308542A0
:1020400007D0B9484030854203D0B7485030854268
:1020500000D104E0EB21AFF2A410FFF759F9012CF5
:1020600025D0022C23D0042C21D0082C1FD0102CDA
:102070001DD0202C1BD0402C19D0802C17D0B4F5AB
:10208000807F14D0B4F5007F11D0B4F5806F0ED0EE
:10209000B4F5006F0BD0B4F5805F08D0B4F5005FE5
:1020A00005D0B4F5804F02D0B4F5004F00D104E064
:1020B000EC21AFF20020FFF72BF92846FFF7F4FCE4
:1020C00006469A4830F8160000EA0407974830F8A8
:1020D000160024EA0008954830F81600204203D084
:1020E000A868B843A86002E04FEA08406860BDE80D
:1020F000F0812DE9F04104460E4600256F1E8A4806
:10210000844213D08848103084420FD08648203053
:1021100084420BD084483030844207D0824840301B
:10212000844203D080485030844200D105E040F220
:102130000711AFF28020FFF7EBF82046FFF7B4FC61
:102140000746002526E0794830F817000121A9400C
:1021500008420FD00120A840304205D0A0680121DC
:10216000A9400843A06014E0A0680121A940884369
:10217000A0600EE00120A840304205D02168012077
:10218000A8400143216004E020680121A940884360
:1021900020606D1C102DD6D3BDE8F08170B50446CB
:1021A0000D4616466048844213D05F481030844282
:1021B0000FD05D48203084420BD05B4830308442E1
:1021C00007D059484030844203D0574850308442A9
:1021D00000D105E04FF49871AFF22830FFF798F87E
:1021E000002008B905B105E040F23111AFF23C30F2
:1021F000FFF78EF81EB1E0682843E06002E0E06877
:10220000A843E06070BD47F6010049490860704787
:1022100070B505460C4616464DB1012D07D0022D6E
:1022200005D0032D03D0042D01D0052D00D105E0EC
:102230004FF4C171AFF28430FFF76AF8200C00044C
:1022400001D104B105E040F28311AFF29830FFF7FD
:102250005FF80EB1012E00D105E04FF4C271AFF26C
:10226000AC30FFF755F876BB062D35D2DFE805F028
:10227000030B131B232C2F48006820EA04002A4973
:10228000C1F8240228E02B48006820EA04402649CF
:10229000C1F8240220E02848006820EA040022490E
:1022A000C1F8280218E02448006820EA04401E49CA
:1022B000C1F8280210E02148006820EA04001A4909
:1022C000C1F82C0208E008E01C48006820EA04403D
:1022D0001549C1F82C0200BF43E0062D40D2DFE8CB
:1022E00005F0030B131B2F371248006840EA040067
:1022F0000D49C1F8240233E00E48006840EA04406A
:102300000949C1F824022BE00B48006840EA0400A8
:102310000549C1F8280223E00748006840EA044064
:102320000149C1F828021BE000D0014068200020CC
:1023300020D2014024D2014028D201402CD20140B9
:102340001348006840EA04001249C1F82C0207E073
:102350000F48006840EA04400E49C1F82C0200BF53
:1023600000BF70BD10B504460CB1012C00D105E0D2
:102370004FF4E571AFF2C440FEF7CAFF06480068AB
:1023800020F0010040EA04000249C1F8200210BD1B
:102390002CD2014000D0014020D2014070B504464B
:1023A0000D46F448044201D104B103E01F21F2A01C
:1023B000FEF7AEFF0DB1012D00D103E02021EEA00C
:1023C000FEF7A6FF2DB1FB4880682043F9498860DD
:1023D00004E0F8488068A043F649886070BD70B595
:1023E00004460D46F448044201D104B103E05021F3
:1023F000E1A0FEF78DFF0DB1012D00D103E05121C9
:10240000DDA0FEF785FF2DB1EA4840682043E94989
:10241000486004E0E7484068A043E649486070BD72
:1024200070B504460D46E548044201D104B103E00D
:102430007121D1A0FEF76CFF0DB1012D00D103E099
:102440007221CDA0FEF764FFDA48406904F07041C4
:102450008843D849486125B108460069204308618E
:1024600004E0D4480069A043D2490861D1484069DA
:1024700004F070410843CF49486170BD70B504460F
:102480000D46CD48044201D104B103E09F21BAA01A
:10249000FEF73EFF0DB1012D00D103E0A021B6A053
:1024A000FEF736FF2DB1C348C0682043C149C8605C
:1024B00004E0C048C068A043BE49C86070BD70B5A4
:1024C0000446022C00DA03E0C521ABA0FEF720FF92
:1024D0006CB9B848006820F0E060B649086000BFF9
:1024E000B44800680028FBD0FEF71CFE13E0012C66
:1024F00011D1B048006820F0E06040F08070AD4934
:102500000860AF48C56845F47040AD49C860FEF743
:1025100009FEAB48C56070BD10B504460CB1012C76
:1025200000D103E0DE2194A0FEF7F2FE14B1012CED
:102530000ED106E09F48006820F480509D49086055
:1025400006E09C48006840F480509A49086000BF4B
:1025500000BF10BD10B50446012C0FD0022C0DD0C9
:10256000032C0BD0042C09D0052C07D0062C05D049
:10257000072C03D0082C01D0092C00D103E0F22154
:102580007DA0FEF7C5FE0A2C57D2DFE804F0564DB9
:10259000443B322920170E058648006820F4F810C5
:1025A00040F480108349086047E08248006820F4C6
:1025B000F81040F470207F4908603EE07D480068D4
:1025C00020F4F81040F460207A49086035E079483A
:1025D000006820F4F81040F45020764908602CE0A0
:1025E0007448006820F4F81040F4402071490860F5
:1025F00023E07048006820F4F81040F430206D4962
:1026000008601AE06B48006820F4F81040F42020BD
:102610006849086011E06748006820F4F81040F449
:1026200010206449086008E06248006820F4F8104F
:1026300040F400205F49086000BF00BF10BD10B526
:1026400004461CB1012C01D0102C00D104E040F252
:10265000231149A0FEF75CFE24B1012C09D0102CF7
:1026600019D10FE05348006820F4407051490860C8
:1026700011E05048006820F4407040F480704D49EB
:10268000086008E04B48006820F4407040F4007097
:102690004849086000BF00BF10BD4649096801F401
:1026A000F811B1F5801F02D1464901604EE0414961
:1026B000096801F4F811B1F5702F02D142490160A7
:1026C00044E03C49096801F4F811B1F5602F02D1EA
:1026D0003E4901603AE03749096801F4F811B1F563
:1026E000502F02D13A49016030E03249096801F4C3
:1026F000F811B1F5402F02D13649016026E02D498D
:10270000096801F4F811B1F5302F02D132490160A6
:102710001CE02849096801F4F811B1F5202F02D115
:102720002E49016012E02349096801F4F811B1F55E
:10273000102F02D12A49016008E01E49096801F4FE
:10274000F811B1F5002F01D1264901601949096836
:1027500011F4407F02D1016841604FE015490968DA
:1027600001F44071B1F5807F3ED1016849084160B4
:1027700044E00000D0FFFFCF2E2E5C2E2E5C2E2ECC
:102780005C2E2E5C2E2E5C4C6962726172696573E0
:102790005C4D48534350555F4472697665725C7373
:1027A00072635C6D68736370755F73797363747261
:1027B0006C2E630000F00140F0984A13D0FFFF0F29
:1027C00000E0014000CB280C00B0710B0095BA0A64
:1027D000007A030A005F4C09004495080029DE07CF
:1027E000000E270700F36F063B49096801F44071AA
:1027F000B1F5007F02D10168890841603649C96A94
:102800004FF47A72514381603349096B5143C1607F
:1028100070471FB504460CB1012C00D105E04FF400
:102820009F71AFF2AC00FEF773FD6846FFF735FF0E
:1028300044B1012C18D12848006840F01000264906
:10284000086011E025490198884206D822480068AE
:1028500020F010002049086005E01F48006840F0A3
:1028600010001D49086000BF00BF1FBD10B5044621
:10287000012C01D0022C00D105E040F25B11AFF237
:102880000810FEF745FD012C02D0022C0FD106E006
:102890001148006820F001000F49086007E00E4869
:1028A000006820F00100401C0B49086000BF00BF19
:1028B00010BD10B5044601210820FFF76FFD10225E
:1028C0000749204600F0D4FD10BD10B50121C8070E
:1028D000FFF7A6FD10BD000000F001408065140662
:1028E00004880040012A0AD14B6803600B698360A9
:1028F0008B6943600B6A03618B6AC3600BE0022A39
:1029000009D18B6803604B698360CB6943604B6A74
:1029100003610023C36070470146FE48081A58222D
:1029200090FBF2F201209040704710B5044620461B
:10293000FFF7F2FFF8490968084201D0012010BDF5
:102940000020FCE720B10121F34A083A116003E0BE
:102950000021F14A083A1160704730B50B4600215A
:10296000022A3AD1ED4D5C1BAB422AD013DCEC4D70
:10297000A3EB0504AB4227D006DCEA4C1C1918D0A7
:10298000B4F5805F28D116E0B4F5805F1ED0B4F5B1
:10299000005F21D116E0B4F5243F0ED0B4F5283FF6
:1029A0000DD0B4F5383F15D0A4F50824203C13D140
:1029B0000EE0032110E005210EE015210CE01721A7
:1029C0000AE000BF0B2107E00D2105E00F2103E025
:1029D000202101E0192100BF52E0012A50D1CF4D42
:1029E0005C1BAB423AD019DCCF4DA3EB0504AB42E4
:1029F0002ED009DCCD4C1C193DD0CD4D64193CD0F6
:102A0000B4F5F85F3BD121E0B4F5805F29D0B4F58F
:102A1000005F28D0B4F5405F31D120E0B4F58A2FB3
:102A200012D009DCB4F5243F14D0B4F5283F13D0FC
:102A3000B4F5383F23D11AE0B4F5072F19D0A4F527
:102A40000824203C1BD110E0002118E0022116E0F0
:102A5000042114E0142112E0162110E000BF0A2125
:102A60000DE00C210BE00E2109E0212107E01821E7
:102A700005E01A2103E0012101E0062100BF00BFAB
:102A8000A44CA04207D1AB4CA46B24F01F040C4310
:102A9000A84DAC6356E09F4C5834A04208D1A54CD9
:102AA000A46B24F4F85444EA0124A24DAC6349E039
:102AB000984CB034A04208D19E4CA46B24F4F81476
:102AC00044EA01449B4DAC633CE09B4CA04208D1DE
:102AD000984CA46B24F0F85444EA0164954DAC631F
:102AE00030E0954C5834A04207D1924C246D24F02C
:102AF0001F040C438F4D2C6524E08F4CB034A04252
:102B000008D18C4C246D24F4F85444EA0124894DF6
:102B10002C6517E0894CA04208D1864C246D24F422
:102B2000F81444EA0144834D2C650BE0834C58347F
:102B3000A04207D17F4C246D24F0F85444EA01648C
:102B40007C4D2C6530BD70B506460C4600253046E0
:102B5000FFF7E2FE054624B145EA05206E4908600C
:102B600004E0002040EA05206B49086070BD2DE9B3
:102B7000F0418AB007460E460024A0460025F068C2
:102B800020B101280ED0022817D100E000BF012299
:102B9000314605A8FFF7A6FE022231466846FFF738
:102BA000A1FE0AE00222314605A8FFF79BFE0122A2
:102BB00031466846FFF796FE00BF00BF0021384649
:102BC000FFF7C1FF3846FFF7A7FE054652480068E9
:102BD000284202D00AB0BDE8F0814F48683805604D
:102BE0004D48603805604C48583805604A485038B0
:102BF00005604948483805605048B83000682840AA
:102C00004549C8390968294008434349C03909681A
:102C1000294008434949C0310968294008434749C8
:102C2000B0310968294008433B49B0390968294057
:102C300008433949A0390968294008433649983979
:102C40000968294008433449A839096829400843DC
:102C50003149B83909682940084300D0BAE70598D6
:102C600038600098B860F8696FF30B00F861F86994
:102C7000F16A0843F86124F4E034099844EA8034A6
:102C800024F46054049844EAC02424F4E004F06876
:102C900020B1012804D0022808D104E000BF07E0D9
:102CA00044F4801404E044F4001401E000BF00BFC9
:102CB00000BF24F07004069844EA001424F00E04C7
:102CC000019844EA400424F4C064079844EA40248C
:102CD00024F4C074029844EAC014BC6128F440682B
:102CE00048F44068F06878B1F068022804D128F40C
:102CF0000068089848EAC028F068012804D128F440
:102D00008068039848EA8028C7F84080014844302A
:102D1000006815E000080040A00B004000B0014032
:102D20000080014000A0FEBF0070014000F0FFBF26
:102D300000CFFEFF00F0014008090040100A0040EB
:102D4000FE4944310860FD489C30006840F408604A
:102D5000FA499C310860F948F430006840F4885022
:102D6000F649F4310860F648006840F4CC50F44964
:102D70000860F3485830006840F40850F049583172
:102D80000860EF48B030006840F42A50EC49B03198
:102D90000860EC48006840F44C50EA490860E94893
:102DA0005830006840F46E50E64958310860F068C9
:102DB00020B13846F2683168FFF7CFFD0120FFF7F8
:102DC000C1FD00BF06E770B5054600242846FFF7A1
:102DD000A3FD0446DC480460DB481038046070BD85
:102DE00070B5054600242846FFF796FD0446D648F0
:102DF00010380460D448046070BD01607047816081
:102E000070472DE9F04105460F4690460026002404
:102E10002846FFF781FD0446B8F1000F04D0A869E9
:102E200040F00100A86105E0A86920F00100A86158
:102E300024F01F04002630E00121B14001EA070020
:102E4000042816D004DC012807D0022823D10AE088
:102E5000082814D010281ED117E044EA0421BA4AE9
:102E6000603A116017E044EA0421B74A503A116011
:102E700011E044EA0421B44A483A11600BE044EA04
:102E80000421B14A583A116005E044EA0421AE4AEF
:102E9000683A116000BF00BF761C052ECCD3BDE898
:102EA000F08170B506460D4600243046FFF734FD2C
:102EB0000446042D12D004DC012D07D0022D19D1B7
:102EC00008E0082D0ED0102D14D10FE09E483838A0
:102ED00004600FE09C48283804600BE09A482038D2
:102EE000046007E098483038046003E096484038B2
:102EF000046000BF00BF70BD70B505460C460026DB
:102F0000042C12D004DC012C07D0022C19D108E0CB
:102F1000082C0ED0102C14D10FE08B48883806688E
:102F20000FE08948783806680BE0874870380668F3
:102F300007E085488038066803E0834890380668D3
:102F400000BF00BF2846FFF7E7FC304201D0012058
:102F500070BD0020FCE770B505460C460026042C29
:102F600012D004DC012C07D0022C19D108E0082C67
:102F70000ED0102C14D10FE07248743006680FE0A8
:102F80007048843006680BE06E488C30066807E0B5
:102F90006C487C30066803E06A486C30066800BF05
:102FA00000BF2846FFF7B8FC304201D0012070BDB9
:102FB0000020FCE72DE9F0478AB004460F46904612
:102FC0009A460025A9460026F86820B101280ED0AF
:102FD000022817D100E000BF0122394605A8FFF7FB
:102FE00081FC022239466846FFF77CFC0AE0022297
:102FF000394605A8FFF776FC012239466846FFF7F7
:1030000071FC00BF00BF00212046FFF79CFD204659
:10301000FFF782FC06464C4828300068304202D058
:103020000AB0BDE8F087484840380660464838385E
:1030300006604548303806604348283806604248F4
:10304000203806603F487430006830403D49843184
:103050000968314008433B498C31096831400843D5
:1030600038497C3109683140084336496C31096878
:1030700031400843344988390968314008433249AE
:1030800078390968314008432F497039096831405F
:1030900008432D4980390968314008432A4990394D
:1030A00009683140084300D0BAE7059820600098CD
:1030B000A060E0696FF30B00E061E069F96A084322
:1030C000E06125F4E035099845EA803525F460553E
:1030D000049845EAC02525F4E005F86820B10128E8
:1030E00004D0022808D104E000BF07E045F48015B1
:1030F00004E045F4001501E000BF00BF00BF25F06B
:103100007005069845EA001525F00E05019845EA78
:10311000400525F4C065079845EA402525F4C075AB
:10312000029845EAC015A56129F4406949F440694F
:10313000F868C0B1F86802280DD107E00008004027
:103140004C090040540A0040780B004029F4006903
:10315000089849EAC029F868012804D129F480694F
:10316000039849EA8029C4F84090B5480068B449FA
:103170000860B3485830006840F40860B0495831DE
:103180000860AF48B030006840F48850AC49B031B6
:103190000860AC48006840F4CC50AA490860A948CF
:1031A0005830006840F40850A64958310860A548D6
:1031B000B030006840F42A50A249B0310860A248FB
:1031C000006840F44C50A04908609F48583000689F
:1031D00040F46E509C4958310860F86820B1204690
:1031E000FA683968FFF7B9FB206900F00300206135
:1031F000BAF10A0F7ED2DFE80AF0F0051E37506AF6
:1032000086A0BAD4206900F003002061206C20F071
:1032100080402064206C40F000402064A06920F0D1
:103220008050A061A06920F00060A061E06940F4D6
:103230008050E061EAE0206900F003002061206C2A
:1032400040F080402064206C20F000402064A069A1
:1032500020F08050A061A06920F00060A061E069CA
:1032600040F48050E061D1E0206900F0030020616B
:10327000206C40F080402064206C40F000402064CE
:10328000A06920F08050A061A06920F00060A061DA
:10329000E06940F48050E061B8E0206928F0030163
:1032A00008432061206C20F080402064206C20F0D6
:1032B00000402064A06920F08050A061A06920F047
:1032C0000060A061E06940F48050E0619EE0206908
:1032D00028F0030108432061206C20F08040206426
:1032E000206C20F000402064A06920F08050A06194
:1032F000A06900E070E040F00060A061E06940F487
:103300008050E06182E0206928F0030108432061D9
:10331000206C40F080402064206C20F0004020644D
:10332000A06920F08050A061A06940F00060A06119
:10333000E06940F48050E06168E0206928F0030112
:1033400008432061206C20F080402064206C20F035
:1033500000402064A06940F08050A061A06920F086
:103360000060A061E06940F48050E0614EE02069B7
:1033700028F0030108432061206C20F08040206485
:10338000206C40F000402064A06940F08050A061B3
:10339000A06920F00060A061E06940F48050E06125
:1033A00034E0206928F0030108432061206C20F0FC
:1033B00080402064206C20F000402064A06940F030
:1033C0008050A061A06940F00060A061E06940F415
:1033D0008050E0611AE000E000BF206900F00300C7
:1033E0002061206C20F080402064206C20F00040A0
:1033F0002064A06920F08050A061A06920F00060E6
:10340000A061E06940F48050E06100BF00BF01208E
:10341000FFF798FA00BF03E6F0B5DDE905450B605C
:103420004C60066906F003068E6022F003078E6882
:103430003E438E608669CE600D6100264E61F0BD10
:10344000440800404C090040540A00400548064921
:10345000086070470548006840F470000349086040
:1034600070470000006CDC020000002088ED00E0E6
:1034700040EA01039B0703D009E008C9121F08C0F6
:10348000042AFAD203E011F8013B00F8013B521E76
:10349000F9D27047D2B201E000F8012B491EFBD2ED
:1034A00070470022F6E710B513460A46044619464F
:1034B000FFF7F0FF204610BD2DE9F05F0546002024
:1034C00092469B4688460646814640241BE0284695
:1034D00041464746224600F042F853465A46C01A33
:1034E000914110D311461846224600F029F82D1AB2
:1034F00067EB01084F4622460120002100F020F82A
:1035000017EB00094E41201EA4F10104DFDC484600
:1035100031462A464346BDE8F09F0000064C074D61
:1035200006E0E06840F0010394E807009847103493
:10353000AC42F6D3FDF7F0FD403A0001603A0001DD
:10354000202A04DB203A00FA02F100207047914063
:10355000C2F1200320FA03F3194390407047202A58
:1035600004DB203A21FA02F00021704721FA02F32D
:10357000D040C2F120029140084319467047000034
:103580000FB4054B10B503A9044A029800F018F8CF
:1035900010BC5DF814FB0000F912000104000020CB
:1035A00002E008C8121F08C1002AFAD1704770470C
:1035B000002001E001C1121F002AFBD1704700006A
:1035C0002DE9FF4F8DB00F4605460026E2E1252884
:1035D00074D100246D1CF349A246A14601222B7828
:1035E000203B02FA03F0084202D004436D1CF6E7C8
:1035F00028782A2810D06FF02F022878A0F1300107
:10360000092915D80AEB8A0102EB410144F00204B2
:1036100000EB010A6D1CF0E757F804ABBAF1000F9C
:1036200003DA44F40054CAF1000A44F002046D1CA9
:1036300028782E2817D115F8010F44F004042A2801
:103640000ED06FF02F022878A0F1300109290AD896
:1036500009EB890102EB410100EB01096D1CF2E766
:1036600057F8049B6D1C28786C280FD006DC4C287A
:1036700017D068280DD06A2814D104E0742810D01F
:103680007A280FD10DE044F400140AE044F48014C9
:1036900001E044F440146978814202D16D1C04F5C4
:1036A00080146D1C2A786E2A20D00DDC632A33D05A
:1036B00005DC002A6FD0582A12D1A4E011E0642A58
:1036C0006AD0692A0CD167E0732A2FD004DC6F2AF4
:1036D0006FD0702A04D19BE0752A6BD0782A6AD00B
:1036E0001046DDE90F129047761C52E1C4F30250F8
:1036F000022806D003280AD0042801CF0AD0066089
:1037000047E101CF4FEAE671C0E9006141E101CF35
:1037100006803EE106703CE117F8040B8DF80000CE
:1037200000208DF80100EB46012003E057F804BBB0
:103730004FF0FF3061074FF0000102D40DE008F1B7
:103740000101884649450FDA8045F8DB1BF808106F
:103750000029F4D108E008F1010188468142FADB32
:103760001BF808100029F6D1DDE90F23AAEB0800A9
:103770008146214600F03FF9304400EB080604E0A2
:10378000DDE90F121BF8010B9047B8F10108F7D2E1
:1037900021464846F8E001E10A21C4F302534FF004
:1037A000000B0891022B07D001CFC117032B09D0C2
:1037B0000AE036E023E024E0FF1D27F00707F7E8E2
:1037C000020105E000B2C117042B01D140B2C117BC
:1037D000002907DA4FF0000CD0EB0C006CEB010174
:1037E0002D2302E0230504D52B238DF8243001235B
:1037F00003E0E30701D02023F7E7984652E00A21CF
:1038000010E010210EE010204FF0000B08900CE0AB
:1038100010214FF0000B44F004044FF00809089108
:1038200003E008214FF0000B0891C4F30253022B70
:1038300004D001CF0021032B06D006E0FF1D27F0A6
:103840000707F7E8020103E080B2042B00D1C0B201
:103850004FF00008230725D5702A2AD0DDF820C0B4
:103860008CF0100C5CEA0B0C09D150EA010306D075
:1038700030238DF824308DF8252002239846DDF87A
:1038800020C08CF0080C5CEA0B0C0BD150EA010351
:1038900001D1630706D530238DF824304FF001089D
:1038A000A9F10109582A09D03FA20B9208AA0A924D
:1038B00011E040238DF824300123DFE73FA2F4E735
:1038C0005B46089AFFF7F8FD0B9B9B5C0A9AA2F1F6
:1038D00001020A92137050EA0102F1D10A98ADEB8D
:1038E000000000F1200B600702D524F4803401E0D1
:1038F0004FF00109D94502DDA9EB0B0000E00020E3
:1039000000EB0B0141440890AAEB01000B90E0038F
:1039100006D4DDE90F2321460B9800F06CF806442D
:103920004FF000090DF1240A07E0DDE90F121AF843
:1039300009009047761C09F10109C145F5DBE00358
:103940000CD5DDE90F2321460B9800F054F806440E
:1039500004E0DDE90F1230209047761C0899481EDC
:1039600008900029F5DC08E00A980A990078491CBB
:103970000A91DDE90F129047761CBBF10001ABF113
:10398000010BF1DC0B982146DDE90F2300F020F854
:1039900006446D1C287800287FF419AE11B030461B
:1039A000BDE8F08F09280100303132333435363725
:1039B000383961626364656600000000303132337B
:1039C000343536373839414243444546000000001B
:1039D0002DE9F041044600251E461746880405D40B
:1039E00006E039462020B04705F10105641EF8D5F0
:1039F0002846BDE8F0812DE9F041044600251E4629
:103A00009046C80301D5302700E02027880405D55B
:103A100006E041463846B04705F10105641EF8D579
:103A20002846BDE8F081000000D0014010D00140E0
:103A300020D0014030D0014040D0014050D0014062
:103A4000603A00010000002008000000A0350001DD
:103A5000683A00010800002070A00000B0350001A5
:083A6000006CDC020000000014
:0400000501001111D4
:00000001FF
