:020000040100F9
:1010000038800020491500017D1200017F12000187
:1010100083120001871200018B1200010000000002
:101020000000000000000000000000008F1200011E
:101030009112000100000000931200010F15000141
:101040006F1500016F1500016F1500016F1500018C
:101050006F1500016F1500016F1500016F1500017C
:101060006F1500016F1500016F1500016F1500016C
:101070006F1500016F1500016F1500019913000134
:101080006F1500016F1500016F1500016F1500014C
:101090006F1500016F1500016F1500016F1500013C
:1010A0006F1500016F1500016F1500016F1500012C
:1010B000000000006F1500010000000000000000AB
:1010C0006F1500016F150001000000006F15000191
:1010D0006F1500016F1500016F1500016F150001FC
:1010E0006F150001000000006F15000100000000F6
:1010F00000000000000000006F1500016F150001E6
:10110000000000006F1500016F1500016F15000150
:10111000DFF80CD001F040FD00480047C511000188
:101120003880002072B600BF00BF00BF00BF30BFD4
:1011300000BF00BF00BF00BF62B670477FB5684602
:1011400001F0CBFB64220198B0FBF2F1481EB0F134
:10115000807F00D31BE0481E4FF0E0225061501703
:101160000722002807DA53071D0E324B00F00F0448
:10117000241F1D5503E053071C0E2F4B1C5400BFAA
:1011800000204FF0E02290610720106100BF7FBD7A
:1011900010B50446214629A001F010FD10BD1FB571
:1011A00001220321294800F045FD4FF4E130009071
:1011B000032001900020029003906946244800F02B
:1011C0000EFB1FBD0121234801F029FA0121084629
:1011D00001F074FAFFF7E3FF00F05CF8AFF24F00A4
:1011E00000F0A1F9FFF7AAFF1121194800F074FBE4
:1011F00019A001F0E3FC00BFFEE710B5044600BFF4
:10120000134800F028FC0028FAD0E1B2104800F0A2
:1012100063FB204610BD70B504460D460A2C02D172
:101220000D20FFF7EAFF2046FFF7E7FF70BD00BF84
:10123000FEE7000018ED00E000E400E04B45595BDC
:1012400025645D2050524553530A000000D00140F0
:1012500000600140010010004D65676148756E74C3
:101260002053435055204B6579426F61726420448E
:10127000656D6F2056312E302E0A0000704700BF7A
:10128000FEE700BFFEE700BFFEE700BFFEE77047D6
:101290007047704700B587B0A448002101604160E5
:1012A00002208DF818004FF4A040059002208DF820
:1012B000190005A99E4800F03EFD05208DF8180094
:1012C0000120059002208DF8190005A9984800F02A
:1012D00032FD05208DF818004FF480500590022053
:1012E0008DF8190005A99248103000F024FD052062
:1012F0008DF818004FF40050059002208DF8190069
:1013000005A98B48103000F016FD00BF0121884868
:1013100000F00BFF4FF480518548103000F005FFBE
:101320004FF400518248103000F0FFFE00BF01F082
:10133000C1F8022001F028F902224FF4A041104622
:1013400001F0C7F8062002467A4B19684FF6FF03F2
:101350001940794B0B4343EA0221764B196000BFD9
:101360000F20019000200290039001208DF81000C2
:1013700001A800F019F907B000BD704A02EBC002E5
:1013800052680A436D4B03EBC0035A60704700E09C
:10139000401E0028FCD1704770B5002400250220B3
:1013A00001F0ECF800F4A045B5F5805F52D0B5F53A
:1013B000804F7DD100BF01215D4800F047FE4FF412
:1013C00080515B48103000F041FE4FF40051584806
:1013D000103000F03BFE00BF00BF20E0584A02EB97
:1013E000C4029188564A52F8340000F09EFE4FF431
:1013F00080414F4800F050FD78B94FF6FF70FFF77D
:10140000C6FF4FF480414A4800F046FD28B94748DE
:10141000047001204549487003E0601CC4B2032CED
:10142000DCD300BF00BF0121414800F07EFE4FF435
:1014300080513F48103000F078FE4FF400513C4896
:10144000103000F072FE00BF4FF480410220FFF721
:1014500094FF52E000BF0121354800F0F7FD4FF442
:1014600080513348103000F0F1FD4FF40051304806
:10147000103000F0EBFD00BF002422E0304A02EB08
:10148000C40291882E4A52F8340000F04EFE4FF408
:101490008051274800F000FD88B94FF6FF70FFF734
:1014A00076FF4FF48051224800F0F6FC38B900E096
:1014B00022E0201D1D4908700120487003E0601CD7
:1014C000C4B2032CDAD300BF00BF0121184800F0DA
:1014D0002CFE4FF480511648103000F026FE4FF4D9
:1014E00000511348103000F020FE00BF4FF480512F
:1014F0000220FFF742FF00E000BF00BF0F200121E4
:101500008140104A430942F8231000BF70BD10B556
:101510000648407830B10020044948700A461078E7
:101520005168884710BD0149486070471800002085
:1015300020D001400CED00E00000FA0500D8014089
:101540000000002080E200E009480A4908600068C5
:10155000854609488047094800470000FEE7FEE746
:10156000FEE7FEE7FEE7FEE7FEE7FEE7FEE7FEE753
:101570000010000108ED00E02D2B00011111000109
:1015800010B50446072C05D0062C03D0052C01D03D
:10159000042C00D103E01D2164A0FFF748FE704831
:1015A00020437049086010BD2DE9F0470446207BB8
:1015B00010B1207B012800D103E02F215BA0FFF7B1
:1015C00036FE6068102800D203E0302157A0FFF7F4
:1015D0002EFEA068102800D203E0312153A0FFF7AF
:1015E00026FE207B002856D000BF5E480068C0F36E
:1015F000022005462846D4E901230146C1F1070827
:10160000B8F1030F02D94FF0030801E0C1F1070858
:10161000C44601F10308B8F1070F02D24FF00008E9
:1016200001E0A1F1040847464FF0010808FA0CF860
:10163000A8F1010808EA020808FA07F84FF00109C2
:1016400009FA07F9A9F1010909EA030948EA0906B3
:1016500000BF227851B23046002908DA4207170E3F
:10166000404A0C3201F00F031B1FD75403E042071E
:10167000130E3D4A535400BF217848B200F01F02B8
:101680000121914042094FF0E02303EB8202C2F8AE
:10169000001100BF0BE0217848B200F01F020121C9
:1016A0009140324A430942F8231000BF00BFBDE811
:1016B000F08770B504460D46B4F1005F02D0B4F176
:1016C000807F00D103E0512118A0FFF7B0FD28482A
:1016D000854200D203E0522114A0FFF7A8FD25495E
:1016E00005EA010020431F49091F086070BD10B5BD
:1016F0000446042C01D0601D00D103E062210BA040
:10170000FFF795FD042C08D14FF0E020006940F070
:1017100004004FF0E021086107E04FF0E02000698D
:1017200020F004004FF0E021086110BD2E2E5C2E49
:101730002E5C2E2E5C2E2E5C2E2E5C4C696272610D
:10174000726965735C4D48534350555F44726976C6
:1017500065725C7372635C6D6973632E6300000075
:101760000000FA050CED00E000E400E080E100E09C
:10177000FFFF0F0080FFFF1F10B50446F8488442AA
:1017800008D0F848844205D0F748844202D0F74890
:10179000844200D103E01821F5A0FFF748FDF0488E
:1017A000844204D10121084600F088FF16E0ED488C
:1017B000844204D10121022000F080FF0EE0EA48BB
:1017C000844204D10121042000F078FF06E0E748BC
:1017D000844203D10121082000F070FF10BD7FB5C5
:1017E00005460C46DE48854208D0DE48854205D0D5
:1017F000DD48854202D0DD48854200D103E03A2130
:10180000DBA0FFF714FD206820B1E849206888427A
:1018100000D203E03B21D6A0FFF709FD606840B18C
:101820006068012805D06068022802D0606803283B
:1018300000D103E03C21CEA0FFF7F9FCA06848B13D
:10184000A068042801D1606820B1A068042802D1F2
:10185000606800B103E03D21C5A0FFF7E8FCE06847
:1018600028B1E068182802D0E068082800D103E019
:101870003E21BFA0FFF7DBFC684601F02EF8E868C8
:1018800040F08000E86003980009216800EB5100F7
:10189000B0FBF1F6F0B22860C6F307206860E86894
:1018A00020F08000E860D4E901010843E1680843C2
:1018B000E8607FBD4FF416510160032141600021B3
:1018C0008160C16070471AB143680B43436002E016
:1018D00043688B4343607047016070470146086866
:1018E000C0B2704721B1026942F02002026103E0F8
:1018F000026922F0200202617047016941F0010192
:1019000001617047016921F00101016170470169BE
:1019100041F0020101617047016921F0020101619A
:1019200070470A6922B1426842F08002426003E0D7
:10193000426822F080024260D0F8982052F0010202
:1019400005D0D0F8982022F00102C0F898204A680B
:1019500032B9D0F8942022F00102C0F8942008E0B7
:101960004A68012A05D1D0F8942042F00102C0F85B
:1019700094208A68C0F89C20CA68C0F8A0200A7821
:1019800032B1D0F8982042F00102C0F8982005E06A
:10199000D0F8982022F00102C0F89820704700216A
:1019A00001704160022181600321C1600021016159
:1019B00070470246002051F0010301D040F00400BE
:1019C00009B140F00200C2F88800704731B1D0F888
:1019D000982042F00102C0F8982005E0D0F8982045
:1019E00022F00102C0F8982070470146486970470C
:1019F0000146886970470146886870470146486912
:101A000010F0800F01D0012070470020FCE7014654
:101A1000486910F0080F01D0012070470020FCE752
:101A20000146486910F0040F01D0012070470020E2
:101A3000FCE70146486910F0020F01D00120704711
:101A40000020FCE70146486910F0010F01D0012099
:101A500070470020FCE70146486910F0400F01D0B4
:101A6000012070470020FCE70146486910F0200F74
:101A700001D0012070470020FCE70146486910F0C2
:101A8000200F01D0012070470020FCE70146C86FFD
:101A900010F0100F01D0012070470020FCE7014634
:101AA000C86F10F0080F01D0012070470020FCE73C
:101AB0000146C86F10F0040F01D0012070470020CC
:101AC000FCE70146C86F10F0020F01D001207047FB
:101AD0000020FCE70146C86F10F0010F01D0012083
:101AE00070470020FCE7D0F8A81041F00101C0F8D1
:101AF000A810704731B1D0F8A42042F00102C0F81C
:101B0000A42005E0D0F8A42022F00102C0F8A4200F
:101B1000704721B1026F42F00102026703E0026FD9
:101B200022F00102026770470146486FC0B2704759
:101B300070B504460D460DB1012D00D104E04FF4FF
:101B4000F5710BA0FFF773FB25B1206940F0400051
:101B5000206103E0206900F04000206170BD0000BA
:101B6000006001400070014000400440005004400B
:101B70002E2E5C2E2E5C2E2E5C2E2E5C2E2E5C4C81
:101B800069627261726965735C4D48534350555F79
:101B90004472697665725C7372635C6D68736370BE
:101BA000755F756172742E630000000021AA440005
:101BB000D0F8901041F00101C0F89010704700007B
:101BC00030B587B004461822FE4901A800F0BCFFDA
:101BD000FD48844213D0FC48103084420FD0FA48AC
:101BE000203084420BD0F8483030844207D0F64889
:101BF0004030844203D0F4485030844200D103E0A6
:101C00001B21F2A0FFF713FB002508E001A850F804
:101C10002500A04202D1284607B030BD6D1C062D1C
:101C2000F4DB4FF0FF30F7E710B50121080500F0B5
:101C300045FD10BD2DE9F041064688461746E248AD
:101C4000864213D0E048103086420FD0DE48203064
:101C500086420BD0DC483030864207D0DA4840302C
:101C6000864203D0D8485030864200D104E040F28A
:101C70004F11D6A0FFF7DBFA002018B9B8F1000F1A
:101C800000D004E04FF4A871D0A0FFF7D0FA012FE4
:101C900005D0022F03D0032F01D0042F00D104E080
:101CA00040F25111C9A0FFF7C2FA3046FFF788FF92
:101CB000044600253BE00120A84010EA080F35D07B
:101CC000D14850F824006A00032191408843CE494E
:101CD00041F82400012F06D0022F05D0032F0ED08B
:101CE000042F22D116E020E0C74850F824006A00F3
:101CF000012191400843C44941F8240015E0C2483D
:101D000050F824006A00022191400143BE4840F887
:101D100024100AE0BC4850F824106A0003209040C8
:101D20000143B94840F8241000BF00BF6D1C102DBE
:101D3000C1D3BDE8F08170B504460D464FF0FF36C3
:101D4000A148844213D0A048103084420FD09E484E
:101D5000203084420BD09C483030844207D09A48CF
:101D60004030844203D098485030844200D103E090
:101D70003E2196A0FFF75BFA2868000C000402D110
:101D8000286800B103E03F2190A0FFF750FA2879BE
:101D900001280BD02879022808D02879032805D0FB
:101DA0002879052802D02879042800D103E04021B1
:101DB00086A0FFF73CFA6A79288881B22046FFF7AF
:101DC00039FF6879022800D070BD2046FFF7F8FE81
:101DD00006462879062855D2DFE800F054030C1592
:101DE0002A3FA06829680843A060E0682968884302
:101DF000E06047E0A06829680843A060E0682968BF
:101E00000843E0603EE0A06829680843A060E068FD
:101E100029688843E06020682968884320607B48FF
:101E200030F8160029880843784921F8160029E07F
:101E3000A06829680843A060E06829680843E0605A
:101E40002068296888432060704830F81600298887
:101E500008436E4921F8160014E0A06829688843F9
:101E6000A060E06829688843E0602068296808432A
:101E70002060664830F8160029688843634921F8D5
:101E8000160000BF00BF00BF9EE74FF6FF71016064
:101E9000012101714171704770B505460C464A48F1
:101EA000854213D04848103085420FD04648203034
:101EB00085420BD044483030854207D042484030FC
:101EC000854203D040485030854200D103E08D2147
:101ED0003EA0FFF7ACF9012C25D0022C23D0042C16
:101EE00021D0082C1FD0102C1DD0202C1BD0402C12
:101EF00019D0802C17D0B4F5807F14D0B4F5007FB2
:101F000011D0B4F5806F0ED0B4F5006F0BD0B4F5DE
:101F1000805F08D0B4F5005F05D0B4F5804F02D0E3
:101F2000B4F5004F00D103E08E2128A0FFF77FF920
:101F3000286814EA104F01D0012070BD0020FCE792
:101F4000014608684FF6FF7202EA1040704770B50C
:101F500005460C461C48854213D01B48103085426C
:101F60000FD01948203085420BD0174830308542B9
:101F700007D015484030854203D013485030854281
:101F800000D103E0AC2111A0FFF751F9012C4CD096
:101F9000022C4AD0042C48D0082C46D0102C44D017
:101FA000202C42D0402C40D0802C3ED0B4F5807FF5
:101FB0003BD0B4F5007F38D0B4F5806F35D0B4F5A0
:101FC000006F25E0502D000100D001402E2E5C2E28
:101FD0002E5C2E2E5C2E2E5C2E2E5C4C6962726165
:101FE000726965735C4D48534350555F447269761E
:101FF00065725C7372635C6D68736370755F677044
:10200000696F2E630000000080D10140280000208D
:102010000BD0B4F5805F08D0B4F5005F05D0B4F5FF
:10202000804F02D0B4F5004F00D104E0AD21AFF2F3
:102030006400FFF7FCF82868204201D0012070BD41
:102040000020FCE70146086880B270472DE9F041A6
:1020500005460C464FF0FF3600274FF00008F848C1
:10206000854213D0F648103085420FD0F448203016
:1020700085420BD0F2483030854207D0F0484030DE
:10208000854203D0EE485030854200D104E0CD2196
:10209000AFF2C800FFF7CBF8012C25D0022C23D0DB
:1020A000042C21D0082C1FD0102C1DD0202C1BD08C
:1020B000402C19D0802C17D0B4F5807F14D0B4F503
:1020C000007F11D0B4F5806F0ED0B4F5006F0BD047
:1020D000B4F5805F08D0B4F5005F05D0B4F5804F4B
:1020E00002D0B4F5004F00D104E0CE21AFF22410AD
:1020F000FFF79DF82846FFF763FD0646D14830F804
:10210000160000EA0407CF4830F8160024EA000859
:10211000CC4830F81600204203D0A8683843A860A5
:1021200001E0C5F80480BDE8F0812DE9F0410546E5
:102130000C464FF0FF3600274FF00008C04885429C
:1021400013D0BF48103085420FD0BD4820308542A3
:102150000BD0BB483030854207D0B948403085426B
:1021600003D0B7485030854200D104E0EB21AFF2F4
:10217000A410FFF75CF8012C25D0022C23D0042CEE
:1021800021D0082C1FD0102C1DD0202C1BD0402C6F
:1021900019D0802C17D0B4F5807F14D0B4F5007F0F
:1021A00011D0B4F5806F0ED0B4F5006F0BD0B4F53C
:1021B000805F08D0B4F5005F05D0B4F5804F02D041
:1021C000B4F5004F00D104E0EC21AFF20020FFF79E
:1021D0002EF82846FFF7F4FC06469A4830F8160019
:1021E00000EA0407974830F8160024EA00089548EA
:1021F00030F81600204203D0A868B843A86002E077
:102200004FEA08406860BDE8F0812DE9F0410446DE
:102210000E4600256F1E8A48844213D0884810302D
:1022200084420FD08648203084420BD0844830301E
:10223000844207D082484030844203D080485030E6
:10224000844200D105E040F20711AFF28020FEF792
:10225000EEFF2046FFF7B4FC0746002526E079484C
:1022600030F817000121A94008420FD00120A840F2
:10227000304205D0A0680121A9400843A06014E0C5
:10228000A0680121A9408843A0600EE00120A84079
:10229000304205D021680120A8400143216004E0BC
:1022A00020680121A940884320606D1C102DD6D3E1
:1022B000BDE8F08170B504460D461646604884427C
:1022C00013D05F48103084420FD05D4820308442E4
:1022D0000BD05B483030844207D0594840308442AC
:1022E00003D057485030844200D105E04FF4987134
:1022F000AFF22830FEF79BFF002008B905B105E0DA
:1023000040F23111AFF23C30FEF791FF1EB1E068B0
:102310002843E06002E0E068A843E06070BD47F653
:10232000010049490860704770B505460C461646DD
:102330004DB1012D07D0022D05D0032D03D0042D62
:1023400001D0052D00D105E04FF4C171AFF284300A
:10235000FEF76DFF200C000401D104B105E040F24E
:102360008311AFF29830FEF762FF0EB1012E00D15B
:1023700005E04FF4C271AFF2AC30FEF758FF76BB08
:10238000062D35D2DFE805F0030B131B232C2F4855
:10239000006820EA04002A49C1F8240228E02B48FA
:1023A000006820EA04402649C1F8240220E02848B9
:1023B000006820EA04002249C1F8280218E02448F5
:1023C000006820EA04401E49C1F8280210E02148B4
:1023D000006820EA04001A49C1F82C0208E008E06D
:1023E0001C48006820EA04401549C1F82C0200BFCF
:1023F00043E0062D40D2DFE805F0030B131B2F3717
:102400001248006840EA04000D49C1F8240233E094
:102410000E48006840EA04400949C1F824022BE054
:102420000B48006840EA04000549C1F8280223E08F
:102430000748006840EA04400149C1F828021BE04F
:1024400000D001402800002020D2014024D20140C9
:1024500028D201402CD201401348006840EA040011
:102460001249C1F82C0207E00F48006840EA044016
:102470000E49C1F82C0200BF00BF70BD10B5044664
:102480000CB1012C00D105E04FF4E571AFF2C4406E
:10249000FEF7CDFE0648006820F0010040EA040087
:1024A0000249C1F8200210BD2CD2014000D00140E9
:1024B00020D20140002009E00022374941F83020B5
:1024C0004FF6FF7201EBC0014A60401C0628F3D3AF
:1024D00070472DE9F04104460F4615464CB1012CDA
:1024E00007D0022C05D0032C03D0042C01D0052CDE
:1024F00000D103E0392129A0FEF799FE380C000431
:1025000001D107B103E03A2124A0FEF790FE2DB1DE
:10251000012D03D0022D01D0032D00D103E03B217A
:102520001EA0FEF784FE002618E00120B0403842CD
:1025300013D0194850F834007200032191408843A9
:10254000154941F83400084650F83400710005FA86
:1025500001F10843104941F83400761C102EE4D3F1
:10256000BDE8F0810020002105E01B4A52F821203F
:102570008A401043491C0629F7D370470146064894
:1025800000EBC100406870474FF6FF72024901EB53
:10259000C0014A607047000000D801402E2E5C2E1A
:1025A0002E5C2E2E5C2E2E5C2E2E5C4C696272618F
:1025B000726965735C4D48534350555F4472697648
:1025C00065725C7372635C6D68736370755F657868
:1025D00074692E630000000014D1014070B50446F8
:1025E0000D46F448044201D104B103E01F21F2A0DA
:1025F000FEF71DFE0DB1012D00D103E02021EEA05C
:10260000FEF715FE2DB1FB4880682043F94988602C
:1026100004E0F8488068A043F649886070BD70B552
:1026200004460D46F448044201D104B103E05021B0
:10263000E1A0FEF7FCFD0DB1012D00D103E0512119
:10264000DDA0FEF7F4FD2DB1EA4840682043E949DA
:10265000486004E0E7484068A043E649486070BD30
:1026600070B504460D46E548044201D104B103E0CB
:102670007121D1A0FEF7DBFD0DB1012D00D103E0EA
:102680007221CDA0FEF7D3FDDA48406904F0704115
:102690008843D849486125B108460069204308614C
:1026A00004E0D4480069A043D2490861D148406998
:1026B00004F070410843CF49486170BD70B50446CD
:1026C0000D46CD48044201D104B103E09F21BAA0D8
:1026D000FEF7ADFD0DB1012D00D103E0A021B6A0A4
:1026E000FEF7A5FD2DB1C348C0682043C149C860AD
:1026F00004E0C048C068A043BE49C86070BD70B562
:102700000446022C00DA03E0C521ABA0FEF78FFDE2
:102710006CB9B848006820F0E060B649086000BFB6
:10272000B44800680028FBD0FEF7FCFC13E0012C45
:1027300011D1B048006820F0E06040F08070AD49F1
:102740000860AF48C56845F47040AD49C860FEF701
:10275000E9FCAB48C56070BD10B504460CB1012C56
:1027600000D103E0DE2194A0FEF761FD14B1012C3D
:102770000ED106E09F48006820F480509D49086013
:1027800006E09C48006840F480509A49086000BF09
:1027900000BF10BD10B50446012C0FD0022C0DD087
:1027A000032C0BD0042C09D0052C07D0062C05D007
:1027B000072C03D0082C01D0092C00D103E0F22112
:1027C0007DA0FEF734FD0A2C57D2DFE804F0564D09
:1027D000443B322920170E058648006820F4F81083
:1027E00040F480108349086047E08248006820F484
:1027F000F81040F470207F4908603EE07D48006892
:1028000020F4F81040F460207A49086035E07948F7
:10281000006820F4F81040F45020764908602CE05D
:102820007448006820F4F81040F4402071490860B2
:1028300023E07048006820F4F81040F430206D491F
:1028400008601AE06B48006820F4F81040F420207B
:102850006849086011E06748006820F4F81040F407
:1028600010206449086008E06248006820F4F8100D
:1028700040F400205F49086000BF00BF10BD10B5E4
:1028800004461CB1012C01D0102C00D104E040F210
:10289000231149A0FEF7CBFC24B1012C09D0102C48
:1028A00019D10FE05348006820F440705149086086
:1028B00011E05048006820F4407040F480704D49A9
:1028C000086008E04B48006820F4407040F4007055
:1028D0004849086000BF00BF10BD4649096801F4BF
:1028E000F811B1F5801F02D1464901604EE041491F
:1028F000096801F4F811B1F5702F02D14249016065
:1029000044E03C49096801F4F811B1F5602F02D1A7
:102910003E4901603AE03749096801F4F811B1F520
:10292000502F02D13A49016030E03249096801F480
:10293000F811B1F5402F02D13649016026E02D494A
:10294000096801F4F811B1F5302F02D13249016064
:102950001CE02849096801F4F811B1F5202F02D1D3
:102960002E49016012E02349096801F4F811B1F51C
:10297000102F02D12A49016008E01E49096801F4BC
:10298000F811B1F5002F01D12649016019490968F4
:1029900011F4407F02D1016841604FE01549096898
:1029A00001F44071B1F5807F3ED101684908416072
:1029B00044E00000D0FFFFCF2E2E5C2E2E5C2E2E8A
:1029C0005C2E2E5C2E2E5C4C69627261726965739E
:1029D0005C4D48534350555F4472697665725C7331
:1029E00072635C6D68736370755F7379736374721F
:1029F0006C2E630000F00140F0984A13D0FFFF0FE7
:102A000000E0014000CB280C00B0710B0095BA0A21
:102A1000007A030A005F4C09004495080029DE078C
:102A2000000E270700F36F063B49096801F4407167
:102A3000B1F5007F02D10168890841603649C96A51
:102A40004FF47A72514381603349096B5143C1603D
:102A500070471FB504460CB1012C00D105E04FF4BE
:102A60009F71AFF2AC00FEF7E2FB6846FFF735FF5F
:102A700044B1012C18D12848006840F010002649C4
:102A8000086011E025490198884206D8224800686C
:102A900020F010002049086005E01F48006840F061
:102AA00010001D49086000BF00BF1FBD10B50446DF
:102AB000012C01D0022C00D105E040F25B11AFF2F5
:102AC0000810FEF7B4FB012C02D0022C0FD106E057
:102AD0001148006820F001000F49086007E00E4827
:102AE000006820F00100401C0B49086000BF00BFD7
:102AF00010BD10B5044601210820FFF76FFD10221C
:102B00000749204600F020F810BD10B50121C80784
:102B1000FFF7A6FD10BD000000F00140806514061F
:102B20000488004005480649086070470548006869
:102B300040F470000349086070470000006CDC023C
:102B40002000002088ED00E040EA01039B0703D04D
:102B500009E008C9121F08C0042AFAD203E011F8DC
:102B6000013B00F8013B521EF9D2704730B50B46CD
:102B7000014600202022012409E021FA02F59D42AD
:102B800005D303FA02F5491B04FA02F52844151E81
:102B9000A2F10102F1DC30BD064C074D06E0E06811
:102BA00040F0010394E8070098471034AC42F6D394
:102BB000FEF7B2FA682D0001882D00010FB4054B15
:102BC00010B503A9044A029800F018F810BC5DF88B
:102BD00014FB0000171200012400002002E008C8C6
:102BE000121F08C1002AFAD170477047002001E087
:102BF00001C1121F002AFBD1704700002DE9FF4FD1
:102C000089B09A460446002597E0252833D100274D
:102C1000641C4E49B84601222378203B02FA03F097
:102C2000084202D00743641CF6E720782E2819D109
:102C300014F8010F47F004072A280ED06FF02F0276
:102C40002078A0F1300109290CD808EB880102EBAB
:102C5000410100EB0108641CF2E70A98641C50F87B
:102C6000048B0A90207800286BD0642808D069284B
:102C700006D0752820D052460B9990476D1C5BE01A
:102C80000A994FF00A0901C90A91002804DAC0F133
:102C900000004FF02D0102E0390504D52B218DF8FD
:102CA0002010012103E0F90704D02021F7E78B462B
:102CB00008AE0EE00021FAE70A994FF00A0901C9AF
:102CC0000A91F7E74946FFF751FF01F1300106F895
:102CD000011D0028F6D1ADEB060000F120097807B0
:102CE00001D44FF00108C84502DDA8EB090000E05F
:102CF00000208046002706E008A85246C05D0B99D8
:102D000090476D1C7F1C5F45F6DB04E03020524687
:102D10000B9990476D1CB8F10001A8F10108F5DC92
:102D200005E016F8010B52460B9990476D1CB9F15E
:102D30000001A9F10109F4DC641C207800287FF46B
:102D400064AF0DB02846BDE8F08F000009280100EF
:102D500000D0014010D0014020D0014030D00140CF
:102D600040D0014050D00140882D000100000020DB
:102D700028000000DC2B0001B02D000128000020FD
:102D800010800000EC2B000120D001400100000069
:102D900030D001400010000030D001400020000081
:102DA0000000000000000000006CDC0200000000D9
:0400000501001111D4
:00000001FF
