:020000040800F2
:100000000000012005040008790400087B040008B2
:100010007D0400087F04000881040008000000003F
:100020000000000000000000000000008304000841
:100030008504000800000000870400088904000807
:100040008B0400088D0400088F0400089104000848
:1000500093040008950400080109000897040008AB
:10006000990400089B0400089D0400089F040008F0
:10007000A1040008A3040008A5040008A7040008C0
:10008000A9040008AB040008AD040008AF04000890
:10009000B1040008B3040008B5040008B704000860
:1000A000B9040008BB040008BD040008BF04000830
:1000B000C1040008C3040008C5040008C704000800
:1000C000C9040008CB040008CD040008CF040008D0
:1000D000D1040008B1090008000000000000000081
:1000E0000000000000000000000000000000000010
:1000F0000000000000000000000000000000000000
:1001000000000000000000000000000000000000EF
:1001100000000000000000000000000000000000DF
:100400000000000008B5154A154B9A4211D01A4653
:10041000144B9A420DD2114A114B1348C01A20F0C6
:1004200003000430184452F8041B43F8041B8342B1
:10043000F9D10E4A0E4B9A420BD213460D4AD21AEC
:1004400022F0030204321A44002143F8041B9A42AA
:10045000FBD100F097F900F00BF908BD800A000805
:1004600000000020100000200F00002010000020DD
:100470001401002013010020704770477047704737
:1004800070477047704770477047704770477047B4
:1004900070477047704770477047704770477047A4
:1004A0007047704770477047704770477047704794
:1004B0007047704770477047704770477047704784
:1004C0007047704770477047704770477047704774
:1004D00070470000124A936943F004039361114B83
:1004E000D3F8042822F47022C3F80428D3F804288F
:1004F00042F48032C3F80428D3F8042822F470426E
:10050000C3F80428D3F8042842F48042C3F804282E
:10051000D3F80C2802F48052C3F80C28704700BFAF
:1005200000100240000001401E4A936943F0080396
:1005300093611D4BD3F8002C22F00F02C3F8002C5E
:10054000D3F8002C42F00102C3F8002CD3F8002CA1
:1005500022F0F002C3F8002CD3F8002C42F0100275
:10056000C3F8002CD3F8002C22F47002C3F8002C3E
:10057000D3F8002C42F48012C3F8002CD3F80C2CD2
:1005800042F00102C3F80C2CD3F80C2C42F02002EC
:10059000C3F80C2CD3F80C2C42F00202C3F80C2C3C
:1005A000704700BF0010024000000140094A9369F3
:1005B00043F004039361084BD3F8002822F00F02A4
:1005C000C3F80028D3F8002842F00402C3F800283A
:1005D000704700BF001002400000014008B5FFF75F
:1005E000E5FF1D4A936943F0010393611B4B1C4ACD
:1005F000DA60DB68DB43C3F302220F23D3401B0125
:1006000003F01003174A82F8063340231360164B99
:100610009A6822F00F029A609A689A60134A1168E9
:1006200021F001011160516821F001015160D3F8FE
:10063000001441F00101C3F80014916821F0010198
:100640009160D16821F00101D160D3F8082442F013
:100650000102C3F8082408BD0010024000ED00E0CC
:100660000005FA0500E100E000000140000401403F
:1006700010B50B4AD36943F01003D361FFF754FF61
:10068000FFF7ACFF00F010F8FFF724FF054C2388BC
:1006900013F0200FFBD0A088C0B200F067F8F6E797
:1006A00000100240003801402F4B9A6942F00402CA
:1006B0009A619A6942F480429A61A3F58833D3F82B
:1006C000042822F0F002C3F80428D3F8042822F406
:1006D0007062C3F80428D3F8042842F0B002C3F8CB
:1006E0000428D3F8042842F48062C3F8042803F5F0
:1006F00060531A8A22F440521204120C1A821A8A87
:1007000092B21A829A8992B222F4B05222F00C026A
:1007100092B29A819A8992B29A819A8992B29A8176
:100720009A8992B242F008029A819A8992B242F072
:1007300004029A819A8A22F440721204120C9A825C
:100740009A8A92B242F400729A829A8A92B242F4DF
:1007500080729A8240F271221A819A8992B242F48E
:1007600000529A81704700BF00100240C0B2044B93
:1007700098801A46138813F0800FFBD0704700BF93
:100780000038014082B000230193009303F18043BD
:1007900003F504331A6842F001021A6059684E4AA0
:1007A0000A405A601A6822F0847222F480321A6079
:1007B0001A6822F480221A605A6822F4FE025A60F3
:1007C0004FF41F029A601A6822F480321A601A6885
:1007D00022F480221A601A6842F480321A601A46A3
:1007E0004FF6FF71136803F400330093019B01334C
:1007F0000193009B13B9019B8B42F3D1009B002B0B
:1008000068D0364B1A6842F010021A601A6822F05B
:1008100003021A601A6842F002021A60A3F58053BC
:100820005A6822F400325A605A6822F0F0025A6084
:100830005A685A605A6822F460525A605A685A607C
:100840005A6822F4E0625A605A6842F480625A6040
:100850001A6822F080721A605A6822F47C125A6078
:100860005A6822F400325A605A6842F480325A6060
:100870005A6842F4E0125A601A6842F080721A60B4
:10088000002301930093164A136803F0007300934A
:10089000019B01330193009B13B9019BFF2BF3D103
:1008A0000F4B5A6822F003025A605A6842F0020263
:1008B0005A60002301930093094A536803F00C0324
:1008C0000093019B01330193009B062B02D0019BF7
:1008D0000F2BF2D102B070470000FFF00020024061
:1008E00000100240054B1A685B69034204D00242C3
:1008F00014BF012000207047002070470004014011
:1009000008B50120FFF7EEFF38B3264B1B682BBB61
:10091000254BD3F80C2C42F00102C3F80C2CD3F871
:100920000C2C42F02002C3F80C2CD3F80C2C42F013
:100930000202C3F80C2CD3F80C2C22F02002C3F8CE
:100940000C2CD3F80C2842F48052C3F80C28154B19
:1009500001221A60154B01225A6108BD124BD3F8CF
:100960000C2C42F00102C3F80C2CD3F80C2C42F0F2
:100970002002C3F80C2CD3F80C2C42F00202C3F86E
:100980000C2CD3F80C2C22F00102C3F80C2CD3F859
:100990000C2822F48052C3F80C28024B00221A6063
:1009A000D8E700BF10000020000001400004014013
:1009B000114B1B8813F0200F07D1104AD2F80C3CC2
:1009C00023F00203C2F80C3C704700B583B00A4B19
:1009D0009B888DF8073001220DF10701084800F0CF
:1009E00011F8064AD2F80C3C23F00203C2F80C3C82
:1009F00003B05DF804FB00BF003801400000014077
:100A0000000000202DE9F041844646688468C368F0
:100A10003344181B904228BF1046731E2340F61A19
:100A2000864228BF0646AEB101F1FF3E0EEB060836
:100A3000C1F10107DCF80430013BDCF80820134069
:100A400007EB0E021344DCF800401EF8015FE5548A
:100A5000C645EFD1821B0CD031440A440B46A3EBB0
:100A6000010E13F8014BDCF8005005F80E409342DC
:100A7000F5D1DCF808300344CCF80830BDE8F0814B
:100A80001400002000010000000000000000000031
:0400000508000000EF
:00000001FF
