:020000040100F9
:1010000000000120011100014915000157150001E0
:101010006515000173150001811500010000000035
:101020000000000000000000000000008F1500011B
:101030009D15000100000000AB150001B91500016D
:1010400049130001C7150001D5150001E315000182
:10105000F115000101140001D5140001FF15000174
:101060000D1600011B16000129160001371600019C
:101070004516000153160001A513000100000000F1
:101080000000000000000000000000000000000060
:101090000000000000000000000000000000000050
:1010A0000000000000000000000000000000000040
:1010B0000000000000000000000000000000000030
:1010C0000000000000000000000000000000000020
:1010D0000000000000000000000000000000000010
:1010E0000000000000000000000000000000000000
:1010F00000000000000000000000000000000000F0
:1011000080B582B000AF164B7B60164B3B60164B30
:10111000164A9A607A683B689A420ED009E07B686A
:101120001A683B681A607B6804337B603B68043351
:101130003B603B680E4A9342F1D30E4B3B6005E0A7
:101140003B6800221A603B6804333B603B680A4AF4
:101150009342F5D300F052FC00BF0837BD4680BD76
:10116000801C00010000002000ED00E000100001E4
:1011700010040020100400207004002080B483B00C
:1011800000AF0346FB71FB7903F01F03012202FA53
:1011900003F1064A97F907305B09603342F82310E0
:1011A00000BF0C37BD465DF8047B704700E100E0EE
:1011B00080B400AF044BDB681B0A03F0070318463A
:1011C000BD465DF8047B704700ED00E080B489B057
:1011D00000AFF860B9607A60FB6803F00703FB6159
:1011E000FB69C3F10703032B28BF0323BB61FB6922
:1011F0000333062B02D9FB69043B00E000237B612B
:101200000122BB6902FA03F3013B1A46BB681A408C
:101210007B699A4001217B6901FA03F3013B19467E
:101220007B680B40134318462437BD465DF8047BAA
:101230007047000080B483B000AF03463960FB7193
:1012400097F90730002B0BDA3B68DAB20C49FB79CF
:1012500003F00F03043B5201D2B20B441A7609E0AB
:101260003B68DAB2074997F907305201D2B20B4412
:1012700083F8002300BF0C37BD465DF8047B704740
:1012800000ED00E000E100E080B483B000AF034671
:10129000FB71FB7903F01F03012202FA03F1064AF6
:1012A00097F907305B0942F8231000BF0C37BD46A1
:1012B0005DF8047B704700BF00E100E080B485B0BA
:1012C00000AF78607B6803F00703FB600C4BDB68C2
:1012D000BB60BA684FF6FF031340BB60FB681A029D
:1012E000BB68134343F0BF6343F40033BB60044A5D
:1012F000BB68D36000BF1437BD465DF8047B704700
:1013000000ED00E080B586B000AF0346B9607A60BA
:10131000FB730620FFF7D2FFFFF74AFF78617A6878
:10132000B9687869FFF752FF386197F90F3039696A
:101330001846FFF77FFF97F90F301846FFF7A4FF15
:1013400000BF1837BD4680BD80B500AF7721134878
:1013500000F0F9FB124BD3F8F03203F00103002B3D
:1013600007D088210D4800F0EEFB0D4B0122C3F899
:1013700040230B4BD3F8083303F00103002B07D0B5
:101380009921064800F0DFFB054B0122C3F85823E2
:101390000020FFF7F3FE00BF80BD00BF00600140EA
:1013A0000008004080B500AF134B1B69124A23F0C0
:1013B00001031361104B1B6903F00103002B03D0E1
:1013C0000D4B11221A6002E00B4B00221A600A4BEF
:1013D000AB221A6041F2883000F064FA074BD3F870
:1013E0000C38064B4FF6FF72C3F80C280E20FFF79F
:1013F000C5FE00BF80BD00BF0060014000D00140BD
:1014000080B582B000AF314B9B6803F00F030C2B0B
:1014100054D801A252F823F07314000155140001AE
:101420005F140001BD1400014D140001BD14000142
:101430008F140001AB140001BD140001BD140001A4
:10144000BD140001BD140001B51400011F4B46225C
:101450001A6037E001211E4800F044FA32E01B4BCD
:1014600047221A60194B5B68184A23F00203536045
:1014700028E04821154800F066FB144B9B693B604F
:101480003B68DBB21946114800F05DFB1AE04921C8
:101490000E4800F058FB0D4B5B697B607B68DBB24C
:1014A00019460A4800F04FFB0CE05021074800F0B5
:1014B0004AFB07E0054B51221A6003E0034B52221E
:1014C0001A6000BF00BF0837BD4680BD0060014004
:1014D0000004002080B582B000AF194B9B6803F078
:1014E0000F03042B02D00C2B11D021E0154B372217
:1014F0001A6005E0124B1B68FB71124AFB791360FE
:101500000F4800F00DFB0346002BF3D114E00D4B08
:1015100038221A6005E00A4B1B68FB71094AFB7907
:101520001360074800F0FCFA0346002BF3D103E0F8
:10153000044B99221A6000BF00BF0837BD4680BD2A
:10154000007001400060014080B400AF00BFBD46A4
:101550005DF8047B704780B400AF00BFBD465DF806
:10156000047B704780B400AF00BFBD465DF8047BCC
:10157000704780B400AF00BFBD465DF8047B704784
:1015800080B400AF00BFBD465DF8047B704780B4F7
:1015900000AF00BFBD465DF8047B704780B400AF6C
:1015A00000BFBD465DF8047B704780B400AF00BF4C
:1015B000BD465DF8047B704780B400AF00BFBD46F8
:1015C0005DF8047B704780B400AF00BFBD465DF896
:1015D000047B704780B400AF00BFBD465DF8047B5C
:1015E000704780B400AF00BFBD465DF8047B704714
:1015F00080B400AF00BFBD465DF8047B704780B487
:1016000000AF00BFBD465DF8047B704780B400AFFB
:1016100000BFBD465DF8047B704780B400AF00BFDB
:10162000BD465DF8047B704780B400AF00BFBD4687
:101630005DF8047B704780B400AF00BFBD465DF825
:10164000047B704780B400AF00BFBD465DF8047BEB
:10165000704780B400AF00BFBD465DF8047B7047A3
:1016600080B500AF5C4B9B685B4A43F000539360CE
:10167000594B5B69584A23F000535361564B1B6921
:10168000554A43F000531361534B5B69524A43F090
:1016900000535361514B4FF48072C3F8A0234F4B5A
:1016A000D3F8A03303F00103002B03D032214C48C0
:1016B00000F049FA494B0122C3F83823474B012275
:1016C000C3F84023454B0122C3F84823434B012272
:1016D000C3F85023414B0122C3F858233F4B404AE3
:1016E0001A603E4B3F4A9A603B4B9B6B23F01F03B3
:1016F000394A43F003039363384BDB69374A23F4D9
:101700007F6323F00F03D361344BDB69334A43F427
:101710008063D361314B9B69304B00229A612F4B20
:101720009A692E49304B13438B612C4B1B6C2B4B0E
:1017300000221A64294B294A1B6C1364274B1B692E
:10174000264A03F003031361244B1A69274B23F045
:101750000303224913430B61204B1B6C1F4A23F0E8
:10176000804313641D4B1B6C1C4A23F0004313641D
:101770001A4B9B69194A43F080539361174B9B693D
:10178000164A43F000639361144BDB69134A43F438
:101790008053D361114B0122C3F898230F4B0122D0
:1017A000C3F840230D4B0122C3F858230B4B9B6910
:1017B0000A4A43F001039361084B40F20112C3F857
:1017C0001823064B40F20112C3F83023332104489A
:1017D00000F0B9F900BF80BD00F0014000080040F2
:1017E00000600140000000200104200010040020DF
:1017F00080B500AF5521074800F0A5F9064BD3F896
:10180000A033054A43F4807343F00103C2F8A033C8
:1018100000BF80BD006001400008004080B485B07A
:1018200000AFF860B9607A603B607A68FB681A6064
:101830003A68FB685A600F4B1B6903F00302FB68B0
:101840009A60FB689A68BB6823F003031A43FB683D
:101850009A60084B9A69FB68DA603A8BFB681A61F8
:10186000FB6800225A6100BF1437BD465DF8047B57
:10187000704700BF0008004080B582B002AF4FF44F
:1018800080630093044B054A05490548FFF7C6FFEE
:1018900000BFBD4680BD00BF0000002000600140C9
:1018A0001004002080B483B000AF78600B4B062298
:1018B0009A600B4B1B6B7A6802FB03F3074A643395
:1018C0001360064B9B68054A43F00103936000BF19
:1018D0000C37BD465DF8047B704700BF0030014007
:1018E00000F0014080B582B000AF78600B467B808D
:1018F0007A887B6859687B689B68C91A7B68DB6853
:101900000B44934228BF13467B807B88002B03D176
:10191000EE21084800F017F9064B53221A607B6845
:101920009A687B881A447B689A607B8818460837D7
:10193000BD4680BD0060014080B487B000AFF86054
:10194000B9601346FB80FA88FB689968FB68DB681E
:10195000CB1A934228BF1346FB80FA88FB6859686C
:10196000FB68D868FB685B68013B0340CB1A934275
:1019700028BF1346BB820023FB8212E0FB681A6873
:10198000FB68D968FB685B68013B1940FB8A0B4424
:101990001A44FB8AB9680B4412781A70FB8A013327
:1019A000FB82FA8ABB8A9A42E8D3FA88BB8A9A42B7
:1019B00016D90023FB820DE0FB681A68FB8A1A44E3
:1019C000B98AFB8A0B44B9680B4412781A70FB8AF7
:1019D0000133FB82FA8AF988BB8ACB1A9A42EBDB85
:1019E000FB68DA68FB881A44FB68DA60FB881846F3
:1019F0001C37BD465DF8047B7047000080B5ADF52F
:101A0000816D00AF00F06AF8314800F0B3F80122B0
:101A100000210520FFF776FCFFF722FE01220121BD
:101A20000020FFF76FFCFFF727FF4421284800F054
:101A30008AF8FFF7DDFE6621254800F084F840F6BD
:101A4000B830FFF72FFF0023A7F80234214B5B6863
:101A5000632BFBD8204B9B689AB21F4BDB689BB271
:101A6000D31AA7F80234B7F80234002B2BD0B7F8FA
:101A700002243B4619461848FFF75EFF0346A7F8C5
:101A800002340023C7F8043410E007F58163A3F59E
:101A90008162D7F8043413441B7819460C4800F0CF
:101AA00052F8D7F804340133C7F80434B7F80234D5
:101AB000D7F804249A42E8D3B7F80234DBB21946C7
:101AC000034800F040F84FF4FA70FFF7EBFEBDE773
:101AD00000600140003001400004002080B400AFED
:101AE0000C4B5A680B490C4B13434B60094BDB689A
:101AF000084A43F4601343F00303D360054B1A68AC
:101B00000449064B13430B6000BFBD465DF8047BE0
:101B1000704700BF00F00140030031045A390F2024
:101B200080B483B000AF78607B68DB6F03F008039C
:101B3000002B01D0012300E0002318460C37BD46DE
:101B40005DF8047B704780B483B000AF78600B46CB
:101B5000FB7000BF7B68DB6F03F00103002BF9D142
:101B6000FA787B681A6000BF0C37BD465DF8047BCD
:101B70007047000080B586B000AF78604FF4E13365
:101B80007B613B4B3B4A1A607B68DB6823F0800239
:101B90007B68DA607B68D3F8983023F001027B68B9
:101BA000C3F898207B68D3F8943043F001027B6837
:101BB000C3F894207B680022C3F89C207B68022233
:101BC000C3F8A0207B68D3F8983043F001027B680B
:101BD000C3F89820284B1B6B4FF47A7202FB03F377
:101BE0003B617B68DB6843F080027B68DA603B69BD
:101BF0001A097B695B081A447B69B2FBF3F3FB604B
:101C0000FB68DAB27B681A60FB681B0ADAB27B6891
:101C10005A607B68DB6823F080027B68DA607B684F
:101C20000322DA607B68D3F8983043F001027B68C6
:101C3000C3F898207B681B6923F020027B681A6137
:101C400011210E48FFF77FFF22210C48FFF77BFF91
:101C50007B68DB6823F080027B68DA607B685B6806
:101C600043F001027B685A6000BF1837BD4680BD53
:101C700080D101405055555500F0014000600140B1
:101C800011111111110000000000000000000000FF
:101C90000000000000000000000000000000000044
:101CA0000000000000000000000000000000000034
:101CB0000000000000000000000000000000000024
:101CC0000000000000000000000000000000000014
:10208000000000200004000000000000000000002C
:0400000501001000E6
:00000001FF
