:020000040800F2
:100000000000012005040008790400087B040008B2
:100010007D0400087F04000881040008000000003F
:100020000000000000000000000000008304000841
:100030008504000800000000870400088904000807
:100040008B0400088D0400088F0400089104000848
:100050009304000895040008290A00089704000882
:10006000990400089B0400089D0400089F040008F0
:10007000A1040008A30400085D0C0008A504000802
:10008000E1090008A7040008A9040008AB0400085F
:10009000AD040008AF040008B1040008B304000870
:1000A000B5040008B7040008B9040008BB04000840
:1000B000BD040008BF040008C1040008C304000810
:1000C000C5040008C7040008C9040008CB040008E0
:1000D000CD040008610A00080000000000000000D4
:1000E0000000000000000000000000000000000010
:1000F0000000000000000000000000000000000000
:1001000000000000000000000000000000000000EF
:1001100000000000000000000000000000000000DF
:100400000000000008B5154A154B9A4211D01A4653
:10041000144B9A420DD2114A114B1348C01A20F0C6
:1004200003000430184452F8041B43F8041B8342B1
:10043000F9D10E4A0E4B9A420BD213460D4AD21AEC
:1004400022F0030204321A44002143F8041B9A42AA
:10045000FBD100F02FFB00F0DDFB08BDC80C00084D
:1004600000000020300000202F000020300000207D
:10047000300100202F0100207047704770477047FF
:1004800070477047704770477047704770477047B4
:1004900070477047704770477047704770477047A4
:1004A0007047704770477047704770477047704794
:1004B0007047704770477047704770477047704784
:1004C000704770477047704770477047704700002B
:1004D0002A4B9A6942F004029A619A6942F4804276
:1004E0009A61A3F58833D3F8042822F0F002C3F808
:1004F0000428D3F8042822F47062C3F80428D3F83F
:10050000042842F0B002C3F80428D3F8042842F4C7
:100510008062C3F8042803F560531A8A22F440521B
:100520001204120C1A821A8A92B21A829A8992B210
:1005300022F4B05222F00C0292B29A819A8992B2BD
:100540009A819A8992B29A819A8992B242F008026B
:100550009A819A8992B242F004029A819A8A22F48C
:1005600040721204120C9A8240F271221A819A8906
:1005700092B242F400529A81704700BF00100240CC
:10058000034B98801A46138813F0800FFBD07047F6
:10059000003801402DE9F04106460F469046A22062
:1005A000FFF7EEFF7368B268F5681D44AC1A444566
:1005B00028BF4446591E11405D1AA846A54228BFCF
:1005C000A046336842461944384600F0B9F8A542BF
:1005D0000CD2094D284600F025F90028FAD1A4EBE9
:1005E0000802316807EB080000F0AAF8B36823445A
:1005F000B3602046BDE8F0816C0002402DE9F8436D
:1006000004460F46C068A1680D1A954228BF1546DA
:100610006668731E0340F61AB046AE4228BFA8466D
:10062000B8F1000F10D0DFF85890484600F0FAF803
:100630000028FAD160680138E36818402368424610
:100640003946184400F07CF8AE420CD20C4E3046CD
:1006500000F0E8F80028FAD1A5EB080207EB080142
:10066000206800F06DF8E3682B44E360A2689342D1
:1006700002D02846BDE8F8830023E360A360F8E7D2
:100680006C0002402DE9F041844646688468C368E6
:100690003344181B904228BF1046731E2340F61A9D
:1006A000864228BF0646AEB101F1FF3E0EEB0608BA
:1006B000C1F10107DCF80430013BDCF808201340ED
:1006C00007EB0E021344DCF800401EF8015FE5540E
:1006D000C645EFD1821B0CD031440A440B46A3EB34
:1006E000010E13F8014BDCF8005005F80E40934260
:1006F000F5D1DCF808300344CCF80830BDE8F081CF
:1007000010B4026822F4FF4222F070028B680C6A77
:1007100023430C6923434C6923438C692343CC69ED
:1007200023434C6A23438C6A234313430360CB68FF
:1007300043600B6883604B68C36010BC7047000067
:1007400010B58CB0184C636943F00103636100235A
:100750000393019002914021059107938021069116
:10076000089304924FF480420B9209934FF4005384
:100770000A9301A90D48FFF7C3FFA4F580544FF475
:100780000013636001221146102000F0CFF8E36EE1
:1007900043F00203E366AA20FFF7F2FEE36E43F0A4
:1007A0000103E3660CB010BD001002406C00024073
:1007B00010B58CB004467720FFF7E2FE154A536966
:1007C00043F0010353610294134B019310230393ED
:1007D0000023089380220692079305932022049217
:1007E00009934FF400520A920B9301A90B48FFF7AB
:1007F00087FF012211460E2000F098F8084B5A6C32
:1008000042F002025A645A6C42F001025A640CB07F
:1008100010BD00BF001002400438014044000240F7
:1008200000000240006800F0010070471E4A936912
:1008300043F0080393611D4BD3F8002C22F00F0204
:10084000C3F8002CD3F8002C42F00102C3F8002CAE
:10085000D3F8002C22F0F002C3F8002CD3F8002CBF
:1008600042F01002C3F8002CD3F8002C22F47002DE
:10087000C3F8002CD3F8002C42F48012C3F8002CEB
:10088000D3F80C2C42F00102C3F80C2CD3F80C2C3A
:1008900042F02002C3F80C2CD3F80C2C42F00202D8
:1008A000C3F80C2C704700BF00100240000001404C
:1008B000094A936943F004039361084BD3F8002875
:1008C00022F00F02C3F80028D3F8002842F00402F7
:1008D000C3F80028704700BF00100240000001402C
:1008E000104BDA68D243C2F30222C2F1040143780A
:1008F00003FA01F183784FF00F0C2CFA02F2134047
:100900000B4302781B01DBB207490A4482F800332B
:100910000378580903F01F03012202FA03F341F898
:100920002030704700ED00E000E100E010B582B03B
:10093000064B074CDC608DF804008DF805108DF82F
:10094000062001A8FFF7CCFF02B010BD00ED00E0CB
:100950000005FA0508B5FFF7ABFF174A936943F0A6
:1009600001039361012200210620FFF7DFFF134BF3
:100970009A6822F00F029A609A689A60104A116889
:1009800021F001011160516821F001015160D3F89B
:10099000001441F00101C3F80014916821F0010135
:1009A0009160D16821F00101D160D3F8082442F0B0
:1009B0000102C3F8082408BD0010024000000140F5
:1009C00000040140054B1A685B69034204D00242EF
:1009D00014BF012000207047002070470004014030
:1009E00008B5A320FFF7CCFD0E4B1B6813F4801F46
:1009F00009D00C4B1B6813F4001F05D1094A53683A
:100A000043F48013536008BDA420FFF7B9FD054BE4
:100A1000DA6E22F00102DA665A6842F400125A6075
:100A2000ECE700BF0000024000B583B00120FFF7F3
:100A3000C9FF10B903B05DF804FB01220DF10701F5
:100A40000548FFF7DBFD9DF80700FFF799FD034B15
:100A500001225A61EEE700BF20000020000401409F
:100A6000114B1B8813F0200F07D1104AD2F80C3C11
:100A700023F00203C2F80C3C704700B583B00A4B68
:100A80009B888DF8073001220DF107010848FFF718
:100A9000F9FD064AD2F80C3C23F00203C2F80C3CE4
:100AA00003B05DF804FB00BF0038014000000140C6
:100AB0002000002082B000230193009303F18043C3
:100AC00003F504331A6842F001021A6059684E4A6D
:100AD0000A405A601A6822F0847222F480321A6046
:100AE0001A6822F480221A605A6822F4FE025A60C0
:100AF0004FF41F029A601A6822F480321A601A6852
:100B000022F480221A601A6842F480321A601A466F
:100B10004FF6FF71136803F400330093019B013318
:100B20000193009B13B9019B8B42F3D1009B002BD7
:100B300068D0364B1A6842F010021A601A6822F028
:100B400003021A601A6842F002021A60A3F5805389
:100B50005A6822F400325A605A6822F0F0025A6051
:100B60005A685A605A6822F460525A605A685A6049
:100B70005A6822F4E0625A605A6842F480625A600D
:100B80001A6822F080721A605A6822F47C125A6045
:100B90005A6822F400325A605A6842F480325A602D
:100BA0005A6842F4E0125A601A6842F080721A6081
:100BB000002301930093164A136803F00073009317
:100BC000019B01330193009B13B9019BFF2BF3D1D0
:100BD0000F4B5A6822F003025A605A6842F0020230
:100BE0005A60002301930093094A536803F00C03F1
:100BF0000093019B01330193009B062B02D0019BC4
:100C00000F2BF2D102B070470000FFF0002002402D
:100C10000010024000B583B0FFF708FEFFF758FC54
:100C20001120FFF7ADFCFFF795FE0A4CA1260A4DF7
:100C3000238813F0200FFBD0A3888DF807303046AF
:100C4000FFF79EFC01220DF107012846FFF7A2FCE9
:100C5000EEE700BF003801402000002010B5174C1F
:100C6000636C23F001036364154A938A23F08003C5
:100C70001B041B0C93825520FFF782FC236813F49E
:100C8000805F08D0236813F4005F0BD10B4A5368D0
:100C900043F4805353600A4A938A9BB243F0800323
:100CA000938210BD0748FFF783FD6620FFF768FCBD
:100CB000636843F400536360E8E700BF000002404C
:080CC000003801400000002093
:100CC800000000000000000000000000000000001C
:100CD80000000000000000000102030405060708E8
:100CE80030000020000100000000000000000000AB
:0400000508000000EF
:00000001FF
