:020000040100F9
:1010000018800020E9180001991600019B160001C4
:101010009F160001A3160001A716000100000000A2
:10102000000000000000000000000000AB160001FE
:10103000AD16000100000000AF160001B11600015E
:101040000F1900010F1900010F1900010F190001FC
:101050000F1900010F1900010F1900010F190001EC
:101060000F1900010F1900010F1900010F190001DC
:101070000F190001BB160001E1160001071700015E
:101080000F1900010F1900010F1900010F190001BC
:101090000F1900010F1900010F1900010F190001AC
:1010A0000F1900012D1700010F1900010F19000180
:1010B000000000000F190001000000000000000007
:1010C0000F1900010F190001000000000F190001A5
:1010D0000F19000153170001791700010F190001C2
:1010E0000F190001000000000F19000100000000AE
:1010F00000000000000000000F1900010F1900019E
:10110000000000000F1900010F1900010F19000164
:10111000DFF80CD001F02CFF004800473912000125
:101120001880002072B600BF00BF00BF00BF30BFF4
:1011300000BF00BF00BF00BF62B6704710B5BAA0C5
:1011400001F048FFC3A001F045FFC9A001F042FF34
:10115000CEA001F03FFFD4A001F03CFFD9A001F0E8
:1011600039FFDFA001F036FFE4A001F033FFE9A072
:1011700001F030FFEEA001F02DFFF4A001F02AFFF6
:10118000A9A001F027FF10BD10B50024F84800F019
:10119000FCFD10F0010F03D0F54800F06FFD044690
:1011A000204610BD1FB504200246F24B19684FF6C9
:1011B000FF031940F04B0B4343EA0221ED4B19604A
:1011C00000BF0D20009000200190029001208DF8BA
:1011D0000C00684600F0B8FB0E200090684600F056
:1011E000B3FB0F200090684600F0AEFB1920009082
:1011F000684600F0A9FB25200090684600F0A4FB9B
:1012000026200090684600F09FFB684600F09CFB9B
:101210001FBD1FB501220321D84800F0DBFE4FF4AB
:10122000E130009003200190002002900390694675
:10123000CF4800F0A4FC1FBD0121D14801F0BFFB45
:101240000121084601F00AFCFFF7E3FFFFF7AAFFC0
:10125000CCA001F0BFFEFFF771FF0120D14908606B
:10126000C7E00024FFF790FF0446002CF8D0512C73
:1012700074D010DC332C51D006DC302C1AD0312C39
:101280002CD0322C6BD139E0342C57D0352C68D08F
:10129000502CF7D179E0712C73D006DC522C71D030
:1012A000532C70D0702CEDD170E0722C6CD0732C5C
:1012B000E8D18EE0BCA001F08DFE01F0CBFA002059
:1012C000B849086002224FF6FF71AC4800F082FE78
:1012D00001220321A94800F07DFE89E0B7A001F0BA
:1012E00079FE01F0B7FA0120AE49086002224FF6FC
:1012F000FF71A248103000F06DFE79E0B4A001F05B
:1013000069FE01F0A7FA0220A649086002224FF602
:10131000FF719A48203000F05DFE69E0B1A001F055
:1013200059FE01F097FA03209E49086002224FF609
:10133000FF719248303000F04DFE59E0AEA001F050
:1013400049FE01F087FA04209649086002224FF610
:10135000FF718A48403000F03DFE49E022E044E061
:10136000FFE7AAA001F036FE01F074FA05208D49CE
:10137000086002224FF6FF718048503000F02AFECC
:1013800036E00EE01AE025E017E000BFA4A001F06F
:1013900021FE00224FF6FF718248006801F069FAD1
:1013A00026E000BFA4A001F015FE01224FF6FF7158
:1013B0007C48006801F05DFA1AE000BFA5A001F0CA
:1013C00009FE02224FF6FF717648006801F051FADB
:1013D0000EE000BFA6A001F0FDFD03224FF6FF7155
:1013E0007048006801F045FA02E0FFF7A7FE00BF71
:1013F00000BF36E710B5044600BF5D4800F0FBFCB7
:101400000028FAD0E1B25A4800F036FC204610BD60
:1014100070B504460D460A2C02D10D20FFF7EAFFF5
:101420002046FFF7E7FF70BD3D3D3D3D3D3D3D3D65
:101430003D3D3D3D3D3D3D3D3D3D3D3D3D3D3D3DDC
:101440003D3D3D3D3D3D3D3D3D3D3D3D3D3D3D3DCC
:101450003D0A0000303A204750494F4120496E7400
:101460006572727570742074657374210A000000CF
:10147000313A204750494F4220496E746572727567
:1014800070742074657374210A000000323A20479A
:1014900050494F4320496E746572727570742074A0
:1014A000657374210A000000333A204750494F44C5
:1014B00020496E746572727570742074657374213E
:1014C0000A000000343A204750494F4520496E74C5
:1014D0006572727570742074657374210A0000005F
:1014E000353A204750494F4620496E7465727275EF
:1014F00070742074657374210A000000503A73659B
:101500007420455854495F547269676765725F4F2C
:1015100066660A00513A73657420455854495F5411
:101520007269676765725F526973696E670A000066
:10153000523A73657420455854495F54726967671D
:1015400065725F46616C6C696E670A00533A736539
:101550007420455854495F547269676765725F52D9
:101560006973696E675F46616C6C696E670A00003B
:10157000006001400CED00E00000FA0500D00140E1
:10158000010010004D65676148756E74205343502B
:1015900055204750494F2044656D6F2056312E30FD
:1015A0002E0D0A0000000020544553542047504996
:1015B0004F412045585449210A00000054455354D6
:1015C000204750494F422045585449210A00000005
:1015D00054455354204750494F43204558544921BE
:1015E0000A00000054455354204750494F442045B9
:1015F000585449210A00000054455354204750498B
:101600004F452045585449210A0000005445535481
:10161000204750494F462045585449210A000000B0
:101620000A73657420455854495F54726967676549
:10163000725F4F66660A00000A736574204558544D
:10164000495F547269676765725F526973696E6753
:101650000A0000000A73657420455854495F5472AB
:1016600069676765725F46616C6C696E670A000046
:101670000A73657420455854495F547269676765F9
:10168000725F526973696E675F46616C6C696E6701
:101690000A00000000BFFEE7704700BFFEE700BF82
:1016A000FEE700BFFEE700BFFEE7704770477047E8
:1016B00010B53FA001F08EFC10BD10B541A001F0A7
:1016C00089FC002001F02AF90446214643A001F0DC
:1016D00081FC002001F028F90D2000F060F810BD19
:1016E00010B544A001F076FC012001F017F9044682
:1016F000214646A001F06EFC012001F015F90E20F4
:1017000000F04DF810BD10B546A001F063FC0220BA
:1017100001F004F90446214648A001F05BFC0220D8
:1017200001F002F90F2000F03AF810BD10B549A001
:1017300001F050FC032001F0F1F8044621464BA0D3
:1017400001F048FC032001F0EFF8192000F027F821
:1017500010BD10B54BA001F03DFC042001F0DEF8F7
:10176000044621464DA001F035FC042001F0DCF8D0
:10177000252000F014F810BD10B54EA001F02AFC91
:10178000052001F0CBF80446214650A001F022FCD0
:10179000052001F0C9F8262000F001F810BD00F086
:1017A0001F02012191404F4A430942F8231070471C
:1017B0005379735469636B5F48616E646C65720D35
:1017C0000A00000045585449305F49525148616E43
:1017D000646C657220496E0A000000004558544947
:1017E000305F4750494F5F537461747573202530E3
:1017F00038580A0045585449315F49525148616E82
:10180000646C657220496E0A000000004558544916
:10181000315F4750494F5F537461747573202530B1
:1018200038580A0045585449325F49525148616E50
:10183000646C657220496E0A0000000045585449E6
:10184000325F4750494F5F53746174757320253080
:1018500038580A0045585449335F49525148616E1F
:10186000646C657220496E0A0000000045585449B6
:10187000335F4750494F5F5374617475732025304F
:1018800038580A0045585449345F49525148616EEE
:10189000646C657220496E0A000000004558544986
:1018A000345F4750494F5F5374617475732025301E
:1018B00038580A0045585449355F49525148616EBD
:1018C000646C657220496E0A000000004558544956
:1018D000355F4750494F5F537461747573202530ED
:1018E00038580A0080E200E009480A4908600068A8
:1018F000854609488047094800470000FEE7FEE7A3
:10190000FEE7FEE7FEE7FEE7FEE7FEE7FEE7FEE7AF
:101910000010000108ED00E0CD2E000111110001C2
:1019200010B50446072C05D0062C03D0052C01D099
:10193000042C00D103E01D2164A0FFF7ABFE70482A
:1019400020437049086010BD2DE9F0470446207B14
:1019500010B1207B012800D103E02F215BA0FFF70D
:1019600099FE6068102800D203E0302157A0FFF7ED
:1019700091FEA068102800D203E0312153A0FFF7A8
:1019800089FE207B002856D000BF5E480068C0F367
:10199000022005462846D4E901230146C1F1070883
:1019A000B8F1030F02D94FF0030801E0C1F10708B5
:1019B000C44601F10308B8F1070F02D24FF0000846
:1019C00001E0A1F1040847464FF0010808FA0CF8BD
:1019D000A8F1010808EA020808FA07F84FF001091F
:1019E00009FA07F9A9F1010909EA030948EA090610
:1019F00000BF227851B23046002908DA4207170E9C
:101A0000404A0C3201F00F031B1FD75403E042077A
:101A1000130E3D4A535400BF217848B200F01F0214
:101A20000121914042094FF0E02303EB8202C2F80A
:101A3000001100BF0BE0217848B200F01F02012125
:101A40009140324A430942F8231000BF00BFBDE86D
:101A5000F08770B504460D46B4F1005F02D0B4F1D2
:101A6000807F00D103E0512118A0FFF713FE284822
:101A7000854200D203E0522114A0FFF70BFE254956
:101A800005EA010020431F49091F086070BD10B519
:101A90000446042C01D0601D00D103E062210BA09C
:101AA000FFF7F8FD042C08D14FF0E020006940F06A
:101AB00004004FF0E021086107E04FF0E0200069EA
:101AC00020F004004FF0E021086110BD2E2E5C2EA6
:101AD0002E5C2E2E5C2E2E5C2E2E5C4C696272616A
:101AE000726965735C4D48534350555F4472697623
:101AF00065725C7372635C6D6973632E63000000D2
:101B00000000FA050CED00E000E400E080E100E0F8
:101B1000FFFF0F0080FFFF1F10B50446F848844206
:101B200008D0F848844205D0F748844202D0F748EC
:101B3000844200D103E01821F5A0FFF7ABFDF04887
:101B4000844204D10121084600F088FF16E0ED48E8
:101B5000844204D10121022000F080FF0EE0EA4817
:101B6000844204D10121042000F078FF06E0E74818
:101B7000844203D10121082000F070FF10BD7FB521
:101B800005460C46DE48854208D0DE48854205D031
:101B9000DD48854202D0DD48854200D103E03A218C
:101BA000DBA0FFF777FD206820B1E8492068884274
:101BB00000D203E03B21D6A0FFF76CFD606840B186
:101BC0006068012805D06068022802D06068032898
:101BD00000D103E03C21CEA0FFF75CFDA06848B136
:101BE000A068042801D1606820B1A068042802D14F
:101BF000606800B103E03D21C5A0FFF74BFDE06840
:101C000028B1E068182802D0E068082800D103E075
:101C10003E21BFA0FFF73EFD684601F02EF8E868C0
:101C200040F08000E86003980009216800EB510053
:101C3000B0FBF1F6F0B22860C6F307206860E868F0
:101C400020F08000E860D4E901010843E16808431E
:101C5000E8607FBD4FF4165101600321416000210F
:101C60008160C16070471AB143680B43436002E072
:101C700043688B43436070470160704701460868C2
:101C8000C0B2704721B1026942F02002026103E054
:101C9000026922F0200202617047016941F00101EE
:101CA00001617047016921F001010161704701691B
:101CB00041F0020101617047016921F002010161F7
:101CC00070470A6922B1426842F08002426003E034
:101CD000426822F080024260D0F8982052F001025F
:101CE00005D0D0F8982022F00102C0F898204A6868
:101CF00032B9D0F8942022F00102C0F8942008E014
:101D00004A68012A05D1D0F8942042F00102C0F8B7
:101D100094208A68C0F89C20CA68C0F8A0200A787D
:101D200032B1D0F8982042F00102C0F8982005E0C6
:101D3000D0F8982022F00102C0F8982070470021C6
:101D400001704160022181600321C16000210161B5
:101D500070470246002051F0010301D040F004001A
:101D600009B140F00200C2F88800704731B1D0F8E4
:101D7000982042F00102C0F8982005E0D0F89820A1
:101D800022F00102C0F89820704701464869704768
:101D9000014688697047014688687047014648696E
:101DA00010F0800F01D0012070470020FCE70146B1
:101DB000486910F0080F01D0012070470020FCE7AF
:101DC0000146486910F0040F01D00120704700203F
:101DD000FCE70146486910F0020F01D0012070476E
:101DE0000020FCE70146486910F0010F01D00120F6
:101DF00070470020FCE70146486910F0400F01D011
:101E0000012070470020FCE70146486910F0200FD0
:101E100001D0012070470020FCE70146486910F01E
:101E2000200F01D0012070470020FCE70146C86F59
:101E300010F0100F01D0012070470020FCE7014690
:101E4000C86F10F0080F01D0012070470020FCE798
:101E50000146C86F10F0040F01D001207047002028
:101E6000FCE70146C86F10F0020F01D00120704757
:101E70000020FCE70146C86F10F0010F01D00120DF
:101E800070470020FCE7D0F8A81041F00101C0F82D
:101E9000A810704731B1D0F8A42042F00102C0F878
:101EA000A42005E0D0F8A42022F00102C0F8A4206C
:101EB000704721B1026F42F00102026703E0026F36
:101EC00022F00102026770470146486FC0B27047B6
:101ED00070B504460D460DB1012D00D104E04FF45C
:101EE000F5710BA0FFF7D6FB25B1206940F040004B
:101EF000206103E0206900F04000206170BD000017
:101F00000060014000700140004004400050044067
:101F10002E2E5C2E2E5C2E2E5C2E2E5C2E2E5C4CDD
:101F200069627261726965735C4D48534350555FD5
:101F30004472697665725C7372635C6D687363701A
:101F4000755F756172742E630000000021AA440061
:101F5000D0F8901041F00101C0F8901070470000D7
:101F600030B587B004461822FE4901A800F0BCFF36
:101F7000FD48844213D0FC48103084420FD0FA4808
:101F8000203084420BD0F8483030844207D0F648E5
:101F90004030844203D0F4485030844200D103E002
:101FA0001B21F2A0FFF776FB002508E001A850F8FE
:101FB0002500A04202D1284607B030BD6D1C062D79
:101FC000F4DB4FF0FF30F7E710B50121080500F012
:101FD00045FD10BD2DE9F041064688461746E2480A
:101FE000864213D0E048103086420FD0DE482030C1
:101FF00086420BD0DC483030864207D0DA48403089
:10200000864203D0D8485030864200D104E040F2E6
:102010004F11D6A0FFF73EFB002018B9B8F1000F12
:1020200000D004E04FF4A871D0A0FFF733FB012FDC
:1020300005D0022F03D0032F01D0042F00D104E0DC
:1020400040F25111C9A0FFF725FB3046FFF788FF8A
:10205000044600253BE00120A84010EA080F35D0D7
:10206000D14850F824006A00032191408843CE49AA
:1020700041F82400012F06D0022F05D0032F0ED0E7
:10208000042F22D116E020E0C74850F824006A004F
:10209000012191400843C44941F8240015E0C24899
:1020A00050F824006A00022191400143BE4840F8E4
:1020B00024100AE0BC4850F824106A000320904025
:1020C0000143B94840F8241000BF00BF6D1C102D1B
:1020D000C1D3BDE8F08170B504460D464FF0FF3620
:1020E000A148844213D0A048103084420FD09E48AB
:1020F000203084420BD09C483030844207D09A482C
:102100004030844203D098485030844200D103E0EC
:102110003E2196A0FFF7BEFA2868000C000402D109
:10212000286800B103E03F2190A0FFF7B3FA2879B7
:1021300001280BD02879022808D02879032805D057
:102140002879052802D02879042800D103E040210D
:1021500086A0FFF79FFA6A79288881B22046FFF7A8
:1021600039FF6879022800D070BD2046FFF7F8FEDD
:1021700006462879062855D2DFE800F054030C15EE
:102180002A3FA06829680843A060E068296888435E
:10219000E06047E0A06829680843A060E06829681B
:1021A0000843E0603EE0A06829680843A060E0685A
:1021B00029688843E06020682968884320607B485C
:1021C00030F8160029880843784921F8160029E0DC
:1021D000A06829680843A060E06829680843E060B7
:1021E0002068296888432060704830F816002988E4
:1021F00008436E4921F8160014E0A0682968884356
:10220000A060E06829688843E06020682968084386
:102210002060664830F8160029688843634921F831
:10222000160000BF00BF00BF9EE74FF6FF710160C0
:10223000012101714171704770B505460C464A484D
:10224000854213D04848103085420FD04648203090
:1022500085420BD044483030854207D04248403058
:10226000854203D040485030854200D103E08D21A3
:102270003EA0FFF70FFA012C25D0022C23D0042C0E
:1022800021D0082C1FD0102C1DD0202C1BD0402C6E
:1022900019D0802C17D0B4F5807F14D0B4F5007F0E
:1022A00011D0B4F5806F0ED0B4F5006F0BD0B4F53B
:1022B000805F08D0B4F5005F05D0B4F5804F02D040
:1022C000B4F5004F00D103E08E2128A0FFF7E2F91A
:1022D000286814EA104F01D0012070BD0020FCE7EF
:1022E000014608684FF6FF7202EA1040704770B569
:1022F00005460C461C48854213D01B4810308542C9
:102300000FD01948203085420BD017483030854215
:1023100007D015484030854203D0134850308542DD
:1023200000D103E0AC2111A0FFF7B4F9012C4CD08F
:10233000022C4AD0042C48D0082C46D0102C44D073
:10234000202C42D0402C40D0802C3ED0B4F5807F51
:102350003BD0B4F5007F38D0B4F5806F35D0B4F5FC
:10236000006F25E07C34000100D001402E2E5C2E51
:102370002E5C2E2E5C2E2E5C2E2E5C4C69627261C1
:10238000726965735C4D48534350555F447269767A
:1023900065725C7372635C6D68736370755F6770A0
:1023A000696F2E630000000080D101400C00002006
:1023B0000BD0B4F5805F08D0B4F5005F05D0B4F55C
:1023C000804F02D0B4F5004F00D104E0AD21AFF250
:1023D0006400FFF75FF92868204201D0012070BD3A
:1023E0000020FCE70146086880B270472DE9F04103
:1023F00005460C464FF0FF3600274FF00008F8481E
:10240000854213D0F648103085420FD0F448203072
:1024100085420BD0F2483030854207D0F04840303A
:10242000854203D0EE485030854200D104E0CD21F2
:10243000AFF2C800FFF72EF9012C25D0022C23D0D3
:10244000042C21D0082C1FD0102C1DD0202C1BD0E8
:10245000402C19D0802C17D0B4F5807F14D0B4F55F
:10246000007F11D0B4F5806F0ED0B4F5006F0BD0A3
:10247000B4F5805F08D0B4F5005F05D0B4F5804FA7
:1024800002D0B4F5004F00D104E0CE21AFF2241009
:10249000FFF700F92846FFF763FD0646D14830F8FC
:1024A000160000EA0407CF4830F8160024EA0008B6
:1024B000CC4830F81600204203D0A8683843A86002
:1024C00001E0C5F80480BDE8F0812DE9F041054642
:1024D0000C464FF0FF3600274FF00008C0488542F9
:1024E00013D0BF48103085420FD0BD482030854200
:1024F0000BD0BB483030854207D0B94840308542C8
:1025000003D0B7485030854200D104E0EB21AFF250
:10251000A410FFF7BFF8012C25D0022C23D0042CE7
:1025200021D0082C1FD0102C1DD0202C1BD0402CCB
:1025300019D0802C17D0B4F5807F14D0B4F5007F6B
:1025400011D0B4F5806F0ED0B4F5006F0BD0B4F598
:10255000805F08D0B4F5005F05D0B4F5804F02D09D
:10256000B4F5004F00D104E0EC21AFF20020FFF7FA
:1025700091F82846FFF7F4FC06469A4830F8160012
:1025800000EA0407974830F8160024EA0008954846
:1025900030F81600204203D0A868B843A86002E0D3
:1025A0004FEA08406860BDE8F0812DE9F04104463B
:1025B0000E4600256F1E8A48844213D0884810308A
:1025C00084420FD08648203084420BD0844830307B
:1025D000844207D082484030844203D08048503043
:1025E000844200D105E040F20711AFF28020FFF7EE
:1025F00051F82046FFF7B4FC0746002526E079484D
:1026000030F817000121A94008420FD00120A8404E
:10261000304205D0A0680121A9400843A06014E021
:10262000A0680121A9408843A0600EE00120A840D5
:10263000304205D021680120A8400143216004E018
:1026400020680121A940884320606D1C102DD6D33D
:10265000BDE8F08170B504460D46164660488442D8
:1026600013D05F48103084420FD05D482030844240
:102670000BD05B483030844207D059484030844208
:1026800003D057485030844200D105E04FF4987190
:10269000AFF22830FEF7FEFF002008B905B105E0D3
:1026A00040F23111AFF23C30FEF7F4FF1EB1E068AA
:1026B0002843E06002E0E068A843E06070BD47F6B0
:1026C000010049490860704770B505460C4616463A
:1026D0004DB1012D07D0022D05D0032D03D0042DBF
:1026E00001D0052D00D105E04FF4C171AFF2843067
:1026F000FEF7D0FF200C000401D104B105E040F248
:102700008311AFF29830FEF7C5FF0EB1012E00D154
:1027100005E04FF4C271AFF2AC30FEF7BBFF76BB01
:10272000062D35D2DFE805F0030B131B232C2F48B1
:10273000006820EA04002A49C1F8240228E02B4856
:10274000006820EA04402649C1F8240220E0284815
:10275000006820EA04002249C1F8280218E0244851
:10276000006820EA04401E49C1F8280210E0214810
:10277000006820EA04001A49C1F82C0208E008E0C9
:102780001C48006820EA04401549C1F82C0200BF2B
:1027900043E0062D40D2DFE805F0030B131B2F3773
:1027A0001248006840EA04000D49C1F8240233E0F1
:1027B0000E48006840EA04400949C1F824022BE0B1
:1027C0000B48006840EA04000549C1F8280223E0EC
:1027D0000748006840EA04400149C1F828021BE0AC
:1027E00000D001400C00002020D2014024D2014042
:1027F00028D201402CD201401348006840EA04006E
:102800001249C1F82C0207E00F48006840EA044072
:102810000E49C1F82C0200BF00BF70BD10B50446C0
:102820000CB1012C00D105E04FF4E571AFF2C440CA
:10283000FEF730FF0648006820F0010040EA04007F
:102840000249C1F8200210BD2CD2014000D0014045
:1028500020D20140002009E00022374941F8302011
:102860004FF6FF7201EBC0014A60401C0628F3D30B
:1028700070472DE9F04104460F4615464CB1012C36
:1028800007D0022C05D0032C03D0042C01D0052C3A
:1028900000D103E0392129A0FEF7FCFE380C00042A
:1028A00001D107B103E03A2124A0FEF7F3FE2DB1D8
:1028B000012D03D0022D01D0032D00D103E03B21D7
:1028C0001EA0FEF7E7FE002618E00120B0403842C7
:1028D00013D0194850F83400720003219140884306
:1028E000154941F83400084650F83400710005FAE3
:1028F00001F10843104941F83400761C102EE4D34E
:10290000BDE8F0810020002105E01B4A52F821209B
:102910008A401043491C0629F7D3704701460648F0
:1029200000EBC100406870474FF6FF72024901EBAF
:10293000C0014A607047000000D801402E2E5C2E76
:102940002E5C2E2E5C2E2E5C2E2E5C4C69627261EB
:10295000726965735C4D48534350555F44726976A4
:1029600065725C7372635C6D68736370755F6578C4
:1029700074692E630000000014D1014070B5044654
:102980000D46F448044201D104B103E01F21F2A036
:10299000FEF780FE0DB1012D00D103E02021EEA055
:1029A000FEF778FE2DB1FB4880682043F949886026
:1029B00004E0F8488068A043F649886070BD70B5AF
:1029C00004460D46F448044201D104B103E050210D
:1029D000E1A0FEF75FFE0DB1012D00D103E0512112
:1029E000DDA0FEF757FE2DB1EA4840682043E949D3
:1029F000486004E0E7484068A043E649486070BD8D
:102A000070B504460D46E548044201D104B103E027
:102A10007121D1A0FEF73EFE0DB1012D00D103E0E2
:102A20007221CDA0FEF736FEDA48406904F070410D
:102A30008843D849486125B10846006920430861A8
:102A400004E0D4480069A043D2490861D1484069F4
:102A500004F070410843CF49486170BD70B5044629
:102A60000D46CD48044201D104B103E09F21BAA034
:102A7000FEF710FE0DB1012D00D103E0A021B6A09C
:102A8000FEF708FE2DB1C348C0682043C149C860A5
:102A900004E0C048C068A043BE49C86070BD70B5BE
:102AA0000446022C00DA03E0C521ABA0FEF7F2FDDC
:102AB0006CB9B848006820F0E060B649086000BF13
:102AC000B44800680028FBD0FEF72CFB13E0012C73
:102AD00011D1B048006820F0E06040F08070AD494E
:102AE0000860AF48C56845F47040AD49C860FEF75E
:102AF00019FBAB48C56070BD10B504460CB1012C84
:102B000000D103E0DE2194A0FEF7C4FD14B1012C36
:102B10000ED106E09F48006820F480509D4908606F
:102B200006E09C48006840F480509A49086000BF65
:102B300000BF10BD10B50446012C0FD0022C0DD0E3
:102B4000032C0BD0042C09D0052C07D0062C05D063
:102B5000072C03D0082C01D0092C00D103E0F2216E
:102B60007DA0FEF797FD0A2C57D2DFE804F0564D02
:102B7000443B322920170E058648006820F4F810DF
:102B800040F480108349086047E08248006820F4E0
:102B9000F81040F470207F4908603EE07D480068EE
:102BA00020F4F81040F460207A49086035E0794854
:102BB000006820F4F81040F45020764908602CE0BA
:102BC0007448006820F4F81040F44020714908600F
:102BD00023E07048006820F4F81040F430206D497C
:102BE00008601AE06B48006820F4F81040F42020D8
:102BF0006849086011E06748006820F4F81040F464
:102C000010206449086008E06248006820F4F81069
:102C100040F400205F49086000BF00BF10BD10B540
:102C200004461CB1012C01D0102C00D104E040F26C
:102C3000231149A0FEF72EFD24B1012C09D0102C40
:102C400019D10FE05348006820F4407051490860E2
:102C500011E05048006820F4407040F480704D4905
:102C6000086008E04B48006820F4407040F40070B1
:102C70004849086000BF00BF10BD4649096801F41B
:102C8000F811B1F5801F02D1464901604EE041497B
:102C9000096801F4F811B1F5702F02D142490160C1
:102CA00044E03C49096801F4F811B1F5602F02D104
:102CB0003E4901603AE03749096801F4F811B1F57D
:102CC000502F02D13A49016030E03249096801F4DD
:102CD000F811B1F5402F02D13649016026E02D49A7
:102CE000096801F4F811B1F5302F02D132490160C1
:102CF0001CE02849096801F4F811B1F5202F02D130
:102D00002E49016012E02349096801F4F811B1F578
:102D1000102F02D12A49016008E01E49096801F418
:102D2000F811B1F5002F01D1264901601949096850
:102D300011F4407F02D1016841604FE015490968F4
:102D400001F44071B1F5807F3ED1016849084160CE
:102D500044E00000D0FFFFCF2E2E5C2E2E5C2E2EE6
:102D60005C2E2E5C2E2E5C4C6962726172696573FA
:102D70005C4D48534350555F4472697665725C738D
:102D800072635C6D68736370755F7379736374727B
:102D90006C2E630000F00140F0984A13D0FFFF0F43
:102DA00000E0014000CB280C00B0710B0095BA0A7E
:102DB000007A030A005F4C09004495080029DE07E9
:102DC000000E270700F36F063B49096801F44071C4
:102DD000B1F5007F02D10168890841603649C96AAE
:102DE0004FF47A72514381603349096B5143C1609A
:102DF00070471FB504460CB1012C00D105E04FF41B
:102E00009F71AFF2AC00FEF745FC6846FFF735FF57
:102E100044B1012C18D12848006840F01000264920
:102E2000086011E025490198884206D822480068C8
:102E300020F010002049086005E01F48006840F0BD
:102E400010001D49086000BF00BF1FBD10B504463B
:102E5000012C01D0022C00D105E040F25B11AFF251
:102E60000810FEF717FC012C02D0022C0FD106E04F
:102E70001148006820F001000F49086007E00E4883
:102E8000006820F00100401C0B49086000BF00BF33
:102E900010BD10B5044601210820FFF76FFD102278
:102EA0000749204600F020F810BD10B50121C807E1
:102EB000FFF7A6FD10BD000000F00140806514067C
:102EC00004880040054806490860704705480068C6
:102ED00040F470000349086070470000006CDC0299
:102EE0000400002088ED00E040EA01039B0703D0C6
:102EF00009E008C9121F08C0042AFAD203E011F839
:102F0000013B00F8013B521EF9D270472DE9F05FFA
:102F10000546002092469B46884606468146402448
:102F20001BE0284641464746224600F042F85346F9
:102F30005A46C01A914110D311461846224600F055
:102F400029F82D1A67EB01084F462246012000217F
:102F500000F020F817EB00094E41201EA4F10104F7
:102F6000DFDC484631462A464346BDE8F09F000074
:102F7000064C074D06E0E06840F0010394E80700C6
:102F800098471034AC42F6D3FEF7C6F894340001EB
:102F9000B4340001202A04DB203A00FA02F10020B8
:102FA00070479140C2F1200320FA03F31943904087
:102FB0007047202A04DB203A21FA02F000217047F2
:102FC00021FA02F3D040C2F1200291400843194691
:102FD000704700000FB4054B10B503A9044A0298CE
:102FE00000F018F810BC5DF814FB0000111400018B
:102FF0000800002002E008C8121F08C1002AFAD108
:1030000070477047002001E001C1121F002AFBD168
:10301000704700002DE9FF4F8DB00F460546002692
:10302000E2E1252874D100246D1CF349A246A14693
:1030300001222B78203B02FA03F0084202D004431D
:103040006D1CF6E728782A2810D06FF02F02287818
:10305000A0F13001092915D80AEB8A0102EB4101E0
:1030600044F0020400EB010A6D1CF0E757F804ABD2
:10307000BAF1000F03DA44F40054CAF1000A44F034
:1030800002046D1C28782E2817D115F8010F44F082
:1030900004042A280ED06FF02F022878A0F1300106
:1030A00009290AD809EB890102EB410100EB01096A
:1030B0006D1CF2E757F8049B6D1C28786C280FD024
:1030C00006DC4C2817D068280DD06A2814D104E0FB
:1030D000742810D07A280FD10DE044F400140AE0CF
:1030E00044F4801401E044F440146978814202D130
:1030F0006D1C04F580146D1C2A786E2A20D00DDC1E
:10310000632A33D005DC002A6FD0582A12D1A4E0FC
:1031100011E0642A6AD0692A0CD167E0732A2FD0A3
:1031200004DC6F2A6FD0702A04D19BE0752A6BD023
:10313000782A6AD01046DDE90F129047761C52E1DA
:10314000C4F30250022806D003280AD0042801CF75
:103150000AD0066047E101CF4FEAE671C0E900619D
:1031600041E101CF06803EE106703CE117F8040B17
:103170008DF8000000208DF80100EB46012003E0EF
:1031800057F804BB4FF0FF3061074FF0000102D445
:103190000DE008F10101884649450FDA8045F8DB6A
:1031A0001BF808100029F4D108E008F10101884655
:1031B0008142FADB1BF808100029F6D1DDE90F2364
:1031C000AAEB08008146214600F03FF9304400EBAD
:1031D000080604E0DDE90F121BF8010B9047B8F177
:1031E0000108F7D221464846F8E001E10A21C4F37C
:1031F00002534FF0000B0891022B07D001CFC117EB
:10320000032B09D00AE036E023E024E0FF1D27F07D
:103210000707F7E8020105E000B2C117042B01D14E
:1032200040B2C117002907DA4FF0000CD0EB0C00B8
:103230006CEB01012D2302E0230504D52B238DF82F
:103240002430012303E0E30701D02023F7E7984669
:1032500052E00A2110E010210EE010204FF0000B88
:1032600008900CE010214FF0000B44F004044FF0E4
:103270000809089103E008214FF0000B0891C4F3FE
:103280000253022B04D001CF0021032B06D006E00D
:10329000FF1D27F00707F7E8020103E080B2042BC7
:1032A00000D1C0B24FF00008230725D5702A2AD0DC
:1032B000DDF820C08CF0100C5CEA0B0C09D150EA50
:1032C000010306D030238DF824308DF82520022309
:1032D0009846DDF820C08CF0080C5CEA0B0C0BD192
:1032E00050EA010301D1630706D530238DF824305D
:1032F0004FF00108A9F10109582A09D03FA20B9209
:1033000008AA0A9211E040238DF824300123DFE758
:103310003FA2F4E75B46089AFFF7F8FD0B9B9B5C26
:103320000A9AA2F101020A92137050EA0102F1D145
:103330000A98ADEB000000F1200B600702D524F4E1
:10334000803401E04FF00109D94502DDA9EB0B0003
:1033500000E0002000EB0B0141440890AAEB0100C3
:103360000B90E00306D4DDE90F2321460B9800F013
:103370006CF806444FF000090DF1240A07E0DDE97E
:103380000F121AF809009047761C09F10109C1458E
:10339000F5DBE0030CD5DDE90F2321460B9800F0A7
:1033A00054F8064404E0DDE90F1230209047761C03
:1033B0000899481E08900029F5DC08E00A980A9947
:1033C0000078491C0A91DDE90F129047761CBBF189
:1033D0000001ABF1010BF1DC0B982146DDE90F2375
:1033E00000F020F806446D1C287800287FF419AE00
:1033F00011B03046BDE8F08F09280100303132337A
:103400003435363738396162636465660000000020
:10341000303132333435363738394142434445460A
:10342000000000002DE9F041044600251E46174625
:10343000880405D406E039462020B04705F101058F
:10344000641EF8D52846BDE8F0812DE9F041044618
:1034500000251E469046C80301D5302700E02027EE
:10346000880405D506E041463846B04705F1010518
:10347000641EF8D52846BDE8F081000000D0014068
:1034800010D0014020D0014030D0014040D0014058
:1034900050D00140B4340001000000200C000000B6
:1034A000F42F0001C03400010C0000200C8000004B
:1034B0000430000100000000006CDC02000000008D
:0400000501001111D4
:00000001FF
