:020000040100F9
:10100000000001200111000199150001A715000140
:10101000B5150001C3150001D11500010000000045
:10102000000000000000000000000000DF150001CB
:10103000ED15000100000000FB150001091600017C
:10104000491300011716000125160001331600018F
:101050004116000131140001251500014F16000151
:101060005D1600016B16000179160001871600015C
:1010700095160001A3160001D51300010000000021
:101080000000000000000000000000000000000060
:101090000000000000000000000000000000000050
:1010A0000000000000000000000000000000000040
:1010B0000000000000000000000000000000000030
:1010C0000000000000000000000000000000000020
:1010D0000000000000000000000000000000000010
:1010E0000000000000000000000000000000000000
:1010F00000000000000000000000000000000000F0
:1011000080B582B000AF164B7B60164B3B60164B30
:10111000164A9A607A683B689A420ED009E07B686A
:101120001A683B681A607B6804337B603B68043351
:101130003B603B680E4A9342F1D30E4B3B6005E0A7
:101140003B6800221A603B6804333B603B680A4AF4
:101150009342F5D300F0F0FB00BF0837BD4680BDD9
:10116000481B00010000002000ED00E0001000011D
:1011700000040020000400206004002080B483B03C
:1011800000AF0346FB71FB7903F01F03012202FA53
:1011900003F1064A97F907305B09603342F82310E0
:1011A00000BF0C37BD465DF8047B704700E100E0EE
:1011B00080B400AF044BDB681B0A03F0070318463A
:1011C000BD465DF8047B704700ED00E080B489B057
:1011D00000AFF860B9607A60FB6803F00703FB6159
:1011E000FB69C3F10703032B28BF0323BB61FB6922
:1011F0000333062B02D9FB69043B00E000237B612B
:101200000122BB6902FA03F3013B1A46BB681A408C
:101210007B699A4001217B6901FA03F3013B19467E
:101220007B680B40134318462437BD465DF8047BAA
:101230007047000080B483B000AF03463960FB7193
:1012400097F90730002B0BDA3B68DAB20C49FB79CF
:1012500003F00F03043B5201D2B20B441A7609E0AB
:101260003B68DAB2074997F907305201D2B20B4412
:1012700083F8002300BF0C37BD465DF8047B704740
:1012800000ED00E000E100E080B483B000AF034671
:10129000FB71FB7903F01F03012202FA03F1064AF6
:1012A00097F907305B0942F8231000BF0C37BD46A1
:1012B0005DF8047B704700BF00E100E080B485B0BA
:1012C00000AF78607B6803F00703FB600C4BDB68C2
:1012D000BB60BA684FF6FF031340BB60FB681A029D
:1012E000BB68134343F0BF6343F40033BB60044A5D
:1012F000BB68D36000BF1437BD465DF8047B704700
:1013000000ED00E080B586B000AF0346B9607A60BA
:10131000FB730620FFF7D2FFFFF74AFF78617A6878
:10132000B9687869FFF752FF386197F90F3039696A
:101330001846FFF77FFF97F90F301846FFF7A4FF15
:1013400000BF1837BD4680BD80B582B000AF7721A1
:101350001C4800F068FB1C4BD3F8F03203F001038B
:10136000002B19D08821174800F05DFB00237B601B
:101370000BE0164A7B6852F82330DBB2194614485A
:1013800000F051FB7B6801337B607B68FF2BF0D959
:101390000D4B0122C3F840230B4BD3F8083303F065
:1013A0000103002B07D09921064800F03CFB064BB7
:1013B0000122C3F858230020FFF7E0FE00BF0837E2
:1013C000BD4680BD006001400008004000000020D4
:1013D0000070014080B500AF134B1B69124A23F027
:1013E00001031361104B1B6903F00103002B03D0B1
:1013F0000D4B11221A6002E00B4B00221A600A4BBF
:10140000AB221A6041F2883000F076FA074BD3F82D
:101410000C38064B4FF6FF72C3F80C280E20FFF76E
:10142000ADFE00BF80BD00BF0060014000D00140A4
:1014300080B584B000AF3A4B9B6803F00F030C2BD0
:1014400066D801A252F823F0A7140001111500017B
:1014500093140001111500017D1400011115000104
:10146000C3140001DF140001111500011115000162
:101470001115000111150001FB140001284B462233
:101480001A6000BF264800F0BBFA0346002BF9D1D2
:1014900042E0234B47221A60214B5B68204A23F02D
:1014A0000203536038E048211D4800F0BCFA1C4B91
:1014B0009B697B607B68DBB21946194800F0B3FA80
:1014C0002AE04921164800F0AEFA154B5B69BB6073
:1014D000BB68DBB21946124800F0A5FA1CE05021A7
:1014E0000F4800F0A0FA0E4BDB6FFB60FB68DBB22D
:1014F00019460B4800F097FA0EE0094B51221A608A
:1015000000BF074800F07CFA0346002BF9D103E046
:10151000034B52221A6000BF00BF1037BD4680BD8A
:101520000060014080B582B000AF194B9B6803F0AA
:101530000F03042B02D00C2B11D021E0154B3722C6
:101540001A6005E0124B1B68FB71124AFB791360AD
:101550000F4800F055FA0346002BF3D114E00D4B71
:1015600038221A6005E00A4B1B68FB71094AFB79B7
:101570001360074800F044FA0346002BF3D103E060
:10158000044B99221A6000BF00BF0837BD4680BDDA
:10159000007001400060014080B400AF00BFBD4654
:1015A0005DF8047B704780B400AF00BFBD465DF8B6
:1015B000047B704780B400AF00BFBD465DF8047B7C
:1015C000704780B400AF00BFBD465DF8047B704734
:1015D00080B400AF00BFBD465DF8047B704780B4A7
:1015E00000AF00BFBD465DF8047B704780B400AF1C
:1015F00000BFBD465DF8047B704780B400AF00BFFC
:10160000BD465DF8047B704780B400AF00BFBD46A7
:101610005DF8047B704780B400AF00BFBD465DF845
:10162000047B704780B400AF00BFBD465DF8047B0B
:10163000704780B400AF00BFBD465DF8047B7047C3
:1016400080B400AF00BFBD465DF8047B704780B436
:1016500000AF00BFBD465DF8047B704780B400AFAB
:1016600000BFBD465DF8047B704780B400AF00BF8B
:10167000BD465DF8047B704780B400AF00BFBD4637
:101680005DF8047B704780B400AF00BFBD465DF8D5
:10169000047B704780B400AF00BFBD465DF8047B9B
:1016A000704780B400AF00BFBD465DF8047B704753
:1016B00080B500AF5C4B9B685B4A43F0005393607E
:1016C000594B5B69584A23F000535361564B1B69D1
:1016D000554A43F000531361534B5B69524A43F040
:1016E00000535361514B4FF48072C3F8A0234F4B0A
:1016F000D3F8A03303F00103002B03D032214C4870
:1017000000F091F9494B0122C3F83823474B0122DD
:10171000C3F84023454B0122C3F84823434B012221
:10172000C3F85023414B0122C3F858233F4B404A92
:101730001A603E4B3F4A9A603B4B9B6B23F01F0362
:10174000394A43F003039363384BDB69374A23F488
:101750007F6323F00F03D361344BDB69334A43F4D7
:101760008073D361314B9B69304B00229A612F4BC0
:101770009A692E49304B13438B612C4B1B6C2B4BBE
:1017800000221A64294B294A1B6C1364274B1B69DE
:10179000264A03F003031361244B1A69274B23F0F5
:1017A0000303224913430B61204B1B6C1F4A23F098
:1017B000804313641D4B1B6C1C4A23F000431364CD
:1017C0001A4B9B69194A43F080539361174B9B69ED
:1017D000164A43F000639361144BDB69134A43F4E8
:1017E0008053D361114B0122C3F89823332114484D
:1017F00000F019F90D4B0122C3F840230B4B0122D5
:10180000C3F85823094B9B69084A43F001039361CD
:10181000064B40F20112C3F81823044B40F20112A8
:10182000C3F8302300BF80BD00F001400008004035
:10183000006001400000002025042000000400207A
:101840000070014080B500AF5521074800F0EBF86B
:10185000064BD3F8A033054A43F4807343F00103E9
:10186000C2F8A03300BF80BD0070014000080040F6
:1018700080B485B000AFF860B9607A603B607A6888
:10188000FB681A603A68FB685A600F4B1B6903F0EB
:101890000302FB689A60FB689A68BB6823F0030345
:1018A0001A43FB689A60084B9A69FB68DA603A8BC6
:1018B000FB681A61FB6800225A6100BF1437BD46FD
:1018C0005DF8047B704700BF0008004080B582B01F
:1018D00002AF4FF480730093044B054A0549054855
:1018E000FFF7C6FF00BFBD4680BD00BF000000205F
:1018F000006001400004002080B483B000AF786035
:101900000B4B06229A600B4B1B6B7A6802FB03F3AE
:10191000074A64331360064B9B68054A43F0010392
:10192000936000BF0C37BD465DF8047B704700BF75
:101930000030014000F0014080B582B000AF00F0FF
:101940003DF81A4800F086F8194800F083F8FFF7D0
:10195000AFFEFFF7BBFF012201210020FFF7D2FC01
:101960004421134800F05FF8FFF76CFF41F2883024
:10197000FFF7C2FF0F4B5B68632BFBD800237B6034
:101980000BE00D4A7B6852F82330DBB21946084859
:1019900000F049F87B6801337B607B68132BF0D93A
:1019A00042F21070FFF7A8FFE4E700BF00600140BB
:1019B00000700140003001400000002080B400AF02
:1019C0000C4B5A680B490C4B13434B60094BDB68BB
:1019D000084A43F4601343F00303D360054B1A68CD
:1019E0000449064B13430B6000BFBD465DF8047B02
:1019F000704700BF00F00140030031045A390F2046
:101A000080B483B000AF78607B68DB6F03F00803BD
:101A1000002B01D0012300E0002318460C37BD46FF
:101A20005DF8047B704780B483B000AF78600B46EC
:101A3000FB7000BF7B68DB6F03F00103002BF9D163
:101A4000FA787B681A6000BF0C37BD465DF8047BEE
:101A50007047000080B487B000AF78604FF4E13386
:101A60007B61344B344A1A60344B354A1A607B68C8
:101A7000DB6823F080027B68DA607B68D3F89830FB
:101A800023F001027B68C3F898207B68D3F8943078
:101A900043F001027B68C3F894207B680022C3F8FE
:101AA0009C207B680222C3F8A0207B68D3F8983082
:101AB00043F001027B68C3F89820224B1B6B4FF464
:101AC0007A7202FB03F33B617B68DB6843F08002C0
:101AD0007B68DA603B691A097B695B081A447B6999
:101AE000B2FBF3F3FB60FB68DAB27B681A60FB6859
:101AF0001B0ADAB27B685A607B68DB6823F08002DD
:101B00007B68DA607B680322DA607B68D3F8983000
:101B100043F001027B68C3F898207B681B6923F0BF
:101B200020027B681A6100BF1C37BD465DF8047B4C
:101B3000704700BF80D101405055555584D10140B8
:081B4000555555FF00F001406E
:101B48001100000011000000110000001100000049
:101B5800110000000000000000000000000000006C
:101B6800000000000000000000000000000000006D
:101B7800000000000000000000000000000000005D
:101B8800000000000000000000000000000000004D
:101B9800000000000000000000000000000000003D
:0400000501001000E6
:00000001FF
